{
	"data": {
		"bytecode": {
			"linkReferences": {},
			"object": "608060405260008060006101000a81548160ff02191690831515021790555060008060156101000a81548160ff02191690831515021790555034801561004457600080fd5b50613dbb806100546000396000f3fe60806040526004361061020f5760003560e01c806392b7064c11610118578063c5ec8970116100a0578063e1c7392a1161006f578063e1c7392a14610781578063e77b33fd14610798578063f2fde38b146107c1578063f408da91146107ea578063ffaac0eb146108015761020f565b8063c5ec8970146106d7578063cacc26ed14610702578063cb10f2151461072d578063d7a9cd79146107565761020f565b8063b3fc7eae116100e7578063b3fc7eae146105f0578063b67d77c514610619578063b6d9762314610656578063beab713114610681578063c5b37c22146106ac5761020f565b806392b7064c146105435780639d5773e01461055f578063a48ace381461058a578063b14ecafd146105c75761020f565b8063780cf0041161019b57806384db809f1161016a57806384db809f1461044c57806386c99f0e146104895780638c0c2631146104c65780638da5cb5b146104ef57806391c404ac1461051a5761020f565b8063780cf004146103a15780637bda741c146103ca57806380ae1c281461040a57806382b4beec146104215761020f565b80634e056005116101e25780634e056005146102e45780635c975abb1461030d5780635d699c5d146103385780636887264414610361578063715018a61461038a5761020f565b80630461ce7214610214578063174e300b1461023f5780633c69171b1461027c57806345fb7494146102b9575b600080fd5b34801561022057600080fd5b50610229610818565b6040516102369190613ab9565b60405180910390f35b34801561024b57600080fd5b5061026660048036038101906102619190613252565b61081d565b6040516102739190613afd565b60405180910390f35b34801561028857600080fd5b506102a3600480360381019061029e9190613355565b610844565b6040516102b09190613a97565b60405180910390f35b3480156102c557600080fd5b506102ce610a32565b6040516102db9190613931565b60405180910390f35b3480156102f057600080fd5b5061030b6004803603810190610306919061341b565b610a3d565b005b34801561031957600080fd5b50610322610af6565b60405161032f9190613810565b60405180910390f35b34801561034457600080fd5b5061035f600480360381019061035a9190613035565b610b0c565b005b34801561036d57600080fd5b50610388600480360381019061038391906132de565b610bc8565b005b34801561039657600080fd5b5061039f610d92565b005b3480156103ad57600080fd5b506103c860048036038101906103c391906130c3565b610eca565b005b3480156103d657600080fd5b506103f160048036038101906103ec91906131c7565b610fbd565b604051610401949392919061388b565b60405180910390f35b34801561041657600080fd5b5061041f611007565b005b34801561042d57600080fd5b50610436611070565b6040516104439190613ab9565b60405180910390f35b34801561045857600080fd5b50610473600480360381019061046e919061319e565b611075565b604051610480919061374a565b60405180910390f35b34801561049557600080fd5b506104b060048036038101906104ab9190613203565b6110a8565b6040516104bd9190613810565b60405180910390f35b3480156104d257600080fd5b506104ed60048036038101906104e89190613087565b6110e4565b005b3480156104fb57600080fd5b506105046111d1565b604051610511919061374a565b60405180910390f35b34801561052657600080fd5b50610541600480360381019061053c919061341b565b611213565b005b61055d6004803603810190610558919061327b565b6112a4565b005b34801561056b57600080fd5b50610574611566565b6040516105819190613ab9565b60405180910390f35b34801561059657600080fd5b506105b160048036038101906105ac91906134a9565b61156c565b6040516105be9190613a53565b60405180910390f35b3480156105d357600080fd5b506105ee60048036038101906105e991906133a4565b611629565b005b3480156105fc57600080fd5b50610617600480360381019061061291906133a4565b611b04565b005b34801561062557600080fd5b50610640600480360381019061063b919061346d565b612224565b60405161064d9190613ab9565b60405180910390f35b34801561066257600080fd5b5061066b61226e565b604051610678919061374a565b60405180910390f35b34801561068d57600080fd5b50610696612294565b6040516106a39190613931565b60405180910390f35b3480156106b857600080fd5b506106c16122a7565b6040516106ce9190613ab9565b60405180910390f35b3480156106e357600080fd5b506106ec6122ad565b6040516106f99190613ab9565b60405180910390f35b34801561070e57600080fd5b506107176122b3565b6040516107249190613ab9565b60405180910390f35b34801561073957600080fd5b50610754600480360381019061074f9190613126565b6122b8565b005b34801561076257600080fd5b5061076b6123fa565b6040516107789190613ab9565b60405180910390f35b34801561078d57600080fd5b50610796612400565b005b3480156107a457600080fd5b506107bf60048036038101906107ba919061341b565b61244b565b005b3480156107cd57600080fd5b506107e860048036038101906107e39190613035565b612521565b005b3480156107f657600080fd5b506107ff612693565b005b34801561080d57600080fd5b506108166128dc565b005b600a81565b60066020528060005260406000206000915054906101000a900467ffffffffffffffff1681565b61084c612dd4565b600060159054906101000a900460ff1661086557600080fd5b6000838560405160200161087a929190613b18565b6040516020818303038152906040528051906020012090506009600082815260200190815260200160002060008481526020019081526020016000206040518060c001604052908160008201548152602001600182015481526020016002820180548060200260200160405190810160405280929190818152602001828054801561095a57602002820191906000526020600020905b8160009054906101000a900473ffffffffffffffffffffffffffffffffffffffff1673ffffffffffffffffffffffffffffffffffffffff1681526020019060010190808311610910575b50505050508152602001600382018054806020026020016040519081016040528092919081815260200182805480156109e857602002820191906000526020600020905b8160009054906101000a900473ffffffffffffffffffffffffffffffffffffffff1673ffffffffffffffffffffffffffffffffffffffff168152602001906001019080831161099e575b505050505081526020016004820160009054906101000a900460ff166004811115610a0f57fe5b6004811115610a1a57fe5b81526020016005820154815250509150509392505050565b63574c413160c01b81565b600060159054906101000a900460ff16610a5657600080fd5b610a5e612945565b73ffffffffffffffffffffffffffffffffffffffff16610a7c6111d1565b73ffffffffffffffffffffffffffffffffffffffff1614610a9c57600080fd5b600060159054906101000a900460ff16610ab557600080fd5b806001819055507fa20d6b84cd798a24038be305eff8a45ca82ef54a2aa2082005d8e14c0a4746c881604051610aeb9190613ab9565b60405180910390a150565b60008060009054906101000a900460ff16905090565b600060159054906101000a900460ff16610b2557600080fd5b610b2d612945565b73ffffffffffffffffffffffffffffffffffffffff16610b4b6111d1565b73ffffffffffffffffffffffffffffffffffffffff1614610b6b57600080fd5b600060159054906101000a900460ff16610b8457600080fd5b80600560006101000a81548173ffffffffffffffffffffffffffffffffffffffff021916908373ffffffffffffffffffffffffffffffffffffffff16021790555050565b610bd061294d565b600060159054906101000a900460ff16610be957600080fd5b60008486604051602001610bfe929190613b18565b60405160208183030381529060405280519060200120905060608385604051602001610c2b929190613ad4565b604051602081830303815290604052905060006007600085815260200190815260200160002060009054906101000a900473ffffffffffffffffffffffffffffffffffffffff16905060008183604051602001610c899291906137e0565b60405160208183030381529060405280519060200120905060006009600086815260200190815260200160002060008381526020019081526020016000209050600480811115610cd557fe5b8160040160009054906101000a900460ff166004811115610cf257fe5b1415610cfd57600080fd5b600454610d0e438360050154612224565b11610d1857600080fd5b60048160040160006101000a81548160ff02191690836004811115610d3957fe5b02179055507f8dc49847a011c3b316cd0f50cf982e0fd5b3ddb7fdf970fc81a25557f0923a738a8a600484600001548560010154604051610d7e959493929190613a00565b60405180910390a150505050505050505050565b600060159054906101000a900460ff16610dab57600080fd5b610db3612945565b73ffffffffffffffffffffffffffffffffffffffff16610dd16111d1565b73ffffffffffffffffffffffffffffffffffffffff1614610df157600080fd5b600060159054906101000a900460ff16610e0a57600080fd5b600073ffffffffffffffffffffffffffffffffffffffff16600060019054906101000a900473ffffffffffffffffffffffffffffffffffffffff1673ffffffffffffffffffffffffffffffffffffffff167f8be0079c531659141344cd1fd0a4f28419497f9722a3daafe3b4186f6b6457e060405160405180910390a360008060016101000a81548173ffffffffffffffffffffffffffffffffffffffff021916908373ffffffffffffffffffffffffffffffffffffffff160217905550565b600060159054906101000a900460ff16610ee357600080fd5b610eeb612945565b73ffffffffffffffffffffffffffffffffffffffff16610f096111d1565b73ffffffffffffffffffffffffffffffffffffffff1614610f2957600080fd5b600060159054906101000a900460ff16610f4257600080fd5b60008490508073ffffffffffffffffffffffffffffffffffffffff1663d9caed128585856040518463ffffffff1660e01b8152600401610f84939291906137a9565b600060405180830381600087803b158015610f9e57600080fd5b505af1158015610fb2573d6000803e3d6000fd5b505050505050505050565b6009602052816000526040600020602052806000526040600020600091509150508060000154908060010154908060040160009054906101000a900460ff16908060050154905084565b600060159054906101000a900460ff1661102057600080fd5b611028612945565b73ffffffffffffffffffffffffffffffffffffffff166110466111d1565b73ffffffffffffffffffffffffffffffffffffffff161461106657600080fd5b61106e612aa2565b565b600a81565b60076020528060005260406000206000915054906101000a900473ffffffffffffffffffffffffffffffffffffffff1681565b600a602052826000526040600020602052816000526040600020602052806000526040600020600092509250509054906101000a900460ff1681565b600060159054906101000a900460ff166110fd57600080fd5b611105612945565b73ffffffffffffffffffffffffffffffffffffffff166111236111d1565b73ffffffffffffffffffffffffffffffffffffffff161461114357600080fd5b600060159054906101000a900460ff1661115c57600080fd5b60008290508073ffffffffffffffffffffffffffffffffffffffff166307b7ed99836040518263ffffffff1660e01b815260040161119a919061374a565b600060405180830381600087803b1580156111b457600080fd5b505af11580156111c8573d6000803e3d6000fd5b50505050505050565b60008060159054906101000a900460ff166111eb57600080fd5b600060019054906101000a900473ffffffffffffffffffffffffffffffffffffffff16905090565b600060159054906101000a900460ff1661122c57600080fd5b611234612945565b73ffffffffffffffffffffffffffffffffffffffff166112526111d1565b73ffffffffffffffffffffffffffffffffffffffff161461127257600080fd5b600060159054906101000a900460ff1661128b57600080fd5b80600354141561129a57600080fd5b8060038190555050565b6112ac612afd565b600060159054906101000a900460ff166112c557600080fd5b60035434146112d357600080fd5b60006007600085815260200190815260200160002060009054906101000a900473ffffffffffffffffffffffffffffffffffffffff169050600073ffffffffffffffffffffffffffffffffffffffff168173ffffffffffffffffffffffffffffffffffffffff16141561134557600080fd5b6000600660008777ffffffffffffffffffffffffffffffffffffffffffffffff191677ffffffffffffffffffffffffffffffffffffffffffffffff19168152602001908152602001600020600081819054906101000a900467ffffffffffffffff1660010191906101000a81548167ffffffffffffffff021916908367ffffffffffffffff16021790559050606084846040516020016113e6929190613ad4565b604051602081830303815290604052905080600860008467ffffffffffffffff1667ffffffffffffffff16815260200190815260200160002060008977ffffffffffffffffffffffffffffffffffffffffffffffff191677ffffffffffffffffffffffffffffffffffffffffffffffff191681526020019081526020016000209080519060200190611479929190612e1b565b50600083905060008173ffffffffffffffffffffffffffffffffffffffff1663d993e10f898b87338b8d6040518763ffffffff1660e01b81526004016114c4969594939291906138d0565b602060405180830381600087803b1580156114de57600080fd5b505af11580156114f2573d6000803e3d6000fd5b505050506040513d601f19601f82011682018060405250810190611516919061305e565b90507f6a8f7ffca1e3ab54554c709a9eb23e11fc5063f0b24e40087c40ab3e7027f189898986338a868d604051611553979695949392919061394c565b60405180910390a1505050505050505050565b60025481565b6008602052816000526040600020602052806000526040600020600091509150508054600181600116156101000203166002900480601f0160208091040260200160405190810160405280929190818152602001828054600181600116156101000203166002900480156116215780601f106115f657610100808354040283529160200191611621565b820191906000526020600020905b81548152906001019060200180831161160457829003601f168201915b505050505081565b611631612b18565b611639612afd565b600060159054906101000a900460ff1661165257600080fd5b60006007600085815260200190815260200160002060009054906101000a900473ffffffffffffffffffffffffffffffffffffffff1690506060828460405160200161169f929190613ad4565b6040516020818303038152906040529050600086886040516020016116c5929190613b18565b604051602081830303815290604052805190602001209050600083836040516020016116f29291906137e0565b604051602081830303815290604052805190602001209050600060096000848152602001908152602001600020600083815260200190815260200160002090506000600481111561173f57fe5b8160040160009054906101000a900460ff16600481111561175c57fe5b141561176757600080fd5b8060010154821461177757600080fd5b600073ffffffffffffffffffffffffffffffffffffffff16600560009054906101000a900473ffffffffffffffffffffffffffffffffffffffff1673ffffffffffffffffffffffffffffffffffffffff1614156117d357600080fd5b6000600560009054906101000a900473ffffffffffffffffffffffffffffffffffffffff169050600060169054906101000a900460c01b77ffffffffffffffffffffffffffffffffffffffffffffffff19168b77ffffffffffffffffffffffffffffffffffffffffffffffff191614156118b3578073ffffffffffffffffffffffffffffffffffffffff166335409f7f336040518263ffffffff1660e01b81526004016118809190613765565b600060405180830381600087803b15801561189a57600080fd5b505af11580156118ae573d6000803e3d6000fd5b505050505b600360048111156118c057fe5b8260040160009054906101000a900460ff1660048111156118dd57fe5b141561195b578073ffffffffffffffffffffffffffffffffffffffff16630f03ee5933896040518363ffffffff1660e01b815260040161191e929190613780565b600060405180830381600087803b15801561193857600080fd5b505af115801561194c573d6000803e3d6000fd5b50505050505050505050611afd565b60038260040160006101000a81548160ff0219169083600481111561197c57fe5b02179055506000600760008460000154815260200190815260200160002060009054906101000a900473ffffffffffffffffffffffffffffffffffffffff1690508073ffffffffffffffffffffffffffffffffffffffff16630396ec1084600001548b8b6040518463ffffffff1660e01b81526004016119fe93929190613854565b600060405180830381600087803b158015611a1857600080fd5b505af1158015611a2c573d6000803e3d6000fd5b505050508173ffffffffffffffffffffffffffffffffffffffff1663adaa71cc338a6040518363ffffffff1660e01b8152600401611a6b929190613780565b600060405180830381600087803b158015611a8557600080fd5b505af1158015611a99573d6000803e3d6000fd5b505050507f8dc49847a011c3b316cd0f50cf982e0fd5b3ddb7fdf970fc81a25557f0923a738c8c8560040160009054906101000a900460ff1686600001548760010154604051611aed959493929190613a00565b60405180910390a1505050505050505b5050505050565b611b0c612b18565b611b14612afd565b600060159054906101000a900460ff16611b2d57600080fd5b60006007600085815260200190815260200160002060009054906101000a900473ffffffffffffffffffffffffffffffffffffffff16905060608284604051602001611b7a929190613ad4565b604051602081830303815290604052905060008688604051602001611ba0929190613b18565b60405160208183030381529060405280519060200120905060008383604051602001611bcd9291906137e0565b60405160208183030381529060405280519060200120905060006009600084815260200190815260200160002060008381526020019081526020016000209050600073ffffffffffffffffffffffffffffffffffffffff16600760008a815260200190815260200160002060009054906101000a900473ffffffffffffffffffffffffffffffffffffffff1673ffffffffffffffffffffffffffffffffffffffff161415611c7a57600080fd5b600a6000848152602001908152602001600020600083815260200190815260200160002060003373ffffffffffffffffffffffffffffffffffffffff1673ffffffffffffffffffffffffffffffffffffffff16815260200190815260200160002060009054906101000a900460ff1615611d8d576000600560009054906101000a900473ffffffffffffffffffffffffffffffffffffffff1690508073ffffffffffffffffffffffffffffffffffffffff1663e499dacf33896040518363ffffffff1660e01b8152600401611d50929190613780565b600060405180830381600087803b158015611d6a57600080fd5b505af1158015611d7e573d6000803e3d6000fd5b5050505050505050505061221d565b60008160040160009054906101000a900460ff166004811115611dac57fe5b1415611fa157600260008154600101919050819055506040518060c001604052808981526020018381526020016001604051908082528060200260200182016040528015611e095781602001602082028036833780820191505090505b5081526020016000604051908082528060200260200182016040528015611e3f5781602001602082028036833780820191505090505b50815260200160016004811115611e5257fe5b81526020014381525060096000858152602001908152602001600020600084815260200190815260200160002060008201518160000155602082015181600101556040820151816002019080519060200190611eaf929190612e9b565b506060820151816003019080519060200190611ecc929190612e9b565b5060808201518160040160006101000a81548160ff02191690836004811115611ef157fe5b021790555060a082015181600501559050503381600201600081548110611f1457fe5b9060005260206000200160006101000a81548173ffffffffffffffffffffffffffffffffffffffff021916908373ffffffffffffffffffffffffffffffffffffffff1602179055507f8dc49847a011c3b316cd0f50cf982e0fd5b3ddb7fdf970fc81a25557f0923a738a8a60018b86604051611f94959493929190613a00565b60405180910390a161209a565b600454611fb2438360050154612224565b11156120235760048160040160006101000a81548160ff02191690836004811115611fd957fe5b02179055507f8dc49847a011c3b316cd0f50cf982e0fd5b3ddb7fdf970fc81a25557f0923a738a8a60048b86604051612016959493929190613a00565b60405180910390a1612099565b8060010154821461203357600080fd5b80600201339080600181540180825580915050600190039060005260206000200160009091909190916101000a81548173ffffffffffffffffffffffffffffffffffffffff021916908373ffffffffffffffffffffffffffffffffffffffff1602179055505b5b6004808111156120a657fe5b8160040160009054906101000a900460ff1660048111156120c357fe5b14612217576001600a6000858152602001908152602001600020600084815260200190815260200160002060003373ffffffffffffffffffffffffffffffffffffffff1673ffffffffffffffffffffffffffffffffffffffff16815260200190815260200160002060006101000a81548160ff0219169083151502179055507f85f41114efc645854a10eef33ef4dec54341cb3ec3ab32386c92c881f3b1b5058a8a8360040160009054906101000a900460ff168b60405161218894939291906139bb565b60405180910390a1600180541115806121aa5750600154816002018054905010155b156122165760028160040160006101000a81548160ff021916908360048111156121d057fe5b02179055507f8dc49847a011c3b316cd0f50cf982e0fd5b3ddb7fdf970fc81a25557f0923a738a8a60028b8660405161220d959493929190613a00565b60405180910390a15b5b50505050505b5050505050565b600061226683836040518060400160405280601e81526020017f536166654d6174683a207375627472616374696f6e206f766572666c6f770000815250612c30565b905092915050565b600560009054906101000a900473ffffffffffffffffffffffffffffffffffffffff1681565b600060169054906101000a900460c01b81565b60035481565b60045481565b600181565b600060159054906101000a900460ff166122d157600080fd5b6122d9612945565b73ffffffffffffffffffffffffffffffffffffffff166122f76111d1565b73ffffffffffffffffffffffffffffffffffffffff161461231757600080fd5b600060159054906101000a900460ff1661233057600080fd5b826007600084815260200190815260200160002060006101000a81548173ffffffffffffffffffffffffffffffffffffffff021916908373ffffffffffffffffffffffffffffffffffffffff16021790555060008390508073ffffffffffffffffffffffffffffffffffffffff1663b8fa373684846040518363ffffffff1660e01b81526004016123c292919061382b565b600060405180830381600087803b1580156123dc57600080fd5b505af11580156123f0573d6000803e3d6000fd5b5050505050505050565b60015481565b63574c413160c01b600060166101000a81548167ffffffffffffffff021916908360c01c021790555060018081905550600a600381905550600a60048190555061244933612c8b565b565b600060159054906101000a900460ff1661246457600080fd5b61246c612945565b73ffffffffffffffffffffffffffffffffffffffff1661248a6111d1565b73ffffffffffffffffffffffffffffffffffffffff16146124aa57600080fd5b600060159054906101000a900460ff166124c357600080fd5b60004782106124d257476124d4565b815b90503373ffffffffffffffffffffffffffffffffffffffff166108fc829081150290604051600060405180830381858888f1935050505015801561251c573d6000803e3d6000fd5b505050565b600060159054906101000a900460ff1661253a57600080fd5b612542612945565b73ffffffffffffffffffffffffffffffffffffffff166125606111d1565b73ffffffffffffffffffffffffffffffffffffffff161461258057600080fd5b600060159054906101000a900460ff1661259957600080fd5b600073ffffffffffffffffffffffffffffffffffffffff168173ffffffffffffffffffffffffffffffffffffffff1614156125d357600080fd5b8073ffffffffffffffffffffffffffffffffffffffff16600060019054906101000a900473ffffffffffffffffffffffffffffffffffffffff1673ffffffffffffffffffffffffffffffffffffffff167f8be0079c531659141344cd1fd0a4f28419497f9722a3daafe3b4186f6b6457e060405160405180910390a380600060016101000a81548173ffffffffffffffffffffffffffffffffffffffff021916908373ffffffffffffffffffffffffffffffffffffffff16021790555050565b61269b612b18565b600060159054906101000a900460ff166126b457600080fd5b600073ffffffffffffffffffffffffffffffffffffffff16600560009054906101000a900473ffffffffffffffffffffffffffffffffffffffff1673ffffffffffffffffffffffffffffffffffffffff16141561271057600080fd5b6000600560009054906101000a900473ffffffffffffffffffffffffffffffffffffffff16905060008173ffffffffffffffffffffffffffffffffffffffff166334381749336040518263ffffffff1660e01b81526004016127729190613765565b60206040518083038186803b15801561278a57600080fd5b505afa15801561279e573d6000803e3d6000fd5b505050506040513d601f19601f820116820180604052508101906127c29190613444565b905060004782106127d357476127d5565b815b9050600081111561289e573373ffffffffffffffffffffffffffffffffffffffff166108fc829081150290604051600060405180830381858888f19350505050158015612826573d6000803e3d6000fd5b508273ffffffffffffffffffffffffffffffffffffffff16631a3991253361284e8585612224565b6040518363ffffffff1660e01b815260040161286b929190613780565b600060405180830381600087803b15801561288557600080fd5b505af1158015612899573d6000803e3d6000fd5b505050505b7fe8354b169cd993d5cdfad1036a9a3f1ea7ed77e430bccb279200fd088243f59533826040516128cf929190613780565b60405180910390a1505050565b600060159054906101000a900460ff166128f557600080fd5b6128fd612945565b73ffffffffffffffffffffffffffffffffffffffff1661291b6111d1565b73ffffffffffffffffffffffffffffffffffffffff161461293b57600080fd5b612943612d5f565b565b600033905090565b600073ffffffffffffffffffffffffffffffffffffffff16600560009054906101000a900473ffffffffffffffffffffffffffffffffffffffff1673ffffffffffffffffffffffffffffffffffffffff1614156129a957600080fd5b6000600560009054906101000a900473ffffffffffffffffffffffffffffffffffffffff1690503373ffffffffffffffffffffffffffffffffffffffff166129ef6111d1565b73ffffffffffffffffffffffffffffffffffffffff161480612a9657508073ffffffffffffffffffffffffffffffffffffffff1663541d5548336040518263ffffffff1660e01b8152600401612a459190613765565b60206040518083038186803b158015612a5d57600080fd5b505afa158015612a71573d6000803e3d6000fd5b505050506040513d601f19601f82011682018060405250810190612a959190613175565b5b612a9f57600080fd5b50565b612aaa612afd565b60016000806101000a81548160ff0219169083151502179055507f62e78cea01bee320cd4e420270b5ea74000d11b0c9f74754ebdbfc544b05a25833604051612af39190613765565b60405180910390a1565b6000809054906101000a900460ff1615612b1657600080fd5b565b600073ffffffffffffffffffffffffffffffffffffffff16600560009054906101000a900473ffffffffffffffffffffffffffffffffffffffff1673ffffffffffffffffffffffffffffffffffffffff161415612b7457600080fd5b6000600560009054906101000a900473ffffffffffffffffffffffffffffffffffffffff1690508073ffffffffffffffffffffffffffffffffffffffff1663541d5548336040518263ffffffff1660e01b8152600401612bd49190613765565b60206040518083038186803b158015612bec57600080fd5b505afa158015612c00573d6000803e3d6000fd5b505050506040513d601f19601f82011682018060405250810190612c249190613175565b612c2d57600080fd5b50565b6000838311158290612c78576040517f08c379a0000000000000000000000000000000000000000000000000000000008152600401612c6f9190613a75565b60405180910390fd5b5060008385039050809150509392505050565b600060159054906101000a900460ff1615612ca557600080fd5b6001600060156101000a81548160ff02191690831515021790555080600060016101000a81548173ffffffffffffffffffffffffffffffffffffffff021916908373ffffffffffffffffffffffffffffffffffffffff1602179055508073ffffffffffffffffffffffffffffffffffffffff16600073ffffffffffffffffffffffffffffffffffffffff167f8be0079c531659141344cd1fd0a4f28419497f9722a3daafe3b4186f6b6457e060405160405180910390a350565b612d67612dba565b60008060006101000a81548160ff0219169083151502179055507f5db9ee0a495bf2e6ff9c91a7834c1ba4fdd244a5e8aa4e537bd38aeae4b073aa33604051612db09190613765565b60405180910390a1565b6000809054906101000a900460ff16612dd257600080fd5b565b6040518060c001604052806000801916815260200160008019168152602001606081526020016060815260200160006004811115612e0e57fe5b8152602001600081525090565b828054600181600116156101000203166002900490600052602060002090601f016020900481019282601f10612e5c57805160ff1916838001178555612e8a565b82800160010185558215612e8a579182015b82811115612e89578251825591602001919060010190612e6e565b5b509050612e979190612f25565b5090565b828054828255906000526020600020908101928215612f14579160200282015b82811115612f135782518260006101000a81548173ffffffffffffffffffffffffffffffffffffffff021916908373ffffffffffffffffffffffffffffffffffffffff16021790555091602001919060010190612ebb565b5b509050612f219190612f4a565b5090565b612f4791905b80821115612f43576000816000905550600101612f2b565b5090565b90565b612f8a91905b80821115612f8657600081816101000a81549073ffffffffffffffffffffffffffffffffffffffff021916905550600101612f50565b5090565b90565b600081359050612f9c81613cfb565b92915050565b600081519050612fb181613cfb565b92915050565b600081519050612fc681613d12565b92915050565b600081359050612fdb81613d29565b92915050565b600081359050612ff081613d40565b92915050565b60008135905061300581613d57565b92915050565b60008151905061301a81613d57565b92915050565b60008135905061302f81613d6e565b92915050565b60006020828403121561304757600080fd5b600061305584828501612f8d565b91505092915050565b60006020828403121561307057600080fd5b600061307e84828501612fa2565b91505092915050565b6000806040838503121561309a57600080fd5b60006130a885828601612f8d565b92505060206130b985828601612f8d565b9150509250929050565b600080600080608085870312156130d957600080fd5b60006130e787828801612f8d565b94505060206130f887828801612f8d565b935050604061310987828801612f8d565b925050606061311a87828801612ff6565b91505092959194509250565b60008060006060848603121561313b57600080fd5b600061314986828701612f8d565b935050602061315a86828701612fcc565b925050604061316b86828701612f8d565b9150509250925092565b60006020828403121561318757600080fd5b600061319584828501612fb7565b91505092915050565b6000602082840312156131b057600080fd5b60006131be84828501612fcc565b91505092915050565b600080604083850312156131da57600080fd5b60006131e885828601612fcc565b92505060206131f985828601612fcc565b9150509250929050565b60008060006060848603121561321857600080fd5b600061322686828701612fcc565b935050602061323786828701612fcc565b925050604061324886828701612f8d565b9150509250925092565b60006020828403121561326457600080fd5b600061327284828501612fe1565b91505092915050565b6000806000806080858703121561329157600080fd5b600061329f87828801612fe1565b94505060206132b087828801612fcc565b93505060406132c187828801612ff6565b92505060606132d287828801612f8d565b91505092959194509250565b600080600080600060a086880312156132f657600080fd5b600061330488828901612fe1565b955050602061331588828901613020565b945050604061332688828901612f8d565b935050606061333788828901612ff6565b925050608061334888828901612fcc565b9150509295509295909350565b60008060006060848603121561336a57600080fd5b600061337886828701612fe1565b935050602061338986828701613020565b925050604061339a86828701612fcc565b9150509250925092565b600080600080600060a086880312156133bc57600080fd5b60006133ca88828901612fe1565b95505060206133db88828901613020565b94505060406133ec88828901612fcc565b93505060606133fd88828901612f8d565b925050608061340e88828901612ff6565b9150509295509295909350565b60006020828403121561342d57600080fd5b600061343b84828501612ff6565b91505092915050565b60006020828403121561345657600080fd5b60006134648482850161300b565b91505092915050565b6000806040838503121561348057600080fd5b600061348e85828601612ff6565b925050602061349f85828601612ff6565b9150509250929050565b600080604083850312156134bc57600080fd5b60006134ca85828601613020565b92505060206134db85828601612fe1565b9150509250929050565b60006134f1838361350c565b60208301905092915050565b61350681613c62565b82525050565b61351581613bbd565b82525050565b61352481613bbd565b82525050565b600061353582613b51565b61353f8185613b8a565b935061354a83613b41565b8060005b8381101561357b57815161356288826134e5565b975061356d83613b7d565b92505060018101905061354e565b5085935050505092915050565b61359181613bcf565b82525050565b6135a081613bdb565b82525050565b6135af81613bdb565b82525050565b6135be81613be5565b82525050565b60006135cf82613b67565b6135d98185613b9b565b93506135e9818560208601613caa565b6135f281613cdd565b840191505092915050565b600061360882613b5c565b6136128185613b9b565b9350613622818560208601613caa565b61362b81613cdd565b840191505092915050565b61363f81613c74565b82525050565b61364e81613c74565b82525050565b600061365f82613b72565b6136698185613bac565b9350613679818560208601613caa565b61368281613cdd565b840191505092915050565b600060c0830160008301516136a56000860182613597565b5060208301516136b86020860182613597565b50604083015184820360408601526136d0828261352a565b915050606083015184820360608601526136ea828261352a565b91505060808301516136ff6080860182613636565b5060a083015161371260a086018261371d565b508091505092915050565b61372681613c44565b82525050565b61373581613c44565b82525050565b61374481613c4e565b82525050565b600060208201905061375f600083018461351b565b92915050565b600060208201905061377a60008301846134fd565b92915050565b600060408201905061379560008301856134fd565b6137a2602083018461372c565b9392505050565b60006060820190506137be600083018661351b565b6137cb602083018561351b565b6137d8604083018461372c565b949350505050565b60006040820190506137f5600083018561351b565b818103602083015261380781846135c4565b90509392505050565b60006020820190506138256000830184613588565b92915050565b600060408201905061384060008301856135a6565b61384d602083018461351b565b9392505050565b600060608201905061386960008301866135a6565b613876602083018561351b565b613883604083018461372c565b949350505050565b60006080820190506138a060008301876135a6565b6138ad60208301866135a6565b6138ba6040830185613645565b6138c7606083018461372c565b95945050505050565b600060c0820190506138e560008301896135a6565b6138f260208301886135b5565b6138ff604083018761373b565b61390c60608301866134fd565b613919608083018561351b565b61392660a083018461372c565b979650505050505050565b600060208201905061394660008301846135b5565b92915050565b600060e082019050613961600083018a6135b5565b61396e60208301896135a6565b61397b604083018861373b565b61398860608301876134fd565b613995608083018661351b565b6139a260a083018561351b565b6139af60c083018461372c565b98975050505050505050565b60006080820190506139d060008301876135b5565b6139dd602083018661373b565b6139ea6040830185613645565b6139f760608301846135a6565b95945050505050565b600060a082019050613a1560008301886135b5565b613a22602083018761373b565b613a2f6040830186613645565b613a3c60608301856135a6565b613a4960808301846135a6565b9695505050505050565b60006020820190508181036000830152613a6d81846135fd565b905092915050565b60006020820190508181036000830152613a8f8184613654565b905092915050565b60006020820190508181036000830152613ab1818461368d565b905092915050565b6000602082019050613ace600083018461372c565b92915050565b6000604082019050613ae9600083018561372c565b613af6602083018461351b565b9392505050565b6000602082019050613b12600083018461373b565b92915050565b6000604082019050613b2d600083018561373b565b613b3a60208301846135b5565b9392505050565b6000819050602082019050919050565b600081519050919050565b600081519050919050565b600081519050919050565b600081519050919050565b6000602082019050919050565b600082825260208201905092915050565b600082825260208201905092915050565b600082825260208201905092915050565b6000613bc882613c24565b9050919050565b60008115159050919050565b6000819050919050565b60007fffffffffffffffff00000000000000000000000000000000000000000000000082169050919050565b6000819050613c1f82613cee565b919050565b600073ffffffffffffffffffffffffffffffffffffffff82169050919050565b6000819050919050565b600067ffffffffffffffff82169050919050565b6000613c6d82613c86565b9050919050565b6000613c7f82613c11565b9050919050565b6000613c9182613c98565b9050919050565b6000613ca382613c24565b9050919050565b60005b83811015613cc8578082015181840152602081019050613cad565b83811115613cd7576000848401525b50505050565b6000601f19601f8301169050919050565b60058110613cf857fe5b50565b613d0481613bbd565b8114613d0f57600080fd5b50565b613d1b81613bcf565b8114613d2657600080fd5b50565b613d3281613bdb565b8114613d3d57600080fd5b50565b613d4981613be5565b8114613d5457600080fd5b50565b613d6081613c44565b8114613d6b57600080fd5b50565b613d7781613c4e565b8114613d8257600080fd5b5056fea264697066735822122012034c8bddeb2e55b9d339a46d329340f5e1b39a4a269feaf13c822c28fb7d2c64736f6c63430006040033",
			"opcodes": "PUSH1 0x80 PUSH1 0x40 MSTORE PUSH1 0x0 DUP1 PUSH1 0x0 PUSH2 0x100 EXP DUP2 SLOAD DUP2 PUSH1 0xFF MUL NOT AND SWAP1 DUP4 ISZERO ISZERO MUL OR SWAP1 SSTORE POP PUSH1 0x0 DUP1 PUSH1 0x15 PUSH2 0x100 EXP DUP2 SLOAD DUP2 PUSH1 0xFF MUL NOT AND SWAP1 DUP4 ISZERO ISZERO MUL OR SWAP1 SSTORE POP CALLVALUE DUP1 ISZERO PUSH2 0x44 JUMPI PUSH1 0x0 DUP1 REVERT JUMPDEST POP PUSH2 0x3DBB DUP1 PUSH2 0x54 PUSH1 0x0 CODECOPY PUSH1 0x0 RETURN INVALID PUSH1 0x80 PUSH1 0x40 MSTORE PUSH1 0x4 CALLDATASIZE LT PUSH2 0x20F JUMPI PUSH1 0x0 CALLDATALOAD PUSH1 0xE0 SHR DUP1 PUSH4 0x92B7064C GT PUSH2 0x118 JUMPI DUP1 PUSH4 0xC5EC8970 GT PUSH2 0xA0 JUMPI DUP1 PUSH4 0xE1C7392A GT PUSH2 0x6F JUMPI DUP1 PUSH4 0xE1C7392A EQ PUSH2 0x781 JUMPI DUP1 PUSH4 0xE77B33FD EQ PUSH2 0x798 JUMPI DUP1 PUSH4 0xF2FDE38B EQ PUSH2 0x7C1 JUMPI DUP1 PUSH4 0xF408DA91 EQ PUSH2 0x7EA JUMPI DUP1 PUSH4 0xFFAAC0EB EQ PUSH2 0x801 JUMPI PUSH2 0x20F JUMP JUMPDEST DUP1 PUSH4 0xC5EC8970 EQ PUSH2 0x6D7 JUMPI DUP1 PUSH4 0xCACC26ED EQ PUSH2 0x702 JUMPI DUP1 PUSH4 0xCB10F215 EQ PUSH2 0x72D JUMPI DUP1 PUSH4 0xD7A9CD79 EQ PUSH2 0x756 JUMPI PUSH2 0x20F JUMP JUMPDEST DUP1 PUSH4 0xB3FC7EAE GT PUSH2 0xE7 JUMPI DUP1 PUSH4 0xB3FC7EAE EQ PUSH2 0x5F0 JUMPI DUP1 PUSH4 0xB67D77C5 EQ PUSH2 0x619 JUMPI DUP1 PUSH4 0xB6D97623 EQ PUSH2 0x656 JUMPI DUP1 PUSH4 0xBEAB7131 EQ PUSH2 0x681 JUMPI DUP1 PUSH4 0xC5B37C22 EQ PUSH2 0x6AC JUMPI PUSH2 0x20F JUMP JUMPDEST DUP1 PUSH4 0x92B7064C EQ PUSH2 0x543 JUMPI DUP1 PUSH4 0x9D5773E0 EQ PUSH2 0x55F JUMPI DUP1 PUSH4 0xA48ACE38 EQ PUSH2 0x58A JUMPI DUP1 PUSH4 0xB14ECAFD EQ PUSH2 0x5C7 JUMPI PUSH2 0x20F JUMP JUMPDEST DUP1 PUSH4 0x780CF004 GT PUSH2 0x19B JUMPI DUP1 PUSH4 0x84DB809F GT PUSH2 0x16A JUMPI DUP1 PUSH4 0x84DB809F EQ PUSH2 0x44C JUMPI DUP1 PUSH4 0x86C99F0E EQ PUSH2 0x489 JUMPI DUP1 PUSH4 0x8C0C2631 EQ PUSH2 0x4C6 JUMPI DUP1 PUSH4 0x8DA5CB5B EQ PUSH2 0x4EF JUMPI DUP1 PUSH4 0x91C404AC EQ PUSH2 0x51A JUMPI PUSH2 0x20F JUMP JUMPDEST DUP1 PUSH4 0x780CF004 EQ PUSH2 0x3A1 JUMPI DUP1 PUSH4 0x7BDA741C EQ PUSH2 0x3CA JUMPI DUP1 PUSH4 0x80AE1C28 EQ PUSH2 0x40A JUMPI DUP1 PUSH4 0x82B4BEEC EQ PUSH2 0x421 JUMPI PUSH2 0x20F JUMP JUMPDEST DUP1 PUSH4 0x4E056005 GT PUSH2 0x1E2 JUMPI DUP1 PUSH4 0x4E056005 EQ PUSH2 0x2E4 JUMPI DUP1 PUSH4 0x5C975ABB EQ PUSH2 0x30D JUMPI DUP1 PUSH4 0x5D699C5D EQ PUSH2 0x338 JUMPI DUP1 PUSH4 0x68872644 EQ PUSH2 0x361 JUMPI DUP1 PUSH4 0x715018A6 EQ PUSH2 0x38A JUMPI PUSH2 0x20F JUMP JUMPDEST DUP1 PUSH4 0x461CE72 EQ PUSH2 0x214 JUMPI DUP1 PUSH4 0x174E300B EQ PUSH2 0x23F JUMPI DUP1 PUSH4 0x3C69171B EQ PUSH2 0x27C JUMPI DUP1 PUSH4 0x45FB7494 EQ PUSH2 0x2B9 JUMPI JUMPDEST PUSH1 0x0 DUP1 REVERT JUMPDEST CALLVALUE DUP1 ISZERO PUSH2 0x220 JUMPI PUSH1 0x0 DUP1 REVERT JUMPDEST POP PUSH2 0x229 PUSH2 0x818 JUMP JUMPDEST PUSH1 0x40 MLOAD PUSH2 0x236 SWAP2 SWAP1 PUSH2 0x3AB9 JUMP JUMPDEST PUSH1 0x40 MLOAD DUP1 SWAP2 SUB SWAP1 RETURN JUMPDEST CALLVALUE DUP1 ISZERO PUSH2 0x24B JUMPI PUSH1 0x0 DUP1 REVERT JUMPDEST POP PUSH2 0x266 PUSH1 0x4 DUP1 CALLDATASIZE SUB DUP2 ADD SWAP1 PUSH2 0x261 SWAP2 SWAP1 PUSH2 0x3252 JUMP JUMPDEST PUSH2 0x81D JUMP JUMPDEST PUSH1 0x40 MLOAD PUSH2 0x273 SWAP2 SWAP1 PUSH2 0x3AFD JUMP JUMPDEST PUSH1 0x40 MLOAD DUP1 SWAP2 SUB SWAP1 RETURN JUMPDEST CALLVALUE DUP1 ISZERO PUSH2 0x288 JUMPI PUSH1 0x0 DUP1 REVERT JUMPDEST POP PUSH2 0x2A3 PUSH1 0x4 DUP1 CALLDATASIZE SUB DUP2 ADD SWAP1 PUSH2 0x29E SWAP2 SWAP1 PUSH2 0x3355 JUMP JUMPDEST PUSH2 0x844 JUMP JUMPDEST PUSH1 0x40 MLOAD PUSH2 0x2B0 SWAP2 SWAP1 PUSH2 0x3A97 JUMP JUMPDEST PUSH1 0x40 MLOAD DUP1 SWAP2 SUB SWAP1 RETURN JUMPDEST CALLVALUE DUP1 ISZERO PUSH2 0x2C5 JUMPI PUSH1 0x0 DUP1 REVERT JUMPDEST POP PUSH2 0x2CE PUSH2 0xA32 JUMP JUMPDEST PUSH1 0x40 MLOAD PUSH2 0x2DB SWAP2 SWAP1 PUSH2 0x3931 JUMP JUMPDEST PUSH1 0x40 MLOAD DUP1 SWAP2 SUB SWAP1 RETURN JUMPDEST CALLVALUE DUP1 ISZERO PUSH2 0x2F0 JUMPI PUSH1 0x0 DUP1 REVERT JUMPDEST POP PUSH2 0x30B PUSH1 0x4 DUP1 CALLDATASIZE SUB DUP2 ADD SWAP1 PUSH2 0x306 SWAP2 SWAP1 PUSH2 0x341B JUMP JUMPDEST PUSH2 0xA3D JUMP JUMPDEST STOP JUMPDEST CALLVALUE DUP1 ISZERO PUSH2 0x319 JUMPI PUSH1 0x0 DUP1 REVERT JUMPDEST POP PUSH2 0x322 PUSH2 0xAF6 JUMP JUMPDEST PUSH1 0x40 MLOAD PUSH2 0x32F SWAP2 SWAP1 PUSH2 0x3810 JUMP JUMPDEST PUSH1 0x40 MLOAD DUP1 SWAP2 SUB SWAP1 RETURN JUMPDEST CALLVALUE DUP1 ISZERO PUSH2 0x344 JUMPI PUSH1 0x0 DUP1 REVERT JUMPDEST POP PUSH2 0x35F PUSH1 0x4 DUP1 CALLDATASIZE SUB DUP2 ADD SWAP1 PUSH2 0x35A SWAP2 SWAP1 PUSH2 0x3035 JUMP JUMPDEST PUSH2 0xB0C JUMP JUMPDEST STOP JUMPDEST CALLVALUE DUP1 ISZERO PUSH2 0x36D JUMPI PUSH1 0x0 DUP1 REVERT JUMPDEST POP PUSH2 0x388 PUSH1 0x4 DUP1 CALLDATASIZE SUB DUP2 ADD SWAP1 PUSH2 0x383 SWAP2 SWAP1 PUSH2 0x32DE JUMP JUMPDEST PUSH2 0xBC8 JUMP JUMPDEST STOP JUMPDEST CALLVALUE DUP1 ISZERO PUSH2 0x396 JUMPI PUSH1 0x0 DUP1 REVERT JUMPDEST POP PUSH2 0x39F PUSH2 0xD92 JUMP JUMPDEST STOP JUMPDEST CALLVALUE DUP1 ISZERO PUSH2 0x3AD JUMPI PUSH1 0x0 DUP1 REVERT JUMPDEST POP PUSH2 0x3C8 PUSH1 0x4 DUP1 CALLDATASIZE SUB DUP2 ADD SWAP1 PUSH2 0x3C3 SWAP2 SWAP1 PUSH2 0x30C3 JUMP JUMPDEST PUSH2 0xECA JUMP JUMPDEST STOP JUMPDEST CALLVALUE DUP1 ISZERO PUSH2 0x3D6 JUMPI PUSH1 0x0 DUP1 REVERT JUMPDEST POP PUSH2 0x3F1 PUSH1 0x4 DUP1 CALLDATASIZE SUB DUP2 ADD SWAP1 PUSH2 0x3EC SWAP2 SWAP1 PUSH2 0x31C7 JUMP JUMPDEST PUSH2 0xFBD JUMP JUMPDEST PUSH1 0x40 MLOAD PUSH2 0x401 SWAP5 SWAP4 SWAP3 SWAP2 SWAP1 PUSH2 0x388B JUMP JUMPDEST PUSH1 0x40 MLOAD DUP1 SWAP2 SUB SWAP1 RETURN JUMPDEST CALLVALUE DUP1 ISZERO PUSH2 0x416 JUMPI PUSH1 0x0 DUP1 REVERT JUMPDEST POP PUSH2 0x41F PUSH2 0x1007 JUMP JUMPDEST STOP JUMPDEST CALLVALUE DUP1 ISZERO PUSH2 0x42D JUMPI PUSH1 0x0 DUP1 REVERT JUMPDEST POP PUSH2 0x436 PUSH2 0x1070 JUMP JUMPDEST PUSH1 0x40 MLOAD PUSH2 0x443 SWAP2 SWAP1 PUSH2 0x3AB9 JUMP JUMPDEST PUSH1 0x40 MLOAD DUP1 SWAP2 SUB SWAP1 RETURN JUMPDEST CALLVALUE DUP1 ISZERO PUSH2 0x458 JUMPI PUSH1 0x0 DUP1 REVERT JUMPDEST POP PUSH2 0x473 PUSH1 0x4 DUP1 CALLDATASIZE SUB DUP2 ADD SWAP1 PUSH2 0x46E SWAP2 SWAP1 PUSH2 0x319E JUMP JUMPDEST PUSH2 0x1075 JUMP JUMPDEST PUSH1 0x40 MLOAD PUSH2 0x480 SWAP2 SWAP1 PUSH2 0x374A JUMP JUMPDEST PUSH1 0x40 MLOAD DUP1 SWAP2 SUB SWAP1 RETURN JUMPDEST CALLVALUE DUP1 ISZERO PUSH2 0x495 JUMPI PUSH1 0x0 DUP1 REVERT JUMPDEST POP PUSH2 0x4B0 PUSH1 0x4 DUP1 CALLDATASIZE SUB DUP2 ADD SWAP1 PUSH2 0x4AB SWAP2 SWAP1 PUSH2 0x3203 JUMP JUMPDEST PUSH2 0x10A8 JUMP JUMPDEST PUSH1 0x40 MLOAD PUSH2 0x4BD SWAP2 SWAP1 PUSH2 0x3810 JUMP JUMPDEST PUSH1 0x40 MLOAD DUP1 SWAP2 SUB SWAP1 RETURN JUMPDEST CALLVALUE DUP1 ISZERO PUSH2 0x4D2 JUMPI PUSH1 0x0 DUP1 REVERT JUMPDEST POP PUSH2 0x4ED PUSH1 0x4 DUP1 CALLDATASIZE SUB DUP2 ADD SWAP1 PUSH2 0x4E8 SWAP2 SWAP1 PUSH2 0x3087 JUMP JUMPDEST PUSH2 0x10E4 JUMP JUMPDEST STOP JUMPDEST CALLVALUE DUP1 ISZERO PUSH2 0x4FB JUMPI PUSH1 0x0 DUP1 REVERT JUMPDEST POP PUSH2 0x504 PUSH2 0x11D1 JUMP JUMPDEST PUSH1 0x40 MLOAD PUSH2 0x511 SWAP2 SWAP1 PUSH2 0x374A JUMP JUMPDEST PUSH1 0x40 MLOAD DUP1 SWAP2 SUB SWAP1 RETURN JUMPDEST CALLVALUE DUP1 ISZERO PUSH2 0x526 JUMPI PUSH1 0x0 DUP1 REVERT JUMPDEST POP PUSH2 0x541 PUSH1 0x4 DUP1 CALLDATASIZE SUB DUP2 ADD SWAP1 PUSH2 0x53C SWAP2 SWAP1 PUSH2 0x341B JUMP JUMPDEST PUSH2 0x1213 JUMP JUMPDEST STOP JUMPDEST PUSH2 0x55D PUSH1 0x4 DUP1 CALLDATASIZE SUB DUP2 ADD SWAP1 PUSH2 0x558 SWAP2 SWAP1 PUSH2 0x327B JUMP JUMPDEST PUSH2 0x12A4 JUMP JUMPDEST STOP JUMPDEST CALLVALUE DUP1 ISZERO PUSH2 0x56B JUMPI PUSH1 0x0 DUP1 REVERT JUMPDEST POP PUSH2 0x574 PUSH2 0x1566 JUMP JUMPDEST PUSH1 0x40 MLOAD PUSH2 0x581 SWAP2 SWAP1 PUSH2 0x3AB9 JUMP JUMPDEST PUSH1 0x40 MLOAD DUP1 SWAP2 SUB SWAP1 RETURN JUMPDEST CALLVALUE DUP1 ISZERO PUSH2 0x596 JUMPI PUSH1 0x0 DUP1 REVERT JUMPDEST POP PUSH2 0x5B1 PUSH1 0x4 DUP1 CALLDATASIZE SUB DUP2 ADD SWAP1 PUSH2 0x5AC SWAP2 SWAP1 PUSH2 0x34A9 JUMP JUMPDEST PUSH2 0x156C JUMP JUMPDEST PUSH1 0x40 MLOAD PUSH2 0x5BE SWAP2 SWAP1 PUSH2 0x3A53 JUMP JUMPDEST PUSH1 0x40 MLOAD DUP1 SWAP2 SUB SWAP1 RETURN JUMPDEST CALLVALUE DUP1 ISZERO PUSH2 0x5D3 JUMPI PUSH1 0x0 DUP1 REVERT JUMPDEST POP PUSH2 0x5EE PUSH1 0x4 DUP1 CALLDATASIZE SUB DUP2 ADD SWAP1 PUSH2 0x5E9 SWAP2 SWAP1 PUSH2 0x33A4 JUMP JUMPDEST PUSH2 0x1629 JUMP JUMPDEST STOP JUMPDEST CALLVALUE DUP1 ISZERO PUSH2 0x5FC JUMPI PUSH1 0x0 DUP1 REVERT JUMPDEST POP PUSH2 0x617 PUSH1 0x4 DUP1 CALLDATASIZE SUB DUP2 ADD SWAP1 PUSH2 0x612 SWAP2 SWAP1 PUSH2 0x33A4 JUMP JUMPDEST PUSH2 0x1B04 JUMP JUMPDEST STOP JUMPDEST CALLVALUE DUP1 ISZERO PUSH2 0x625 JUMPI PUSH1 0x0 DUP1 REVERT JUMPDEST POP PUSH2 0x640 PUSH1 0x4 DUP1 CALLDATASIZE SUB DUP2 ADD SWAP1 PUSH2 0x63B SWAP2 SWAP1 PUSH2 0x346D JUMP JUMPDEST PUSH2 0x2224 JUMP JUMPDEST PUSH1 0x40 MLOAD PUSH2 0x64D SWAP2 SWAP1 PUSH2 0x3AB9 JUMP JUMPDEST PUSH1 0x40 MLOAD DUP1 SWAP2 SUB SWAP1 RETURN JUMPDEST CALLVALUE DUP1 ISZERO PUSH2 0x662 JUMPI PUSH1 0x0 DUP1 REVERT JUMPDEST POP PUSH2 0x66B PUSH2 0x226E JUMP JUMPDEST PUSH1 0x40 MLOAD PUSH2 0x678 SWAP2 SWAP1 PUSH2 0x374A JUMP JUMPDEST PUSH1 0x40 MLOAD DUP1 SWAP2 SUB SWAP1 RETURN JUMPDEST CALLVALUE DUP1 ISZERO PUSH2 0x68D JUMPI PUSH1 0x0 DUP1 REVERT JUMPDEST POP PUSH2 0x696 PUSH2 0x2294 JUMP JUMPDEST PUSH1 0x40 MLOAD PUSH2 0x6A3 SWAP2 SWAP1 PUSH2 0x3931 JUMP JUMPDEST PUSH1 0x40 MLOAD DUP1 SWAP2 SUB SWAP1 RETURN JUMPDEST CALLVALUE DUP1 ISZERO PUSH2 0x6B8 JUMPI PUSH1 0x0 DUP1 REVERT JUMPDEST POP PUSH2 0x6C1 PUSH2 0x22A7 JUMP JUMPDEST PUSH1 0x40 MLOAD PUSH2 0x6CE SWAP2 SWAP1 PUSH2 0x3AB9 JUMP JUMPDEST PUSH1 0x40 MLOAD DUP1 SWAP2 SUB SWAP1 RETURN JUMPDEST CALLVALUE DUP1 ISZERO PUSH2 0x6E3 JUMPI PUSH1 0x0 DUP1 REVERT JUMPDEST POP PUSH2 0x6EC PUSH2 0x22AD JUMP JUMPDEST PUSH1 0x40 MLOAD PUSH2 0x6F9 SWAP2 SWAP1 PUSH2 0x3AB9 JUMP JUMPDEST PUSH1 0x40 MLOAD DUP1 SWAP2 SUB SWAP1 RETURN JUMPDEST CALLVALUE DUP1 ISZERO PUSH2 0x70E JUMPI PUSH1 0x0 DUP1 REVERT JUMPDEST POP PUSH2 0x717 PUSH2 0x22B3 JUMP JUMPDEST PUSH1 0x40 MLOAD PUSH2 0x724 SWAP2 SWAP1 PUSH2 0x3AB9 JUMP JUMPDEST PUSH1 0x40 MLOAD DUP1 SWAP2 SUB SWAP1 RETURN JUMPDEST CALLVALUE DUP1 ISZERO PUSH2 0x739 JUMPI PUSH1 0x0 DUP1 REVERT JUMPDEST POP PUSH2 0x754 PUSH1 0x4 DUP1 CALLDATASIZE SUB DUP2 ADD SWAP1 PUSH2 0x74F SWAP2 SWAP1 PUSH2 0x3126 JUMP JUMPDEST PUSH2 0x22B8 JUMP JUMPDEST STOP JUMPDEST CALLVALUE DUP1 ISZERO PUSH2 0x762 JUMPI PUSH1 0x0 DUP1 REVERT JUMPDEST POP PUSH2 0x76B PUSH2 0x23FA JUMP JUMPDEST PUSH1 0x40 MLOAD PUSH2 0x778 SWAP2 SWAP1 PUSH2 0x3AB9 JUMP JUMPDEST PUSH1 0x40 MLOAD DUP1 SWAP2 SUB SWAP1 RETURN JUMPDEST CALLVALUE DUP1 ISZERO PUSH2 0x78D JUMPI PUSH1 0x0 DUP1 REVERT JUMPDEST POP PUSH2 0x796 PUSH2 0x2400 JUMP JUMPDEST STOP JUMPDEST CALLVALUE DUP1 ISZERO PUSH2 0x7A4 JUMPI PUSH1 0x0 DUP1 REVERT JUMPDEST POP PUSH2 0x7BF PUSH1 0x4 DUP1 CALLDATASIZE SUB DUP2 ADD SWAP1 PUSH2 0x7BA SWAP2 SWAP1 PUSH2 0x341B JUMP JUMPDEST PUSH2 0x244B JUMP JUMPDEST STOP JUMPDEST CALLVALUE DUP1 ISZERO PUSH2 0x7CD JUMPI PUSH1 0x0 DUP1 REVERT JUMPDEST POP PUSH2 0x7E8 PUSH1 0x4 DUP1 CALLDATASIZE SUB DUP2 ADD SWAP1 PUSH2 0x7E3 SWAP2 SWAP1 PUSH2 0x3035 JUMP JUMPDEST PUSH2 0x2521 JUMP JUMPDEST STOP JUMPDEST CALLVALUE DUP1 ISZERO PUSH2 0x7F6 JUMPI PUSH1 0x0 DUP1 REVERT JUMPDEST POP PUSH2 0x7FF PUSH2 0x2693 JUMP JUMPDEST STOP JUMPDEST CALLVALUE DUP1 ISZERO PUSH2 0x80D JUMPI PUSH1 0x0 DUP1 REVERT JUMPDEST POP PUSH2 0x816 PUSH2 0x28DC JUMP JUMPDEST STOP JUMPDEST PUSH1 0xA DUP2 JUMP JUMPDEST PUSH1 0x6 PUSH1 0x20 MSTORE DUP1 PUSH1 0x0 MSTORE PUSH1 0x40 PUSH1 0x0 KECCAK256 PUSH1 0x0 SWAP2 POP SLOAD SWAP1 PUSH2 0x100 EXP SWAP1 DIV PUSH8 0xFFFFFFFFFFFFFFFF AND DUP2 JUMP JUMPDEST PUSH2 0x84C PUSH2 0x2DD4 JUMP JUMPDEST PUSH1 0x0 PUSH1 0x15 SWAP1 SLOAD SWAP1 PUSH2 0x100 EXP SWAP1 DIV PUSH1 0xFF AND PUSH2 0x865 JUMPI PUSH1 0x0 DUP1 REVERT JUMPDEST PUSH1 0x0 DUP4 DUP6 PUSH1 0x40 MLOAD PUSH1 0x20 ADD PUSH2 0x87A SWAP3 SWAP2 SWAP1 PUSH2 0x3B18 JUMP JUMPDEST PUSH1 0x40 MLOAD PUSH1 0x20 DUP2 DUP4 SUB SUB DUP2 MSTORE SWAP1 PUSH1 0x40 MSTORE DUP1 MLOAD SWAP1 PUSH1 0x20 ADD KECCAK256 SWAP1 POP PUSH1 0x9 PUSH1 0x0 DUP3 DUP2 MSTORE PUSH1 0x20 ADD SWAP1 DUP2 MSTORE PUSH1 0x20 ADD PUSH1 0x0 KECCAK256 PUSH1 0x0 DUP5 DUP2 MSTORE PUSH1 0x20 ADD SWAP1 DUP2 MSTORE PUSH1 0x20 ADD PUSH1 0x0 KECCAK256 PUSH1 0x40 MLOAD DUP1 PUSH1 0xC0 ADD PUSH1 0x40 MSTORE SWAP1 DUP2 PUSH1 0x0 DUP3 ADD SLOAD DUP2 MSTORE PUSH1 0x20 ADD PUSH1 0x1 DUP3 ADD SLOAD DUP2 MSTORE PUSH1 0x20 ADD PUSH1 0x2 DUP3 ADD DUP1 SLOAD DUP1 PUSH1 0x20 MUL PUSH1 0x20 ADD PUSH1 0x40 MLOAD SWAP1 DUP2 ADD PUSH1 0x40 MSTORE DUP1 SWAP3 SWAP2 SWAP1 DUP2 DUP2 MSTORE PUSH1 0x20 ADD DUP3 DUP1 SLOAD DUP1 ISZERO PUSH2 0x95A JUMPI PUSH1 0x20 MUL DUP3 ADD SWAP2 SWAP1 PUSH1 0x0 MSTORE PUSH1 0x20 PUSH1 0x0 KECCAK256 SWAP1 JUMPDEST DUP2 PUSH1 0x0 SWAP1 SLOAD SWAP1 PUSH2 0x100 EXP SWAP1 DIV PUSH20 0xFFFFFFFFFFFFFFFFFFFFFFFFFFFFFFFFFFFFFFFF AND PUSH20 0xFFFFFFFFFFFFFFFFFFFFFFFFFFFFFFFFFFFFFFFF AND DUP2 MSTORE PUSH1 0x20 ADD SWAP1 PUSH1 0x1 ADD SWAP1 DUP1 DUP4 GT PUSH2 0x910 JUMPI JUMPDEST POP POP POP POP POP DUP2 MSTORE PUSH1 0x20 ADD PUSH1 0x3 DUP3 ADD DUP1 SLOAD DUP1 PUSH1 0x20 MUL PUSH1 0x20 ADD PUSH1 0x40 MLOAD SWAP1 DUP2 ADD PUSH1 0x40 MSTORE DUP1 SWAP3 SWAP2 SWAP1 DUP2 DUP2 MSTORE PUSH1 0x20 ADD DUP3 DUP1 SLOAD DUP1 ISZERO PUSH2 0x9E8 JUMPI PUSH1 0x20 MUL DUP3 ADD SWAP2 SWAP1 PUSH1 0x0 MSTORE PUSH1 0x20 PUSH1 0x0 KECCAK256 SWAP1 JUMPDEST DUP2 PUSH1 0x0 SWAP1 SLOAD SWAP1 PUSH2 0x100 EXP SWAP1 DIV PUSH20 0xFFFFFFFFFFFFFFFFFFFFFFFFFFFFFFFFFFFFFFFF AND PUSH20 0xFFFFFFFFFFFFFFFFFFFFFFFFFFFFFFFFFFFFFFFF AND DUP2 MSTORE PUSH1 0x20 ADD SWAP1 PUSH1 0x1 ADD SWAP1 DUP1 DUP4 GT PUSH2 0x99E JUMPI JUMPDEST POP POP POP POP POP DUP2 MSTORE PUSH1 0x20 ADD PUSH1 0x4 DUP3 ADD PUSH1 0x0 SWAP1 SLOAD SWAP1 PUSH2 0x100 EXP SWAP1 DIV PUSH1 0xFF AND PUSH1 0x4 DUP2 GT ISZERO PUSH2 0xA0F JUMPI INVALID JUMPDEST PUSH1 0x4 DUP2 GT ISZERO PUSH2 0xA1A JUMPI INVALID JUMPDEST DUP2 MSTORE PUSH1 0x20 ADD PUSH1 0x5 DUP3 ADD SLOAD DUP2 MSTORE POP POP SWAP2 POP POP SWAP4 SWAP3 POP POP POP JUMP JUMPDEST PUSH4 0x574C4131 PUSH1 0xC0 SHL DUP2 JUMP JUMPDEST PUSH1 0x0 PUSH1 0x15 SWAP1 SLOAD SWAP1 PUSH2 0x100 EXP SWAP1 DIV PUSH1 0xFF AND PUSH2 0xA56 JUMPI PUSH1 0x0 DUP1 REVERT JUMPDEST PUSH2 0xA5E PUSH2 0x2945 JUMP JUMPDEST PUSH20 0xFFFFFFFFFFFFFFFFFFFFFFFFFFFFFFFFFFFFFFFF AND PUSH2 0xA7C PUSH2 0x11D1 JUMP JUMPDEST PUSH20 0xFFFFFFFFFFFFFFFFFFFFFFFFFFFFFFFFFFFFFFFF AND EQ PUSH2 0xA9C JUMPI PUSH1 0x0 DUP1 REVERT JUMPDEST PUSH1 0x0 PUSH1 0x15 SWAP1 SLOAD SWAP1 PUSH2 0x100 EXP SWAP1 DIV PUSH1 0xFF AND PUSH2 0xAB5 JUMPI PUSH1 0x0 DUP1 REVERT JUMPDEST DUP1 PUSH1 0x1 DUP2 SWAP1 SSTORE POP PUSH32 0xA20D6B84CD798A24038BE305EFF8A45CA82EF54A2AA2082005D8E14C0A4746C8 DUP2 PUSH1 0x40 MLOAD PUSH2 0xAEB SWAP2 SWAP1 PUSH2 0x3AB9 JUMP JUMPDEST PUSH1 0x40 MLOAD DUP1 SWAP2 SUB SWAP1 LOG1 POP JUMP JUMPDEST PUSH1 0x0 DUP1 PUSH1 0x0 SWAP1 SLOAD SWAP1 PUSH2 0x100 EXP SWAP1 DIV PUSH1 0xFF AND SWAP1 POP SWAP1 JUMP JUMPDEST PUSH1 0x0 PUSH1 0x15 SWAP1 SLOAD SWAP1 PUSH2 0x100 EXP SWAP1 DIV PUSH1 0xFF AND PUSH2 0xB25 JUMPI PUSH1 0x0 DUP1 REVERT JUMPDEST PUSH2 0xB2D PUSH2 0x2945 JUMP JUMPDEST PUSH20 0xFFFFFFFFFFFFFFFFFFFFFFFFFFFFFFFFFFFFFFFF AND PUSH2 0xB4B PUSH2 0x11D1 JUMP JUMPDEST PUSH20 0xFFFFFFFFFFFFFFFFFFFFFFFFFFFFFFFFFFFFFFFF AND EQ PUSH2 0xB6B JUMPI PUSH1 0x0 DUP1 REVERT JUMPDEST PUSH1 0x0 PUSH1 0x15 SWAP1 SLOAD SWAP1 PUSH2 0x100 EXP SWAP1 DIV PUSH1 0xFF AND PUSH2 0xB84 JUMPI PUSH1 0x0 DUP1 REVERT JUMPDEST DUP1 PUSH1 0x5 PUSH1 0x0 PUSH2 0x100 EXP DUP2 SLOAD DUP2 PUSH20 0xFFFFFFFFFFFFFFFFFFFFFFFFFFFFFFFFFFFFFFFF MUL NOT AND SWAP1 DUP4 PUSH20 0xFFFFFFFFFFFFFFFFFFFFFFFFFFFFFFFFFFFFFFFF AND MUL OR SWAP1 SSTORE POP POP JUMP JUMPDEST PUSH2 0xBD0 PUSH2 0x294D JUMP JUMPDEST PUSH1 0x0 PUSH1 0x15 SWAP1 SLOAD SWAP1 PUSH2 0x100 EXP SWAP1 DIV PUSH1 0xFF AND PUSH2 0xBE9 JUMPI PUSH1 0x0 DUP1 REVERT JUMPDEST PUSH1 0x0 DUP5 DUP7 PUSH1 0x40 MLOAD PUSH1 0x20 ADD PUSH2 0xBFE SWAP3 SWAP2 SWAP1 PUSH2 0x3B18 JUMP JUMPDEST PUSH1 0x40 MLOAD PUSH1 0x20 DUP2 DUP4 SUB SUB DUP2 MSTORE SWAP1 PUSH1 0x40 MSTORE DUP1 MLOAD SWAP1 PUSH1 0x20 ADD KECCAK256 SWAP1 POP PUSH1 0x60 DUP4 DUP6 PUSH1 0x40 MLOAD PUSH1 0x20 ADD PUSH2 0xC2B SWAP3 SWAP2 SWAP1 PUSH2 0x3AD4 JUMP JUMPDEST PUSH1 0x40 MLOAD PUSH1 0x20 DUP2 DUP4 SUB SUB DUP2 MSTORE SWAP1 PUSH1 0x40 MSTORE SWAP1 POP PUSH1 0x0 PUSH1 0x7 PUSH1 0x0 DUP6 DUP2 MSTORE PUSH1 0x20 ADD SWAP1 DUP2 MSTORE PUSH1 0x20 ADD PUSH1 0x0 KECCAK256 PUSH1 0x0 SWAP1 SLOAD SWAP1 PUSH2 0x100 EXP SWAP1 DIV PUSH20 0xFFFFFFFFFFFFFFFFFFFFFFFFFFFFFFFFFFFFFFFF AND SWAP1 POP PUSH1 0x0 DUP2 DUP4 PUSH1 0x40 MLOAD PUSH1 0x20 ADD PUSH2 0xC89 SWAP3 SWAP2 SWAP1 PUSH2 0x37E0 JUMP JUMPDEST PUSH1 0x40 MLOAD PUSH1 0x20 DUP2 DUP4 SUB SUB DUP2 MSTORE SWAP1 PUSH1 0x40 MSTORE DUP1 MLOAD SWAP1 PUSH1 0x20 ADD KECCAK256 SWAP1 POP PUSH1 0x0 PUSH1 0x9 PUSH1 0x0 DUP7 DUP2 MSTORE PUSH1 0x20 ADD SWAP1 DUP2 MSTORE PUSH1 0x20 ADD PUSH1 0x0 KECCAK256 PUSH1 0x0 DUP4 DUP2 MSTORE PUSH1 0x20 ADD SWAP1 DUP2 MSTORE PUSH1 0x20 ADD PUSH1 0x0 KECCAK256 SWAP1 POP PUSH1 0x4 DUP1 DUP2 GT ISZERO PUSH2 0xCD5 JUMPI INVALID JUMPDEST DUP2 PUSH1 0x4 ADD PUSH1 0x0 SWAP1 SLOAD SWAP1 PUSH2 0x100 EXP SWAP1 DIV PUSH1 0xFF AND PUSH1 0x4 DUP2 GT ISZERO PUSH2 0xCF2 JUMPI INVALID JUMPDEST EQ ISZERO PUSH2 0xCFD JUMPI PUSH1 0x0 DUP1 REVERT JUMPDEST PUSH1 0x4 SLOAD PUSH2 0xD0E NUMBER DUP4 PUSH1 0x5 ADD SLOAD PUSH2 0x2224 JUMP JUMPDEST GT PUSH2 0xD18 JUMPI PUSH1 0x0 DUP1 REVERT JUMPDEST PUSH1 0x4 DUP2 PUSH1 0x4 ADD PUSH1 0x0 PUSH2 0x100 EXP DUP2 SLOAD DUP2 PUSH1 0xFF MUL NOT AND SWAP1 DUP4 PUSH1 0x4 DUP2 GT ISZERO PUSH2 0xD39 JUMPI INVALID JUMPDEST MUL OR SWAP1 SSTORE POP PUSH32 0x8DC49847A011C3B316CD0F50CF982E0FD5B3DDB7FDF970FC81A25557F0923A73 DUP11 DUP11 PUSH1 0x4 DUP5 PUSH1 0x0 ADD SLOAD DUP6 PUSH1 0x1 ADD SLOAD PUSH1 0x40 MLOAD PUSH2 0xD7E SWAP6 SWAP5 SWAP4 SWAP3 SWAP2 SWAP1 PUSH2 0x3A00 JUMP JUMPDEST PUSH1 0x40 MLOAD DUP1 SWAP2 SUB SWAP1 LOG1 POP POP POP POP POP POP POP POP POP POP JUMP JUMPDEST PUSH1 0x0 PUSH1 0x15 SWAP1 SLOAD SWAP1 PUSH2 0x100 EXP SWAP1 DIV PUSH1 0xFF AND PUSH2 0xDAB JUMPI PUSH1 0x0 DUP1 REVERT JUMPDEST PUSH2 0xDB3 PUSH2 0x2945 JUMP JUMPDEST PUSH20 0xFFFFFFFFFFFFFFFFFFFFFFFFFFFFFFFFFFFFFFFF AND PUSH2 0xDD1 PUSH2 0x11D1 JUMP JUMPDEST PUSH20 0xFFFFFFFFFFFFFFFFFFFFFFFFFFFFFFFFFFFFFFFF AND EQ PUSH2 0xDF1 JUMPI PUSH1 0x0 DUP1 REVERT JUMPDEST PUSH1 0x0 PUSH1 0x15 SWAP1 SLOAD SWAP1 PUSH2 0x100 EXP SWAP1 DIV PUSH1 0xFF AND PUSH2 0xE0A JUMPI PUSH1 0x0 DUP1 REVERT JUMPDEST PUSH1 0x0 PUSH20 0xFFFFFFFFFFFFFFFFFFFFFFFFFFFFFFFFFFFFFFFF AND PUSH1 0x0 PUSH1 0x1 SWAP1 SLOAD SWAP1 PUSH2 0x100 EXP SWAP1 DIV PUSH20 0xFFFFFFFFFFFFFFFFFFFFFFFFFFFFFFFFFFFFFFFF AND PUSH20 0xFFFFFFFFFFFFFFFFFFFFFFFFFFFFFFFFFFFFFFFF AND PUSH32 0x8BE0079C531659141344CD1FD0A4F28419497F9722A3DAAFE3B4186F6B6457E0 PUSH1 0x40 MLOAD PUSH1 0x40 MLOAD DUP1 SWAP2 SUB SWAP1 LOG3 PUSH1 0x0 DUP1 PUSH1 0x1 PUSH2 0x100 EXP DUP2 SLOAD DUP2 PUSH20 0xFFFFFFFFFFFFFFFFFFFFFFFFFFFFFFFFFFFFFFFF MUL NOT AND SWAP1 DUP4 PUSH20 0xFFFFFFFFFFFFFFFFFFFFFFFFFFFFFFFFFFFFFFFF AND MUL OR SWAP1 SSTORE POP JUMP JUMPDEST PUSH1 0x0 PUSH1 0x15 SWAP1 SLOAD SWAP1 PUSH2 0x100 EXP SWAP1 DIV PUSH1 0xFF AND PUSH2 0xEE3 JUMPI PUSH1 0x0 DUP1 REVERT JUMPDEST PUSH2 0xEEB PUSH2 0x2945 JUMP JUMPDEST PUSH20 0xFFFFFFFFFFFFFFFFFFFFFFFFFFFFFFFFFFFFFFFF AND PUSH2 0xF09 PUSH2 0x11D1 JUMP JUMPDEST PUSH20 0xFFFFFFFFFFFFFFFFFFFFFFFFFFFFFFFFFFFFFFFF AND EQ PUSH2 0xF29 JUMPI PUSH1 0x0 DUP1 REVERT JUMPDEST PUSH1 0x0 PUSH1 0x15 SWAP1 SLOAD SWAP1 PUSH2 0x100 EXP SWAP1 DIV PUSH1 0xFF AND PUSH2 0xF42 JUMPI PUSH1 0x0 DUP1 REVERT JUMPDEST PUSH1 0x0 DUP5 SWAP1 POP DUP1 PUSH20 0xFFFFFFFFFFFFFFFFFFFFFFFFFFFFFFFFFFFFFFFF AND PUSH4 0xD9CAED12 DUP6 DUP6 DUP6 PUSH1 0x40 MLOAD DUP5 PUSH4 0xFFFFFFFF AND PUSH1 0xE0 SHL DUP2 MSTORE PUSH1 0x4 ADD PUSH2 0xF84 SWAP4 SWAP3 SWAP2 SWAP1 PUSH2 0x37A9 JUMP JUMPDEST PUSH1 0x0 PUSH1 0x40 MLOAD DUP1 DUP4 SUB DUP2 PUSH1 0x0 DUP8 DUP1 EXTCODESIZE ISZERO DUP1 ISZERO PUSH2 0xF9E JUMPI PUSH1 0x0 DUP1 REVERT JUMPDEST POP GAS CALL ISZERO DUP1 ISZERO PUSH2 0xFB2 JUMPI RETURNDATASIZE PUSH1 0x0 DUP1 RETURNDATACOPY RETURNDATASIZE PUSH1 0x0 REVERT JUMPDEST POP POP POP POP POP POP POP POP POP JUMP JUMPDEST PUSH1 0x9 PUSH1 0x20 MSTORE DUP2 PUSH1 0x0 MSTORE PUSH1 0x40 PUSH1 0x0 KECCAK256 PUSH1 0x20 MSTORE DUP1 PUSH1 0x0 MSTORE PUSH1 0x40 PUSH1 0x0 KECCAK256 PUSH1 0x0 SWAP2 POP SWAP2 POP POP DUP1 PUSH1 0x0 ADD SLOAD SWAP1 DUP1 PUSH1 0x1 ADD SLOAD SWAP1 DUP1 PUSH1 0x4 ADD PUSH1 0x0 SWAP1 SLOAD SWAP1 PUSH2 0x100 EXP SWAP1 DIV PUSH1 0xFF AND SWAP1 DUP1 PUSH1 0x5 ADD SLOAD SWAP1 POP DUP5 JUMP JUMPDEST PUSH1 0x0 PUSH1 0x15 SWAP1 SLOAD SWAP1 PUSH2 0x100 EXP SWAP1 DIV PUSH1 0xFF AND PUSH2 0x1020 JUMPI PUSH1 0x0 DUP1 REVERT JUMPDEST PUSH2 0x1028 PUSH2 0x2945 JUMP JUMPDEST PUSH20 0xFFFFFFFFFFFFFFFFFFFFFFFFFFFFFFFFFFFFFFFF AND PUSH2 0x1046 PUSH2 0x11D1 JUMP JUMPDEST PUSH20 0xFFFFFFFFFFFFFFFFFFFFFFFFFFFFFFFFFFFFFFFF AND EQ PUSH2 0x1066 JUMPI PUSH1 0x0 DUP1 REVERT JUMPDEST PUSH2 0x106E PUSH2 0x2AA2 JUMP JUMPDEST JUMP JUMPDEST PUSH1 0xA DUP2 JUMP JUMPDEST PUSH1 0x7 PUSH1 0x20 MSTORE DUP1 PUSH1 0x0 MSTORE PUSH1 0x40 PUSH1 0x0 KECCAK256 PUSH1 0x0 SWAP2 POP SLOAD SWAP1 PUSH2 0x100 EXP SWAP1 DIV PUSH20 0xFFFFFFFFFFFFFFFFFFFFFFFFFFFFFFFFFFFFFFFF AND DUP2 JUMP JUMPDEST PUSH1 0xA PUSH1 0x20 MSTORE DUP3 PUSH1 0x0 MSTORE PUSH1 0x40 PUSH1 0x0 KECCAK256 PUSH1 0x20 MSTORE DUP2 PUSH1 0x0 MSTORE PUSH1 0x40 PUSH1 0x0 KECCAK256 PUSH1 0x20 MSTORE DUP1 PUSH1 0x0 MSTORE PUSH1 0x40 PUSH1 0x0 KECCAK256 PUSH1 0x0 SWAP3 POP SWAP3 POP POP SWAP1 SLOAD SWAP1 PUSH2 0x100 EXP SWAP1 DIV PUSH1 0xFF AND DUP2 JUMP JUMPDEST PUSH1 0x0 PUSH1 0x15 SWAP1 SLOAD SWAP1 PUSH2 0x100 EXP SWAP1 DIV PUSH1 0xFF AND PUSH2 0x10FD JUMPI PUSH1 0x0 DUP1 REVERT JUMPDEST PUSH2 0x1105 PUSH2 0x2945 JUMP JUMPDEST PUSH20 0xFFFFFFFFFFFFFFFFFFFFFFFFFFFFFFFFFFFFFFFF AND PUSH2 0x1123 PUSH2 0x11D1 JUMP JUMPDEST PUSH20 0xFFFFFFFFFFFFFFFFFFFFFFFFFFFFFFFFFFFFFFFF AND EQ PUSH2 0x1143 JUMPI PUSH1 0x0 DUP1 REVERT JUMPDEST PUSH1 0x0 PUSH1 0x15 SWAP1 SLOAD SWAP1 PUSH2 0x100 EXP SWAP1 DIV PUSH1 0xFF AND PUSH2 0x115C JUMPI PUSH1 0x0 DUP1 REVERT JUMPDEST PUSH1 0x0 DUP3 SWAP1 POP DUP1 PUSH20 0xFFFFFFFFFFFFFFFFFFFFFFFFFFFFFFFFFFFFFFFF AND PUSH4 0x7B7ED99 DUP4 PUSH1 0x40 MLOAD DUP3 PUSH4 0xFFFFFFFF AND PUSH1 0xE0 SHL DUP2 MSTORE PUSH1 0x4 ADD PUSH2 0x119A SWAP2 SWAP1 PUSH2 0x374A JUMP JUMPDEST PUSH1 0x0 PUSH1 0x40 MLOAD DUP1 DUP4 SUB DUP2 PUSH1 0x0 DUP8 DUP1 EXTCODESIZE ISZERO DUP1 ISZERO PUSH2 0x11B4 JUMPI PUSH1 0x0 DUP1 REVERT JUMPDEST POP GAS CALL ISZERO DUP1 ISZERO PUSH2 0x11C8 JUMPI RETURNDATASIZE PUSH1 0x0 DUP1 RETURNDATACOPY RETURNDATASIZE PUSH1 0x0 REVERT JUMPDEST POP POP POP POP POP POP POP JUMP JUMPDEST PUSH1 0x0 DUP1 PUSH1 0x15 SWAP1 SLOAD SWAP1 PUSH2 0x100 EXP SWAP1 DIV PUSH1 0xFF AND PUSH2 0x11EB JUMPI PUSH1 0x0 DUP1 REVERT JUMPDEST PUSH1 0x0 PUSH1 0x1 SWAP1 SLOAD SWAP1 PUSH2 0x100 EXP SWAP1 DIV PUSH20 0xFFFFFFFFFFFFFFFFFFFFFFFFFFFFFFFFFFFFFFFF AND SWAP1 POP SWAP1 JUMP JUMPDEST PUSH1 0x0 PUSH1 0x15 SWAP1 SLOAD SWAP1 PUSH2 0x100 EXP SWAP1 DIV PUSH1 0xFF AND PUSH2 0x122C JUMPI PUSH1 0x0 DUP1 REVERT JUMPDEST PUSH2 0x1234 PUSH2 0x2945 JUMP JUMPDEST PUSH20 0xFFFFFFFFFFFFFFFFFFFFFFFFFFFFFFFFFFFFFFFF AND PUSH2 0x1252 PUSH2 0x11D1 JUMP JUMPDEST PUSH20 0xFFFFFFFFFFFFFFFFFFFFFFFFFFFFFFFFFFFFFFFF AND EQ PUSH2 0x1272 JUMPI PUSH1 0x0 DUP1 REVERT JUMPDEST PUSH1 0x0 PUSH1 0x15 SWAP1 SLOAD SWAP1 PUSH2 0x100 EXP SWAP1 DIV PUSH1 0xFF AND PUSH2 0x128B JUMPI PUSH1 0x0 DUP1 REVERT JUMPDEST DUP1 PUSH1 0x3 SLOAD EQ ISZERO PUSH2 0x129A JUMPI PUSH1 0x0 DUP1 REVERT JUMPDEST DUP1 PUSH1 0x3 DUP2 SWAP1 SSTORE POP POP JUMP JUMPDEST PUSH2 0x12AC PUSH2 0x2AFD JUMP JUMPDEST PUSH1 0x0 PUSH1 0x15 SWAP1 SLOAD SWAP1 PUSH2 0x100 EXP SWAP1 DIV PUSH1 0xFF AND PUSH2 0x12C5 JUMPI PUSH1 0x0 DUP1 REVERT JUMPDEST PUSH1 0x3 SLOAD CALLVALUE EQ PUSH2 0x12D3 JUMPI PUSH1 0x0 DUP1 REVERT JUMPDEST PUSH1 0x0 PUSH1 0x7 PUSH1 0x0 DUP6 DUP2 MSTORE PUSH1 0x20 ADD SWAP1 DUP2 MSTORE PUSH1 0x20 ADD PUSH1 0x0 KECCAK256 PUSH1 0x0 SWAP1 SLOAD SWAP1 PUSH2 0x100 EXP SWAP1 DIV PUSH20 0xFFFFFFFFFFFFFFFFFFFFFFFFFFFFFFFFFFFFFFFF AND SWAP1 POP PUSH1 0x0 PUSH20 0xFFFFFFFFFFFFFFFFFFFFFFFFFFFFFFFFFFFFFFFF AND DUP2 PUSH20 0xFFFFFFFFFFFFFFFFFFFFFFFFFFFFFFFFFFFFFFFF AND EQ ISZERO PUSH2 0x1345 JUMPI PUSH1 0x0 DUP1 REVERT JUMPDEST PUSH1 0x0 PUSH1 0x6 PUSH1 0x0 DUP8 PUSH24 0xFFFFFFFFFFFFFFFFFFFFFFFFFFFFFFFFFFFFFFFFFFFFFFFF NOT AND PUSH24 0xFFFFFFFFFFFFFFFFFFFFFFFFFFFFFFFFFFFFFFFFFFFFFFFF NOT AND DUP2 MSTORE PUSH1 0x20 ADD SWAP1 DUP2 MSTORE PUSH1 0x20 ADD PUSH1 0x0 KECCAK256 PUSH1 0x0 DUP2 DUP2 SWAP1 SLOAD SWAP1 PUSH2 0x100 EXP SWAP1 DIV PUSH8 0xFFFFFFFFFFFFFFFF AND PUSH1 0x1 ADD SWAP2 SWAP1 PUSH2 0x100 EXP DUP2 SLOAD DUP2 PUSH8 0xFFFFFFFFFFFFFFFF MUL NOT AND SWAP1 DUP4 PUSH8 0xFFFFFFFFFFFFFFFF AND MUL OR SWAP1 SSTORE SWAP1 POP PUSH1 0x60 DUP5 DUP5 PUSH1 0x40 MLOAD PUSH1 0x20 ADD PUSH2 0x13E6 SWAP3 SWAP2 SWAP1 PUSH2 0x3AD4 JUMP JUMPDEST PUSH1 0x40 MLOAD PUSH1 0x20 DUP2 DUP4 SUB SUB DUP2 MSTORE SWAP1 PUSH1 0x40 MSTORE SWAP1 POP DUP1 PUSH1 0x8 PUSH1 0x0 DUP5 PUSH8 0xFFFFFFFFFFFFFFFF AND PUSH8 0xFFFFFFFFFFFFFFFF AND DUP2 MSTORE PUSH1 0x20 ADD SWAP1 DUP2 MSTORE PUSH1 0x20 ADD PUSH1 0x0 KECCAK256 PUSH1 0x0 DUP10 PUSH24 0xFFFFFFFFFFFFFFFFFFFFFFFFFFFFFFFFFFFFFFFFFFFFFFFF NOT AND PUSH24 0xFFFFFFFFFFFFFFFFFFFFFFFFFFFFFFFFFFFFFFFFFFFFFFFF NOT AND DUP2 MSTORE PUSH1 0x20 ADD SWAP1 DUP2 MSTORE PUSH1 0x20 ADD PUSH1 0x0 KECCAK256 SWAP1 DUP1 MLOAD SWAP1 PUSH1 0x20 ADD SWAP1 PUSH2 0x1479 SWAP3 SWAP2 SWAP1 PUSH2 0x2E1B JUMP JUMPDEST POP PUSH1 0x0 DUP4 SWAP1 POP PUSH1 0x0 DUP2 PUSH20 0xFFFFFFFFFFFFFFFFFFFFFFFFFFFFFFFFFFFFFFFF AND PUSH4 0xD993E10F DUP10 DUP12 DUP8 CALLER DUP12 DUP14 PUSH1 0x40 MLOAD DUP8 PUSH4 0xFFFFFFFF AND PUSH1 0xE0 SHL DUP2 MSTORE PUSH1 0x4 ADD PUSH2 0x14C4 SWAP7 SWAP6 SWAP5 SWAP4 SWAP3 SWAP2 SWAP1 PUSH2 0x38D0 JUMP JUMPDEST PUSH1 0x20 PUSH1 0x40 MLOAD DUP1 DUP4 SUB DUP2 PUSH1 0x0 DUP8 DUP1 EXTCODESIZE ISZERO DUP1 ISZERO PUSH2 0x14DE JUMPI PUSH1 0x0 DUP1 REVERT JUMPDEST POP GAS CALL ISZERO DUP1 ISZERO PUSH2 0x14F2 JUMPI RETURNDATASIZE PUSH1 0x0 DUP1 RETURNDATACOPY RETURNDATASIZE PUSH1 0x0 REVERT JUMPDEST POP POP POP POP PUSH1 0x40 MLOAD RETURNDATASIZE PUSH1 0x1F NOT PUSH1 0x1F DUP3 ADD AND DUP3 ADD DUP1 PUSH1 0x40 MSTORE POP DUP2 ADD SWAP1 PUSH2 0x1516 SWAP2 SWAP1 PUSH2 0x305E JUMP JUMPDEST SWAP1 POP PUSH32 0x6A8F7FFCA1E3AB54554C709A9EB23E11FC5063F0B24E40087C40AB3E7027F189 DUP10 DUP10 DUP7 CALLER DUP11 DUP7 DUP14 PUSH1 0x40 MLOAD PUSH2 0x1553 SWAP8 SWAP7 SWAP6 SWAP5 SWAP4 SWAP3 SWAP2 SWAP1 PUSH2 0x394C JUMP JUMPDEST PUSH1 0x40 MLOAD DUP1 SWAP2 SUB SWAP1 LOG1 POP POP POP POP POP POP POP POP POP JUMP JUMPDEST PUSH1 0x2 SLOAD DUP2 JUMP JUMPDEST PUSH1 0x8 PUSH1 0x20 MSTORE DUP2 PUSH1 0x0 MSTORE PUSH1 0x40 PUSH1 0x0 KECCAK256 PUSH1 0x20 MSTORE DUP1 PUSH1 0x0 MSTORE PUSH1 0x40 PUSH1 0x0 KECCAK256 PUSH1 0x0 SWAP2 POP SWAP2 POP POP DUP1 SLOAD PUSH1 0x1 DUP2 PUSH1 0x1 AND ISZERO PUSH2 0x100 MUL SUB AND PUSH1 0x2 SWAP1 DIV DUP1 PUSH1 0x1F ADD PUSH1 0x20 DUP1 SWAP2 DIV MUL PUSH1 0x20 ADD PUSH1 0x40 MLOAD SWAP1 DUP2 ADD PUSH1 0x40 MSTORE DUP1 SWAP3 SWAP2 SWAP1 DUP2 DUP2 MSTORE PUSH1 0x20 ADD DUP3 DUP1 SLOAD PUSH1 0x1 DUP2 PUSH1 0x1 AND ISZERO PUSH2 0x100 MUL SUB AND PUSH1 0x2 SWAP1 DIV DUP1 ISZERO PUSH2 0x1621 JUMPI DUP1 PUSH1 0x1F LT PUSH2 0x15F6 JUMPI PUSH2 0x100 DUP1 DUP4 SLOAD DIV MUL DUP4 MSTORE SWAP2 PUSH1 0x20 ADD SWAP2 PUSH2 0x1621 JUMP JUMPDEST DUP3 ADD SWAP2 SWAP1 PUSH1 0x0 MSTORE PUSH1 0x20 PUSH1 0x0 KECCAK256 SWAP1 JUMPDEST DUP2 SLOAD DUP2 MSTORE SWAP1 PUSH1 0x1 ADD SWAP1 PUSH1 0x20 ADD DUP1 DUP4 GT PUSH2 0x1604 JUMPI DUP3 SWAP1 SUB PUSH1 0x1F AND DUP3 ADD SWAP2 JUMPDEST POP POP POP POP POP DUP2 JUMP JUMPDEST PUSH2 0x1631 PUSH2 0x2B18 JUMP JUMPDEST PUSH2 0x1639 PUSH2 0x2AFD JUMP JUMPDEST PUSH1 0x0 PUSH1 0x15 SWAP1 SLOAD SWAP1 PUSH2 0x100 EXP SWAP1 DIV PUSH1 0xFF AND PUSH2 0x1652 JUMPI PUSH1 0x0 DUP1 REVERT JUMPDEST PUSH1 0x0 PUSH1 0x7 PUSH1 0x0 DUP6 DUP2 MSTORE PUSH1 0x20 ADD SWAP1 DUP2 MSTORE PUSH1 0x20 ADD PUSH1 0x0 KECCAK256 PUSH1 0x0 SWAP1 SLOAD SWAP1 PUSH2 0x100 EXP SWAP1 DIV PUSH20 0xFFFFFFFFFFFFFFFFFFFFFFFFFFFFFFFFFFFFFFFF AND SWAP1 POP PUSH1 0x60 DUP3 DUP5 PUSH1 0x40 MLOAD PUSH1 0x20 ADD PUSH2 0x169F SWAP3 SWAP2 SWAP1 PUSH2 0x3AD4 JUMP JUMPDEST PUSH1 0x40 MLOAD PUSH1 0x20 DUP2 DUP4 SUB SUB DUP2 MSTORE SWAP1 PUSH1 0x40 MSTORE SWAP1 POP PUSH1 0x0 DUP7 DUP9 PUSH1 0x40 MLOAD PUSH1 0x20 ADD PUSH2 0x16C5 SWAP3 SWAP2 SWAP1 PUSH2 0x3B18 JUMP JUMPDEST PUSH1 0x40 MLOAD PUSH1 0x20 DUP2 DUP4 SUB SUB DUP2 MSTORE SWAP1 PUSH1 0x40 MSTORE DUP1 MLOAD SWAP1 PUSH1 0x20 ADD KECCAK256 SWAP1 POP PUSH1 0x0 DUP4 DUP4 PUSH1 0x40 MLOAD PUSH1 0x20 ADD PUSH2 0x16F2 SWAP3 SWAP2 SWAP1 PUSH2 0x37E0 JUMP JUMPDEST PUSH1 0x40 MLOAD PUSH1 0x20 DUP2 DUP4 SUB SUB DUP2 MSTORE SWAP1 PUSH1 0x40 MSTORE DUP1 MLOAD SWAP1 PUSH1 0x20 ADD KECCAK256 SWAP1 POP PUSH1 0x0 PUSH1 0x9 PUSH1 0x0 DUP5 DUP2 MSTORE PUSH1 0x20 ADD SWAP1 DUP2 MSTORE PUSH1 0x20 ADD PUSH1 0x0 KECCAK256 PUSH1 0x0 DUP4 DUP2 MSTORE PUSH1 0x20 ADD SWAP1 DUP2 MSTORE PUSH1 0x20 ADD PUSH1 0x0 KECCAK256 SWAP1 POP PUSH1 0x0 PUSH1 0x4 DUP2 GT ISZERO PUSH2 0x173F JUMPI INVALID JUMPDEST DUP2 PUSH1 0x4 ADD PUSH1 0x0 SWAP1 SLOAD SWAP1 PUSH2 0x100 EXP SWAP1 DIV PUSH1 0xFF AND PUSH1 0x4 DUP2 GT ISZERO PUSH2 0x175C JUMPI INVALID JUMPDEST EQ ISZERO PUSH2 0x1767 JUMPI PUSH1 0x0 DUP1 REVERT JUMPDEST DUP1 PUSH1 0x1 ADD SLOAD DUP3 EQ PUSH2 0x1777 JUMPI PUSH1 0x0 DUP1 REVERT JUMPDEST PUSH1 0x0 PUSH20 0xFFFFFFFFFFFFFFFFFFFFFFFFFFFFFFFFFFFFFFFF AND PUSH1 0x5 PUSH1 0x0 SWAP1 SLOAD SWAP1 PUSH2 0x100 EXP SWAP1 DIV PUSH20 0xFFFFFFFFFFFFFFFFFFFFFFFFFFFFFFFFFFFFFFFF AND PUSH20 0xFFFFFFFFFFFFFFFFFFFFFFFFFFFFFFFFFFFFFFFF AND EQ ISZERO PUSH2 0x17D3 JUMPI PUSH1 0x0 DUP1 REVERT JUMPDEST PUSH1 0x0 PUSH1 0x5 PUSH1 0x0 SWAP1 SLOAD SWAP1 PUSH2 0x100 EXP SWAP1 DIV PUSH20 0xFFFFFFFFFFFFFFFFFFFFFFFFFFFFFFFFFFFFFFFF AND SWAP1 POP PUSH1 0x0 PUSH1 0x16 SWAP1 SLOAD SWAP1 PUSH2 0x100 EXP SWAP1 DIV PUSH1 0xC0 SHL PUSH24 0xFFFFFFFFFFFFFFFFFFFFFFFFFFFFFFFFFFFFFFFFFFFFFFFF NOT AND DUP12 PUSH24 0xFFFFFFFFFFFFFFFFFFFFFFFFFFFFFFFFFFFFFFFFFFFFFFFF NOT AND EQ ISZERO PUSH2 0x18B3 JUMPI DUP1 PUSH20 0xFFFFFFFFFFFFFFFFFFFFFFFFFFFFFFFFFFFFFFFF AND PUSH4 0x35409F7F CALLER PUSH1 0x40 MLOAD DUP3 PUSH4 0xFFFFFFFF AND PUSH1 0xE0 SHL DUP2 MSTORE PUSH1 0x4 ADD PUSH2 0x1880 SWAP2 SWAP1 PUSH2 0x3765 JUMP JUMPDEST PUSH1 0x0 PUSH1 0x40 MLOAD DUP1 DUP4 SUB DUP2 PUSH1 0x0 DUP8 DUP1 EXTCODESIZE ISZERO DUP1 ISZERO PUSH2 0x189A JUMPI PUSH1 0x0 DUP1 REVERT JUMPDEST POP GAS CALL ISZERO DUP1 ISZERO PUSH2 0x18AE JUMPI RETURNDATASIZE PUSH1 0x0 DUP1 RETURNDATACOPY RETURNDATASIZE PUSH1 0x0 REVERT JUMPDEST POP POP POP POP JUMPDEST PUSH1 0x3 PUSH1 0x4 DUP2 GT ISZERO PUSH2 0x18C0 JUMPI INVALID JUMPDEST DUP3 PUSH1 0x4 ADD PUSH1 0x0 SWAP1 SLOAD SWAP1 PUSH2 0x100 EXP SWAP1 DIV PUSH1 0xFF AND PUSH1 0x4 DUP2 GT ISZERO PUSH2 0x18DD JUMPI INVALID JUMPDEST EQ ISZERO PUSH2 0x195B JUMPI DUP1 PUSH20 0xFFFFFFFFFFFFFFFFFFFFFFFFFFFFFFFFFFFFFFFF AND PUSH4 0xF03EE59 CALLER DUP10 PUSH1 0x40 MLOAD DUP4 PUSH4 0xFFFFFFFF AND PUSH1 0xE0 SHL DUP2 MSTORE PUSH1 0x4 ADD PUSH2 0x191E SWAP3 SWAP2 SWAP1 PUSH2 0x3780 JUMP JUMPDEST PUSH1 0x0 PUSH1 0x40 MLOAD DUP1 DUP4 SUB DUP2 PUSH1 0x0 DUP8 DUP1 EXTCODESIZE ISZERO DUP1 ISZERO PUSH2 0x1938 JUMPI PUSH1 0x0 DUP1 REVERT JUMPDEST POP GAS CALL ISZERO DUP1 ISZERO PUSH2 0x194C JUMPI RETURNDATASIZE PUSH1 0x0 DUP1 RETURNDATACOPY RETURNDATASIZE PUSH1 0x0 REVERT JUMPDEST POP POP POP POP POP POP POP POP POP POP PUSH2 0x1AFD JUMP JUMPDEST PUSH1 0x3 DUP3 PUSH1 0x4 ADD PUSH1 0x0 PUSH2 0x100 EXP DUP2 SLOAD DUP2 PUSH1 0xFF MUL NOT AND SWAP1 DUP4 PUSH1 0x4 DUP2 GT ISZERO PUSH2 0x197C JUMPI INVALID JUMPDEST MUL OR SWAP1 SSTORE POP PUSH1 0x0 PUSH1 0x7 PUSH1 0x0 DUP5 PUSH1 0x0 ADD SLOAD DUP2 MSTORE PUSH1 0x20 ADD SWAP1 DUP2 MSTORE PUSH1 0x20 ADD PUSH1 0x0 KECCAK256 PUSH1 0x0 SWAP1 SLOAD SWAP1 PUSH2 0x100 EXP SWAP1 DIV PUSH20 0xFFFFFFFFFFFFFFFFFFFFFFFFFFFFFFFFFFFFFFFF AND SWAP1 POP DUP1 PUSH20 0xFFFFFFFFFFFFFFFFFFFFFFFFFFFFFFFFFFFFFFFF AND PUSH4 0x396EC10 DUP5 PUSH1 0x0 ADD SLOAD DUP12 DUP12 PUSH1 0x40 MLOAD DUP5 PUSH4 0xFFFFFFFF AND PUSH1 0xE0 SHL DUP2 MSTORE PUSH1 0x4 ADD PUSH2 0x19FE SWAP4 SWAP3 SWAP2 SWAP1 PUSH2 0x3854 JUMP JUMPDEST PUSH1 0x0 PUSH1 0x40 MLOAD DUP1 DUP4 SUB DUP2 PUSH1 0x0 DUP8 DUP1 EXTCODESIZE ISZERO DUP1 ISZERO PUSH2 0x1A18 JUMPI PUSH1 0x0 DUP1 REVERT JUMPDEST POP GAS CALL ISZERO DUP1 ISZERO PUSH2 0x1A2C JUMPI RETURNDATASIZE PUSH1 0x0 DUP1 RETURNDATACOPY RETURNDATASIZE PUSH1 0x0 REVERT JUMPDEST POP POP POP POP DUP2 PUSH20 0xFFFFFFFFFFFFFFFFFFFFFFFFFFFFFFFFFFFFFFFF AND PUSH4 0xADAA71CC CALLER DUP11 PUSH1 0x40 MLOAD DUP4 PUSH4 0xFFFFFFFF AND PUSH1 0xE0 SHL DUP2 MSTORE PUSH1 0x4 ADD PUSH2 0x1A6B SWAP3 SWAP2 SWAP1 PUSH2 0x3780 JUMP JUMPDEST PUSH1 0x0 PUSH1 0x40 MLOAD DUP1 DUP4 SUB DUP2 PUSH1 0x0 DUP8 DUP1 EXTCODESIZE ISZERO DUP1 ISZERO PUSH2 0x1A85 JUMPI PUSH1 0x0 DUP1 REVERT JUMPDEST POP GAS CALL ISZERO DUP1 ISZERO PUSH2 0x1A99 JUMPI RETURNDATASIZE PUSH1 0x0 DUP1 RETURNDATACOPY RETURNDATASIZE PUSH1 0x0 REVERT JUMPDEST POP POP POP POP PUSH32 0x8DC49847A011C3B316CD0F50CF982E0FD5B3DDB7FDF970FC81A25557F0923A73 DUP13 DUP13 DUP6 PUSH1 0x4 ADD PUSH1 0x0 SWAP1 SLOAD SWAP1 PUSH2 0x100 EXP SWAP1 DIV PUSH1 0xFF AND DUP7 PUSH1 0x0 ADD SLOAD DUP8 PUSH1 0x1 ADD SLOAD PUSH1 0x40 MLOAD PUSH2 0x1AED SWAP6 SWAP5 SWAP4 SWAP3 SWAP2 SWAP1 PUSH2 0x3A00 JUMP JUMPDEST PUSH1 0x40 MLOAD DUP1 SWAP2 SUB SWAP1 LOG1 POP POP POP POP POP POP POP JUMPDEST POP POP POP POP POP JUMP JUMPDEST PUSH2 0x1B0C PUSH2 0x2B18 JUMP JUMPDEST PUSH2 0x1B14 PUSH2 0x2AFD JUMP JUMPDEST PUSH1 0x0 PUSH1 0x15 SWAP1 SLOAD SWAP1 PUSH2 0x100 EXP SWAP1 DIV PUSH1 0xFF AND PUSH2 0x1B2D JUMPI PUSH1 0x0 DUP1 REVERT JUMPDEST PUSH1 0x0 PUSH1 0x7 PUSH1 0x0 DUP6 DUP2 MSTORE PUSH1 0x20 ADD SWAP1 DUP2 MSTORE PUSH1 0x20 ADD PUSH1 0x0 KECCAK256 PUSH1 0x0 SWAP1 SLOAD SWAP1 PUSH2 0x100 EXP SWAP1 DIV PUSH20 0xFFFFFFFFFFFFFFFFFFFFFFFFFFFFFFFFFFFFFFFF AND SWAP1 POP PUSH1 0x60 DUP3 DUP5 PUSH1 0x40 MLOAD PUSH1 0x20 ADD PUSH2 0x1B7A SWAP3 SWAP2 SWAP1 PUSH2 0x3AD4 JUMP JUMPDEST PUSH1 0x40 MLOAD PUSH1 0x20 DUP2 DUP4 SUB SUB DUP2 MSTORE SWAP1 PUSH1 0x40 MSTORE SWAP1 POP PUSH1 0x0 DUP7 DUP9 PUSH1 0x40 MLOAD PUSH1 0x20 ADD PUSH2 0x1BA0 SWAP3 SWAP2 SWAP1 PUSH2 0x3B18 JUMP JUMPDEST PUSH1 0x40 MLOAD PUSH1 0x20 DUP2 DUP4 SUB SUB DUP2 MSTORE SWAP1 PUSH1 0x40 MSTORE DUP1 MLOAD SWAP1 PUSH1 0x20 ADD KECCAK256 SWAP1 POP PUSH1 0x0 DUP4 DUP4 PUSH1 0x40 MLOAD PUSH1 0x20 ADD PUSH2 0x1BCD SWAP3 SWAP2 SWAP1 PUSH2 0x37E0 JUMP JUMPDEST PUSH1 0x40 MLOAD PUSH1 0x20 DUP2 DUP4 SUB SUB DUP2 MSTORE SWAP1 PUSH1 0x40 MSTORE DUP1 MLOAD SWAP1 PUSH1 0x20 ADD KECCAK256 SWAP1 POP PUSH1 0x0 PUSH1 0x9 PUSH1 0x0 DUP5 DUP2 MSTORE PUSH1 0x20 ADD SWAP1 DUP2 MSTORE PUSH1 0x20 ADD PUSH1 0x0 KECCAK256 PUSH1 0x0 DUP4 DUP2 MSTORE PUSH1 0x20 ADD SWAP1 DUP2 MSTORE PUSH1 0x20 ADD PUSH1 0x0 KECCAK256 SWAP1 POP PUSH1 0x0 PUSH20 0xFFFFFFFFFFFFFFFFFFFFFFFFFFFFFFFFFFFFFFFF AND PUSH1 0x7 PUSH1 0x0 DUP11 DUP2 MSTORE PUSH1 0x20 ADD SWAP1 DUP2 MSTORE PUSH1 0x20 ADD PUSH1 0x0 KECCAK256 PUSH1 0x0 SWAP1 SLOAD SWAP1 PUSH2 0x100 EXP SWAP1 DIV PUSH20 0xFFFFFFFFFFFFFFFFFFFFFFFFFFFFFFFFFFFFFFFF AND PUSH20 0xFFFFFFFFFFFFFFFFFFFFFFFFFFFFFFFFFFFFFFFF AND EQ ISZERO PUSH2 0x1C7A JUMPI PUSH1 0x0 DUP1 REVERT JUMPDEST PUSH1 0xA PUSH1 0x0 DUP5 DUP2 MSTORE PUSH1 0x20 ADD SWAP1 DUP2 MSTORE PUSH1 0x20 ADD PUSH1 0x0 KECCAK256 PUSH1 0x0 DUP4 DUP2 MSTORE PUSH1 0x20 ADD SWAP1 DUP2 MSTORE PUSH1 0x20 ADD PUSH1 0x0 KECCAK256 PUSH1 0x0 CALLER PUSH20 0xFFFFFFFFFFFFFFFFFFFFFFFFFFFFFFFFFFFFFFFF AND PUSH20 0xFFFFFFFFFFFFFFFFFFFFFFFFFFFFFFFFFFFFFFFF AND DUP2 MSTORE PUSH1 0x20 ADD SWAP1 DUP2 MSTORE PUSH1 0x20 ADD PUSH1 0x0 KECCAK256 PUSH1 0x0 SWAP1 SLOAD SWAP1 PUSH2 0x100 EXP SWAP1 DIV PUSH1 0xFF AND ISZERO PUSH2 0x1D8D JUMPI PUSH1 0x0 PUSH1 0x5 PUSH1 0x0 SWAP1 SLOAD SWAP1 PUSH2 0x100 EXP SWAP1 DIV PUSH20 0xFFFFFFFFFFFFFFFFFFFFFFFFFFFFFFFFFFFFFFFF AND SWAP1 POP DUP1 PUSH20 0xFFFFFFFFFFFFFFFFFFFFFFFFFFFFFFFFFFFFFFFF AND PUSH4 0xE499DACF CALLER DUP10 PUSH1 0x40 MLOAD DUP4 PUSH4 0xFFFFFFFF AND PUSH1 0xE0 SHL DUP2 MSTORE PUSH1 0x4 ADD PUSH2 0x1D50 SWAP3 SWAP2 SWAP1 PUSH2 0x3780 JUMP JUMPDEST PUSH1 0x0 PUSH1 0x40 MLOAD DUP1 DUP4 SUB DUP2 PUSH1 0x0 DUP8 DUP1 EXTCODESIZE ISZERO DUP1 ISZERO PUSH2 0x1D6A JUMPI PUSH1 0x0 DUP1 REVERT JUMPDEST POP GAS CALL ISZERO DUP1 ISZERO PUSH2 0x1D7E JUMPI RETURNDATASIZE PUSH1 0x0 DUP1 RETURNDATACOPY RETURNDATASIZE PUSH1 0x0 REVERT JUMPDEST POP POP POP POP POP POP POP POP POP POP PUSH2 0x221D JUMP JUMPDEST PUSH1 0x0 DUP2 PUSH1 0x4 ADD PUSH1 0x0 SWAP1 SLOAD SWAP1 PUSH2 0x100 EXP SWAP1 DIV PUSH1 0xFF AND PUSH1 0x4 DUP2 GT ISZERO PUSH2 0x1DAC JUMPI INVALID JUMPDEST EQ ISZERO PUSH2 0x1FA1 JUMPI PUSH1 0x2 PUSH1 0x0 DUP2 SLOAD PUSH1 0x1 ADD SWAP2 SWAP1 POP DUP2 SWAP1 SSTORE POP PUSH1 0x40 MLOAD DUP1 PUSH1 0xC0 ADD PUSH1 0x40 MSTORE DUP1 DUP10 DUP2 MSTORE PUSH1 0x20 ADD DUP4 DUP2 MSTORE PUSH1 0x20 ADD PUSH1 0x1 PUSH1 0x40 MLOAD SWAP1 DUP1 DUP3 MSTORE DUP1 PUSH1 0x20 MUL PUSH1 0x20 ADD DUP3 ADD PUSH1 0x40 MSTORE DUP1 ISZERO PUSH2 0x1E09 JUMPI DUP2 PUSH1 0x20 ADD PUSH1 0x20 DUP3 MUL DUP1 CALLDATASIZE DUP4 CALLDATACOPY DUP1 DUP3 ADD SWAP2 POP POP SWAP1 POP JUMPDEST POP DUP2 MSTORE PUSH1 0x20 ADD PUSH1 0x0 PUSH1 0x40 MLOAD SWAP1 DUP1 DUP3 MSTORE DUP1 PUSH1 0x20 MUL PUSH1 0x20 ADD DUP3 ADD PUSH1 0x40 MSTORE DUP1 ISZERO PUSH2 0x1E3F JUMPI DUP2 PUSH1 0x20 ADD PUSH1 0x20 DUP3 MUL DUP1 CALLDATASIZE DUP4 CALLDATACOPY DUP1 DUP3 ADD SWAP2 POP POP SWAP1 POP JUMPDEST POP DUP2 MSTORE PUSH1 0x20 ADD PUSH1 0x1 PUSH1 0x4 DUP2 GT ISZERO PUSH2 0x1E52 JUMPI INVALID JUMPDEST DUP2 MSTORE PUSH1 0x20 ADD NUMBER DUP2 MSTORE POP PUSH1 0x9 PUSH1 0x0 DUP6 DUP2 MSTORE PUSH1 0x20 ADD SWAP1 DUP2 MSTORE PUSH1 0x20 ADD PUSH1 0x0 KECCAK256 PUSH1 0x0 DUP5 DUP2 MSTORE PUSH1 0x20 ADD SWAP1 DUP2 MSTORE PUSH1 0x20 ADD PUSH1 0x0 KECCAK256 PUSH1 0x0 DUP3 ADD MLOAD DUP2 PUSH1 0x0 ADD SSTORE PUSH1 0x20 DUP3 ADD MLOAD DUP2 PUSH1 0x1 ADD SSTORE PUSH1 0x40 DUP3 ADD MLOAD DUP2 PUSH1 0x2 ADD SWAP1 DUP1 MLOAD SWAP1 PUSH1 0x20 ADD SWAP1 PUSH2 0x1EAF SWAP3 SWAP2 SWAP1 PUSH2 0x2E9B JUMP JUMPDEST POP PUSH1 0x60 DUP3 ADD MLOAD DUP2 PUSH1 0x3 ADD SWAP1 DUP1 MLOAD SWAP1 PUSH1 0x20 ADD SWAP1 PUSH2 0x1ECC SWAP3 SWAP2 SWAP1 PUSH2 0x2E9B JUMP JUMPDEST POP PUSH1 0x80 DUP3 ADD MLOAD DUP2 PUSH1 0x4 ADD PUSH1 0x0 PUSH2 0x100 EXP DUP2 SLOAD DUP2 PUSH1 0xFF MUL NOT AND SWAP1 DUP4 PUSH1 0x4 DUP2 GT ISZERO PUSH2 0x1EF1 JUMPI INVALID JUMPDEST MUL OR SWAP1 SSTORE POP PUSH1 0xA0 DUP3 ADD MLOAD DUP2 PUSH1 0x5 ADD SSTORE SWAP1 POP POP CALLER DUP2 PUSH1 0x2 ADD PUSH1 0x0 DUP2 SLOAD DUP2 LT PUSH2 0x1F14 JUMPI INVALID JUMPDEST SWAP1 PUSH1 0x0 MSTORE PUSH1 0x20 PUSH1 0x0 KECCAK256 ADD PUSH1 0x0 PUSH2 0x100 EXP DUP2 SLOAD DUP2 PUSH20 0xFFFFFFFFFFFFFFFFFFFFFFFFFFFFFFFFFFFFFFFF MUL NOT AND SWAP1 DUP4 PUSH20 0xFFFFFFFFFFFFFFFFFFFFFFFFFFFFFFFFFFFFFFFF AND MUL OR SWAP1 SSTORE POP PUSH32 0x8DC49847A011C3B316CD0F50CF982E0FD5B3DDB7FDF970FC81A25557F0923A73 DUP11 DUP11 PUSH1 0x1 DUP12 DUP7 PUSH1 0x40 MLOAD PUSH2 0x1F94 SWAP6 SWAP5 SWAP4 SWAP3 SWAP2 SWAP1 PUSH2 0x3A00 JUMP JUMPDEST PUSH1 0x40 MLOAD DUP1 SWAP2 SUB SWAP1 LOG1 PUSH2 0x209A JUMP JUMPDEST PUSH1 0x4 SLOAD PUSH2 0x1FB2 NUMBER DUP4 PUSH1 0x5 ADD SLOAD PUSH2 0x2224 JUMP JUMPDEST GT ISZERO PUSH2 0x2023 JUMPI PUSH1 0x4 DUP2 PUSH1 0x4 ADD PUSH1 0x0 PUSH2 0x100 EXP DUP2 SLOAD DUP2 PUSH1 0xFF MUL NOT AND SWAP1 DUP4 PUSH1 0x4 DUP2 GT ISZERO PUSH2 0x1FD9 JUMPI INVALID JUMPDEST MUL OR SWAP1 SSTORE POP PUSH32 0x8DC49847A011C3B316CD0F50CF982E0FD5B3DDB7FDF970FC81A25557F0923A73 DUP11 DUP11 PUSH1 0x4 DUP12 DUP7 PUSH1 0x40 MLOAD PUSH2 0x2016 SWAP6 SWAP5 SWAP4 SWAP3 SWAP2 SWAP1 PUSH2 0x3A00 JUMP JUMPDEST PUSH1 0x40 MLOAD DUP1 SWAP2 SUB SWAP1 LOG1 PUSH2 0x2099 JUMP JUMPDEST DUP1 PUSH1 0x1 ADD SLOAD DUP3 EQ PUSH2 0x2033 JUMPI PUSH1 0x0 DUP1 REVERT JUMPDEST DUP1 PUSH1 0x2 ADD CALLER SWAP1 DUP1 PUSH1 0x1 DUP2 SLOAD ADD DUP1 DUP3 SSTORE DUP1 SWAP2 POP POP PUSH1 0x1 SWAP1 SUB SWAP1 PUSH1 0x0 MSTORE PUSH1 0x20 PUSH1 0x0 KECCAK256 ADD PUSH1 0x0 SWAP1 SWAP2 SWAP1 SWAP2 SWAP1 SWAP2 PUSH2 0x100 EXP DUP2 SLOAD DUP2 PUSH20 0xFFFFFFFFFFFFFFFFFFFFFFFFFFFFFFFFFFFFFFFF MUL NOT AND SWAP1 DUP4 PUSH20 0xFFFFFFFFFFFFFFFFFFFFFFFFFFFFFFFFFFFFFFFF AND MUL OR SWAP1 SSTORE POP JUMPDEST JUMPDEST PUSH1 0x4 DUP1 DUP2 GT ISZERO PUSH2 0x20A6 JUMPI INVALID JUMPDEST DUP2 PUSH1 0x4 ADD PUSH1 0x0 SWAP1 SLOAD SWAP1 PUSH2 0x100 EXP SWAP1 DIV PUSH1 0xFF AND PUSH1 0x4 DUP2 GT ISZERO PUSH2 0x20C3 JUMPI INVALID JUMPDEST EQ PUSH2 0x2217 JUMPI PUSH1 0x1 PUSH1 0xA PUSH1 0x0 DUP6 DUP2 MSTORE PUSH1 0x20 ADD SWAP1 DUP2 MSTORE PUSH1 0x20 ADD PUSH1 0x0 KECCAK256 PUSH1 0x0 DUP5 DUP2 MSTORE PUSH1 0x20 ADD SWAP1 DUP2 MSTORE PUSH1 0x20 ADD PUSH1 0x0 KECCAK256 PUSH1 0x0 CALLER PUSH20 0xFFFFFFFFFFFFFFFFFFFFFFFFFFFFFFFFFFFFFFFF AND PUSH20 0xFFFFFFFFFFFFFFFFFFFFFFFFFFFFFFFFFFFFFFFF AND DUP2 MSTORE PUSH1 0x20 ADD SWAP1 DUP2 MSTORE PUSH1 0x20 ADD PUSH1 0x0 KECCAK256 PUSH1 0x0 PUSH2 0x100 EXP DUP2 SLOAD DUP2 PUSH1 0xFF MUL NOT AND SWAP1 DUP4 ISZERO ISZERO MUL OR SWAP1 SSTORE POP PUSH32 0x85F41114EFC645854A10EEF33EF4DEC54341CB3EC3AB32386C92C881F3B1B505 DUP11 DUP11 DUP4 PUSH1 0x4 ADD PUSH1 0x0 SWAP1 SLOAD SWAP1 PUSH2 0x100 EXP SWAP1 DIV PUSH1 0xFF AND DUP12 PUSH1 0x40 MLOAD PUSH2 0x2188 SWAP5 SWAP4 SWAP3 SWAP2 SWAP1 PUSH2 0x39BB JUMP JUMPDEST PUSH1 0x40 MLOAD DUP1 SWAP2 SUB SWAP1 LOG1 PUSH1 0x1 DUP1 SLOAD GT ISZERO DUP1 PUSH2 0x21AA JUMPI POP PUSH1 0x1 SLOAD DUP2 PUSH1 0x2 ADD DUP1 SLOAD SWAP1 POP LT ISZERO JUMPDEST ISZERO PUSH2 0x2216 JUMPI PUSH1 0x2 DUP2 PUSH1 0x4 ADD PUSH1 0x0 PUSH2 0x100 EXP DUP2 SLOAD DUP2 PUSH1 0xFF MUL NOT AND SWAP1 DUP4 PUSH1 0x4 DUP2 GT ISZERO PUSH2 0x21D0 JUMPI INVALID JUMPDEST MUL OR SWAP1 SSTORE POP PUSH32 0x8DC49847A011C3B316CD0F50CF982E0FD5B3DDB7FDF970FC81A25557F0923A73 DUP11 DUP11 PUSH1 0x2 DUP12 DUP7 PUSH1 0x40 MLOAD PUSH2 0x220D SWAP6 SWAP5 SWAP4 SWAP3 SWAP2 SWAP1 PUSH2 0x3A00 JUMP JUMPDEST PUSH1 0x40 MLOAD DUP1 SWAP2 SUB SWAP1 LOG1 JUMPDEST JUMPDEST POP POP POP POP POP JUMPDEST POP POP POP POP POP JUMP JUMPDEST PUSH1 0x0 PUSH2 0x2266 DUP4 DUP4 PUSH1 0x40 MLOAD DUP1 PUSH1 0x40 ADD PUSH1 0x40 MSTORE DUP1 PUSH1 0x1E DUP2 MSTORE PUSH1 0x20 ADD PUSH32 0x536166654D6174683A207375627472616374696F6E206F766572666C6F770000 DUP2 MSTORE POP PUSH2 0x2C30 JUMP JUMPDEST SWAP1 POP SWAP3 SWAP2 POP POP JUMP JUMPDEST PUSH1 0x5 PUSH1 0x0 SWAP1 SLOAD SWAP1 PUSH2 0x100 EXP SWAP1 DIV PUSH20 0xFFFFFFFFFFFFFFFFFFFFFFFFFFFFFFFFFFFFFFFF AND DUP2 JUMP JUMPDEST PUSH1 0x0 PUSH1 0x16 SWAP1 SLOAD SWAP1 PUSH2 0x100 EXP SWAP1 DIV PUSH1 0xC0 SHL DUP2 JUMP JUMPDEST PUSH1 0x3 SLOAD DUP2 JUMP JUMPDEST PUSH1 0x4 SLOAD DUP2 JUMP JUMPDEST PUSH1 0x1 DUP2 JUMP JUMPDEST PUSH1 0x0 PUSH1 0x15 SWAP1 SLOAD SWAP1 PUSH2 0x100 EXP SWAP1 DIV PUSH1 0xFF AND PUSH2 0x22D1 JUMPI PUSH1 0x0 DUP1 REVERT JUMPDEST PUSH2 0x22D9 PUSH2 0x2945 JUMP JUMPDEST PUSH20 0xFFFFFFFFFFFFFFFFFFFFFFFFFFFFFFFFFFFFFFFF AND PUSH2 0x22F7 PUSH2 0x11D1 JUMP JUMPDEST PUSH20 0xFFFFFFFFFFFFFFFFFFFFFFFFFFFFFFFFFFFFFFFF AND EQ PUSH2 0x2317 JUMPI PUSH1 0x0 DUP1 REVERT JUMPDEST PUSH1 0x0 PUSH1 0x15 SWAP1 SLOAD SWAP1 PUSH2 0x100 EXP SWAP1 DIV PUSH1 0xFF AND PUSH2 0x2330 JUMPI PUSH1 0x0 DUP1 REVERT JUMPDEST DUP3 PUSH1 0x7 PUSH1 0x0 DUP5 DUP2 MSTORE PUSH1 0x20 ADD SWAP1 DUP2 MSTORE PUSH1 0x20 ADD PUSH1 0x0 KECCAK256 PUSH1 0x0 PUSH2 0x100 EXP DUP2 SLOAD DUP2 PUSH20 0xFFFFFFFFFFFFFFFFFFFFFFFFFFFFFFFFFFFFFFFF MUL NOT AND SWAP1 DUP4 PUSH20 0xFFFFFFFFFFFFFFFFFFFFFFFFFFFFFFFFFFFFFFFF AND MUL OR SWAP1 SSTORE POP PUSH1 0x0 DUP4 SWAP1 POP DUP1 PUSH20 0xFFFFFFFFFFFFFFFFFFFFFFFFFFFFFFFFFFFFFFFF AND PUSH4 0xB8FA3736 DUP5 DUP5 PUSH1 0x40 MLOAD DUP4 PUSH4 0xFFFFFFFF AND PUSH1 0xE0 SHL DUP2 MSTORE PUSH1 0x4 ADD PUSH2 0x23C2 SWAP3 SWAP2 SWAP1 PUSH2 0x382B JUMP JUMPDEST PUSH1 0x0 PUSH1 0x40 MLOAD DUP1 DUP4 SUB DUP2 PUSH1 0x0 DUP8 DUP1 EXTCODESIZE ISZERO DUP1 ISZERO PUSH2 0x23DC JUMPI PUSH1 0x0 DUP1 REVERT JUMPDEST POP GAS CALL ISZERO DUP1 ISZERO PUSH2 0x23F0 JUMPI RETURNDATASIZE PUSH1 0x0 DUP1 RETURNDATACOPY RETURNDATASIZE PUSH1 0x0 REVERT JUMPDEST POP POP POP POP POP POP POP POP JUMP JUMPDEST PUSH1 0x1 SLOAD DUP2 JUMP JUMPDEST PUSH4 0x574C4131 PUSH1 0xC0 SHL PUSH1 0x0 PUSH1 0x16 PUSH2 0x100 EXP DUP2 SLOAD DUP2 PUSH8 0xFFFFFFFFFFFFFFFF MUL NOT AND SWAP1 DUP4 PUSH1 0xC0 SHR MUL OR SWAP1 SSTORE POP PUSH1 0x1 DUP1 DUP2 SWAP1 SSTORE POP PUSH1 0xA PUSH1 0x3 DUP2 SWAP1 SSTORE POP PUSH1 0xA PUSH1 0x4 DUP2 SWAP1 SSTORE POP PUSH2 0x2449 CALLER PUSH2 0x2C8B JUMP JUMPDEST JUMP JUMPDEST PUSH1 0x0 PUSH1 0x15 SWAP1 SLOAD SWAP1 PUSH2 0x100 EXP SWAP1 DIV PUSH1 0xFF AND PUSH2 0x2464 JUMPI PUSH1 0x0 DUP1 REVERT JUMPDEST PUSH2 0x246C PUSH2 0x2945 JUMP JUMPDEST PUSH20 0xFFFFFFFFFFFFFFFFFFFFFFFFFFFFFFFFFFFFFFFF AND PUSH2 0x248A PUSH2 0x11D1 JUMP JUMPDEST PUSH20 0xFFFFFFFFFFFFFFFFFFFFFFFFFFFFFFFFFFFFFFFF AND EQ PUSH2 0x24AA JUMPI PUSH1 0x0 DUP1 REVERT JUMPDEST PUSH1 0x0 PUSH1 0x15 SWAP1 SLOAD SWAP1 PUSH2 0x100 EXP SWAP1 DIV PUSH1 0xFF AND PUSH2 0x24C3 JUMPI PUSH1 0x0 DUP1 REVERT JUMPDEST PUSH1 0x0 SELFBALANCE DUP3 LT PUSH2 0x24D2 JUMPI SELFBALANCE PUSH2 0x24D4 JUMP JUMPDEST DUP2 JUMPDEST SWAP1 POP CALLER PUSH20 0xFFFFFFFFFFFFFFFFFFFFFFFFFFFFFFFFFFFFFFFF AND PUSH2 0x8FC DUP3 SWAP1 DUP2 ISZERO MUL SWAP1 PUSH1 0x40 MLOAD PUSH1 0x0 PUSH1 0x40 MLOAD DUP1 DUP4 SUB DUP2 DUP6 DUP9 DUP9 CALL SWAP4 POP POP POP POP ISZERO DUP1 ISZERO PUSH2 0x251C JUMPI RETURNDATASIZE PUSH1 0x0 DUP1 RETURNDATACOPY RETURNDATASIZE PUSH1 0x0 REVERT JUMPDEST POP POP POP JUMP JUMPDEST PUSH1 0x0 PUSH1 0x15 SWAP1 SLOAD SWAP1 PUSH2 0x100 EXP SWAP1 DIV PUSH1 0xFF AND PUSH2 0x253A JUMPI PUSH1 0x0 DUP1 REVERT JUMPDEST PUSH2 0x2542 PUSH2 0x2945 JUMP JUMPDEST PUSH20 0xFFFFFFFFFFFFFFFFFFFFFFFFFFFFFFFFFFFFFFFF AND PUSH2 0x2560 PUSH2 0x11D1 JUMP JUMPDEST PUSH20 0xFFFFFFFFFFFFFFFFFFFFFFFFFFFFFFFFFFFFFFFF AND EQ PUSH2 0x2580 JUMPI PUSH1 0x0 DUP1 REVERT JUMPDEST PUSH1 0x0 PUSH1 0x15 SWAP1 SLOAD SWAP1 PUSH2 0x100 EXP SWAP1 DIV PUSH1 0xFF AND PUSH2 0x2599 JUMPI PUSH1 0x0 DUP1 REVERT JUMPDEST PUSH1 0x0 PUSH20 0xFFFFFFFFFFFFFFFFFFFFFFFFFFFFFFFFFFFFFFFF AND DUP2 PUSH20 0xFFFFFFFFFFFFFFFFFFFFFFFFFFFFFFFFFFFFFFFF AND EQ ISZERO PUSH2 0x25D3 JUMPI PUSH1 0x0 DUP1 REVERT JUMPDEST DUP1 PUSH20 0xFFFFFFFFFFFFFFFFFFFFFFFFFFFFFFFFFFFFFFFF AND PUSH1 0x0 PUSH1 0x1 SWAP1 SLOAD SWAP1 PUSH2 0x100 EXP SWAP1 DIV PUSH20 0xFFFFFFFFFFFFFFFFFFFFFFFFFFFFFFFFFFFFFFFF AND PUSH20 0xFFFFFFFFFFFFFFFFFFFFFFFFFFFFFFFFFFFFFFFF AND PUSH32 0x8BE0079C531659141344CD1FD0A4F28419497F9722A3DAAFE3B4186F6B6457E0 PUSH1 0x40 MLOAD PUSH1 0x40 MLOAD DUP1 SWAP2 SUB SWAP1 LOG3 DUP1 PUSH1 0x0 PUSH1 0x1 PUSH2 0x100 EXP DUP2 SLOAD DUP2 PUSH20 0xFFFFFFFFFFFFFFFFFFFFFFFFFFFFFFFFFFFFFFFF MUL NOT AND SWAP1 DUP4 PUSH20 0xFFFFFFFFFFFFFFFFFFFFFFFFFFFFFFFFFFFFFFFF AND MUL OR SWAP1 SSTORE POP POP JUMP JUMPDEST PUSH2 0x269B PUSH2 0x2B18 JUMP JUMPDEST PUSH1 0x0 PUSH1 0x15 SWAP1 SLOAD SWAP1 PUSH2 0x100 EXP SWAP1 DIV PUSH1 0xFF AND PUSH2 0x26B4 JUMPI PUSH1 0x0 DUP1 REVERT JUMPDEST PUSH1 0x0 PUSH20 0xFFFFFFFFFFFFFFFFFFFFFFFFFFFFFFFFFFFFFFFF AND PUSH1 0x5 PUSH1 0x0 SWAP1 SLOAD SWAP1 PUSH2 0x100 EXP SWAP1 DIV PUSH20 0xFFFFFFFFFFFFFFFFFFFFFFFFFFFFFFFFFFFFFFFF AND PUSH20 0xFFFFFFFFFFFFFFFFFFFFFFFFFFFFFFFFFFFFFFFF AND EQ ISZERO PUSH2 0x2710 JUMPI PUSH1 0x0 DUP1 REVERT JUMPDEST PUSH1 0x0 PUSH1 0x5 PUSH1 0x0 SWAP1 SLOAD SWAP1 PUSH2 0x100 EXP SWAP1 DIV PUSH20 0xFFFFFFFFFFFFFFFFFFFFFFFFFFFFFFFFFFFFFFFF AND SWAP1 POP PUSH1 0x0 DUP2 PUSH20 0xFFFFFFFFFFFFFFFFFFFFFFFFFFFFFFFFFFFFFFFF AND PUSH4 0x34381749 CALLER PUSH1 0x40 MLOAD DUP3 PUSH4 0xFFFFFFFF AND PUSH1 0xE0 SHL DUP2 MSTORE PUSH1 0x4 ADD PUSH2 0x2772 SWAP2 SWAP1 PUSH2 0x3765 JUMP JUMPDEST PUSH1 0x20 PUSH1 0x40 MLOAD DUP1 DUP4 SUB DUP2 DUP7 DUP1 EXTCODESIZE ISZERO DUP1 ISZERO PUSH2 0x278A JUMPI PUSH1 0x0 DUP1 REVERT JUMPDEST POP GAS STATICCALL ISZERO DUP1 ISZERO PUSH2 0x279E JUMPI RETURNDATASIZE PUSH1 0x0 DUP1 RETURNDATACOPY RETURNDATASIZE PUSH1 0x0 REVERT JUMPDEST POP POP POP POP PUSH1 0x40 MLOAD RETURNDATASIZE PUSH1 0x1F NOT PUSH1 0x1F DUP3 ADD AND DUP3 ADD DUP1 PUSH1 0x40 MSTORE POP DUP2 ADD SWAP1 PUSH2 0x27C2 SWAP2 SWAP1 PUSH2 0x3444 JUMP JUMPDEST SWAP1 POP PUSH1 0x0 SELFBALANCE DUP3 LT PUSH2 0x27D3 JUMPI SELFBALANCE PUSH2 0x27D5 JUMP JUMPDEST DUP2 JUMPDEST SWAP1 POP PUSH1 0x0 DUP2 GT ISZERO PUSH2 0x289E JUMPI CALLER PUSH20 0xFFFFFFFFFFFFFFFFFFFFFFFFFFFFFFFFFFFFFFFF AND PUSH2 0x8FC DUP3 SWAP1 DUP2 ISZERO MUL SWAP1 PUSH1 0x40 MLOAD PUSH1 0x0 PUSH1 0x40 MLOAD DUP1 DUP4 SUB DUP2 DUP6 DUP9 DUP9 CALL SWAP4 POP POP POP POP ISZERO DUP1 ISZERO PUSH2 0x2826 JUMPI RETURNDATASIZE PUSH1 0x0 DUP1 RETURNDATACOPY RETURNDATASIZE PUSH1 0x0 REVERT JUMPDEST POP DUP3 PUSH20 0xFFFFFFFFFFFFFFFFFFFFFFFFFFFFFFFFFFFFFFFF AND PUSH4 0x1A399125 CALLER PUSH2 0x284E DUP6 DUP6 PUSH2 0x2224 JUMP JUMPDEST PUSH1 0x40 MLOAD DUP4 PUSH4 0xFFFFFFFF AND PUSH1 0xE0 SHL DUP2 MSTORE PUSH1 0x4 ADD PUSH2 0x286B SWAP3 SWAP2 SWAP1 PUSH2 0x3780 JUMP JUMPDEST PUSH1 0x0 PUSH1 0x40 MLOAD DUP1 DUP4 SUB DUP2 PUSH1 0x0 DUP8 DUP1 EXTCODESIZE ISZERO DUP1 ISZERO PUSH2 0x2885 JUMPI PUSH1 0x0 DUP1 REVERT JUMPDEST POP GAS CALL ISZERO DUP1 ISZERO PUSH2 0x2899 JUMPI RETURNDATASIZE PUSH1 0x0 DUP1 RETURNDATACOPY RETURNDATASIZE PUSH1 0x0 REVERT JUMPDEST POP POP POP POP JUMPDEST PUSH32 0xE8354B169CD993D5CDFAD1036A9A3F1EA7ED77E430BCCB279200FD088243F595 CALLER DUP3 PUSH1 0x40 MLOAD PUSH2 0x28CF SWAP3 SWAP2 SWAP1 PUSH2 0x3780 JUMP JUMPDEST PUSH1 0x40 MLOAD DUP1 SWAP2 SUB SWAP1 LOG1 POP POP POP JUMP JUMPDEST PUSH1 0x0 PUSH1 0x15 SWAP1 SLOAD SWAP1 PUSH2 0x100 EXP SWAP1 DIV PUSH1 0xFF AND PUSH2 0x28F5 JUMPI PUSH1 0x0 DUP1 REVERT JUMPDEST PUSH2 0x28FD PUSH2 0x2945 JUMP JUMPDEST PUSH20 0xFFFFFFFFFFFFFFFFFFFFFFFFFFFFFFFFFFFFFFFF AND PUSH2 0x291B PUSH2 0x11D1 JUMP JUMPDEST PUSH20 0xFFFFFFFFFFFFFFFFFFFFFFFFFFFFFFFFFFFFFFFF AND EQ PUSH2 0x293B JUMPI PUSH1 0x0 DUP1 REVERT JUMPDEST PUSH2 0x2943 PUSH2 0x2D5F JUMP JUMPDEST JUMP JUMPDEST PUSH1 0x0 CALLER SWAP1 POP SWAP1 JUMP JUMPDEST PUSH1 0x0 PUSH20 0xFFFFFFFFFFFFFFFFFFFFFFFFFFFFFFFFFFFFFFFF AND PUSH1 0x5 PUSH1 0x0 SWAP1 SLOAD SWAP1 PUSH2 0x100 EXP SWAP1 DIV PUSH20 0xFFFFFFFFFFFFFFFFFFFFFFFFFFFFFFFFFFFFFFFF AND PUSH20 0xFFFFFFFFFFFFFFFFFFFFFFFFFFFFFFFFFFFFFFFF AND EQ ISZERO PUSH2 0x29A9 JUMPI PUSH1 0x0 DUP1 REVERT JUMPDEST PUSH1 0x0 PUSH1 0x5 PUSH1 0x0 SWAP1 SLOAD SWAP1 PUSH2 0x100 EXP SWAP1 DIV PUSH20 0xFFFFFFFFFFFFFFFFFFFFFFFFFFFFFFFFFFFFFFFF AND SWAP1 POP CALLER PUSH20 0xFFFFFFFFFFFFFFFFFFFFFFFFFFFFFFFFFFFFFFFF AND PUSH2 0x29EF PUSH2 0x11D1 JUMP JUMPDEST PUSH20 0xFFFFFFFFFFFFFFFFFFFFFFFFFFFFFFFFFFFFFFFF AND EQ DUP1 PUSH2 0x2A96 JUMPI POP DUP1 PUSH20 0xFFFFFFFFFFFFFFFFFFFFFFFFFFFFFFFFFFFFFFFF AND PUSH4 0x541D5548 CALLER PUSH1 0x40 MLOAD DUP3 PUSH4 0xFFFFFFFF AND PUSH1 0xE0 SHL DUP2 MSTORE PUSH1 0x4 ADD PUSH2 0x2A45 SWAP2 SWAP1 PUSH2 0x3765 JUMP JUMPDEST PUSH1 0x20 PUSH1 0x40 MLOAD DUP1 DUP4 SUB DUP2 DUP7 DUP1 EXTCODESIZE ISZERO DUP1 ISZERO PUSH2 0x2A5D JUMPI PUSH1 0x0 DUP1 REVERT JUMPDEST POP GAS STATICCALL ISZERO DUP1 ISZERO PUSH2 0x2A71 JUMPI RETURNDATASIZE PUSH1 0x0 DUP1 RETURNDATACOPY RETURNDATASIZE PUSH1 0x0 REVERT JUMPDEST POP POP POP POP PUSH1 0x40 MLOAD RETURNDATASIZE PUSH1 0x1F NOT PUSH1 0x1F DUP3 ADD AND DUP3 ADD DUP1 PUSH1 0x40 MSTORE POP DUP2 ADD SWAP1 PUSH2 0x2A95 SWAP2 SWAP1 PUSH2 0x3175 JUMP JUMPDEST JUMPDEST PUSH2 0x2A9F JUMPI PUSH1 0x0 DUP1 REVERT JUMPDEST POP JUMP JUMPDEST PUSH2 0x2AAA PUSH2 0x2AFD JUMP JUMPDEST PUSH1 0x1 PUSH1 0x0 DUP1 PUSH2 0x100 EXP DUP2 SLOAD DUP2 PUSH1 0xFF MUL NOT AND SWAP1 DUP4 ISZERO ISZERO MUL OR SWAP1 SSTORE POP PUSH32 0x62E78CEA01BEE320CD4E420270B5EA74000D11B0C9F74754EBDBFC544B05A258 CALLER PUSH1 0x40 MLOAD PUSH2 0x2AF3 SWAP2 SWAP1 PUSH2 0x3765 JUMP JUMPDEST PUSH1 0x40 MLOAD DUP1 SWAP2 SUB SWAP1 LOG1 JUMP JUMPDEST PUSH1 0x0 DUP1 SWAP1 SLOAD SWAP1 PUSH2 0x100 EXP SWAP1 DIV PUSH1 0xFF AND ISZERO PUSH2 0x2B16 JUMPI PUSH1 0x0 DUP1 REVERT JUMPDEST JUMP JUMPDEST PUSH1 0x0 PUSH20 0xFFFFFFFFFFFFFFFFFFFFFFFFFFFFFFFFFFFFFFFF AND PUSH1 0x5 PUSH1 0x0 SWAP1 SLOAD SWAP1 PUSH2 0x100 EXP SWAP1 DIV PUSH20 0xFFFFFFFFFFFFFFFFFFFFFFFFFFFFFFFFFFFFFFFF AND PUSH20 0xFFFFFFFFFFFFFFFFFFFFFFFFFFFFFFFFFFFFFFFF AND EQ ISZERO PUSH2 0x2B74 JUMPI PUSH1 0x0 DUP1 REVERT JUMPDEST PUSH1 0x0 PUSH1 0x5 PUSH1 0x0 SWAP1 SLOAD SWAP1 PUSH2 0x100 EXP SWAP1 DIV PUSH20 0xFFFFFFFFFFFFFFFFFFFFFFFFFFFFFFFFFFFFFFFF AND SWAP1 POP DUP1 PUSH20 0xFFFFFFFFFFFFFFFFFFFFFFFFFFFFFFFFFFFFFFFF AND PUSH4 0x541D5548 CALLER PUSH1 0x40 MLOAD DUP3 PUSH4 0xFFFFFFFF AND PUSH1 0xE0 SHL DUP2 MSTORE PUSH1 0x4 ADD PUSH2 0x2BD4 SWAP2 SWAP1 PUSH2 0x3765 JUMP JUMPDEST PUSH1 0x20 PUSH1 0x40 MLOAD DUP1 DUP4 SUB DUP2 DUP7 DUP1 EXTCODESIZE ISZERO DUP1 ISZERO PUSH2 0x2BEC JUMPI PUSH1 0x0 DUP1 REVERT JUMPDEST POP GAS STATICCALL ISZERO DUP1 ISZERO PUSH2 0x2C00 JUMPI RETURNDATASIZE PUSH1 0x0 DUP1 RETURNDATACOPY RETURNDATASIZE PUSH1 0x0 REVERT JUMPDEST POP POP POP POP PUSH1 0x40 MLOAD RETURNDATASIZE PUSH1 0x1F NOT PUSH1 0x1F DUP3 ADD AND DUP3 ADD DUP1 PUSH1 0x40 MSTORE POP DUP2 ADD SWAP1 PUSH2 0x2C24 SWAP2 SWAP1 PUSH2 0x3175 JUMP JUMPDEST PUSH2 0x2C2D JUMPI PUSH1 0x0 DUP1 REVERT JUMPDEST POP JUMP JUMPDEST PUSH1 0x0 DUP4 DUP4 GT ISZERO DUP3 SWAP1 PUSH2 0x2C78 JUMPI PUSH1 0x40 MLOAD PUSH32 0x8C379A000000000000000000000000000000000000000000000000000000000 DUP2 MSTORE PUSH1 0x4 ADD PUSH2 0x2C6F SWAP2 SWAP1 PUSH2 0x3A75 JUMP JUMPDEST PUSH1 0x40 MLOAD DUP1 SWAP2 SUB SWAP1 REVERT JUMPDEST POP PUSH1 0x0 DUP4 DUP6 SUB SWAP1 POP DUP1 SWAP2 POP POP SWAP4 SWAP3 POP POP POP JUMP JUMPDEST PUSH1 0x0 PUSH1 0x15 SWAP1 SLOAD SWAP1 PUSH2 0x100 EXP SWAP1 DIV PUSH1 0xFF AND ISZERO PUSH2 0x2CA5 JUMPI PUSH1 0x0 DUP1 REVERT JUMPDEST PUSH1 0x1 PUSH1 0x0 PUSH1 0x15 PUSH2 0x100 EXP DUP2 SLOAD DUP2 PUSH1 0xFF MUL NOT AND SWAP1 DUP4 ISZERO ISZERO MUL OR SWAP1 SSTORE POP DUP1 PUSH1 0x0 PUSH1 0x1 PUSH2 0x100 EXP DUP2 SLOAD DUP2 PUSH20 0xFFFFFFFFFFFFFFFFFFFFFFFFFFFFFFFFFFFFFFFF MUL NOT AND SWAP1 DUP4 PUSH20 0xFFFFFFFFFFFFFFFFFFFFFFFFFFFFFFFFFFFFFFFF AND MUL OR SWAP1 SSTORE POP DUP1 PUSH20 0xFFFFFFFFFFFFFFFFFFFFFFFFFFFFFFFFFFFFFFFF AND PUSH1 0x0 PUSH20 0xFFFFFFFFFFFFFFFFFFFFFFFFFFFFFFFFFFFFFFFF AND PUSH32 0x8BE0079C531659141344CD1FD0A4F28419497F9722A3DAAFE3B4186F6B6457E0 PUSH1 0x40 MLOAD PUSH1 0x40 MLOAD DUP1 SWAP2 SUB SWAP1 LOG3 POP JUMP JUMPDEST PUSH2 0x2D67 PUSH2 0x2DBA JUMP JUMPDEST PUSH1 0x0 DUP1 PUSH1 0x0 PUSH2 0x100 EXP DUP2 SLOAD DUP2 PUSH1 0xFF MUL NOT AND SWAP1 DUP4 ISZERO ISZERO MUL OR SWAP1 SSTORE POP PUSH32 0x5DB9EE0A495BF2E6FF9C91A7834C1BA4FDD244A5E8AA4E537BD38AEAE4B073AA CALLER PUSH1 0x40 MLOAD PUSH2 0x2DB0 SWAP2 SWAP1 PUSH2 0x3765 JUMP JUMPDEST PUSH1 0x40 MLOAD DUP1 SWAP2 SUB SWAP1 LOG1 JUMP JUMPDEST PUSH1 0x0 DUP1 SWAP1 SLOAD SWAP1 PUSH2 0x100 EXP SWAP1 DIV PUSH1 0xFF AND PUSH2 0x2DD2 JUMPI PUSH1 0x0 DUP1 REVERT JUMPDEST JUMP JUMPDEST PUSH1 0x40 MLOAD DUP1 PUSH1 0xC0 ADD PUSH1 0x40 MSTORE DUP1 PUSH1 0x0 DUP1 NOT AND DUP2 MSTORE PUSH1 0x20 ADD PUSH1 0x0 DUP1 NOT AND DUP2 MSTORE PUSH1 0x20 ADD PUSH1 0x60 DUP2 MSTORE PUSH1 0x20 ADD PUSH1 0x60 DUP2 MSTORE PUSH1 0x20 ADD PUSH1 0x0 PUSH1 0x4 DUP2 GT ISZERO PUSH2 0x2E0E JUMPI INVALID JUMPDEST DUP2 MSTORE PUSH1 0x20 ADD PUSH1 0x0 DUP2 MSTORE POP SWAP1 JUMP JUMPDEST DUP3 DUP1 SLOAD PUSH1 0x1 DUP2 PUSH1 0x1 AND ISZERO PUSH2 0x100 MUL SUB AND PUSH1 0x2 SWAP1 DIV SWAP1 PUSH1 0x0 MSTORE PUSH1 0x20 PUSH1 0x0 KECCAK256 SWAP1 PUSH1 0x1F ADD PUSH1 0x20 SWAP1 DIV DUP2 ADD SWAP3 DUP3 PUSH1 0x1F LT PUSH2 0x2E5C JUMPI DUP1 MLOAD PUSH1 0xFF NOT AND DUP4 DUP1 ADD OR DUP6 SSTORE PUSH2 0x2E8A JUMP JUMPDEST DUP3 DUP1 ADD PUSH1 0x1 ADD DUP6 SSTORE DUP3 ISZERO PUSH2 0x2E8A JUMPI SWAP2 DUP3 ADD JUMPDEST DUP3 DUP2 GT ISZERO PUSH2 0x2E89 JUMPI DUP3 MLOAD DUP3 SSTORE SWAP2 PUSH1 0x20 ADD SWAP2 SWAP1 PUSH1 0x1 ADD SWAP1 PUSH2 0x2E6E JUMP JUMPDEST JUMPDEST POP SWAP1 POP PUSH2 0x2E97 SWAP2 SWAP1 PUSH2 0x2F25 JUMP JUMPDEST POP SWAP1 JUMP JUMPDEST DUP3 DUP1 SLOAD DUP3 DUP3 SSTORE SWAP1 PUSH1 0x0 MSTORE PUSH1 0x20 PUSH1 0x0 KECCAK256 SWAP1 DUP2 ADD SWAP3 DUP3 ISZERO PUSH2 0x2F14 JUMPI SWAP2 PUSH1 0x20 MUL DUP3 ADD JUMPDEST DUP3 DUP2 GT ISZERO PUSH2 0x2F13 JUMPI DUP3 MLOAD DUP3 PUSH1 0x0 PUSH2 0x100 EXP DUP2 SLOAD DUP2 PUSH20 0xFFFFFFFFFFFFFFFFFFFFFFFFFFFFFFFFFFFFFFFF MUL NOT AND SWAP1 DUP4 PUSH20 0xFFFFFFFFFFFFFFFFFFFFFFFFFFFFFFFFFFFFFFFF AND MUL OR SWAP1 SSTORE POP SWAP2 PUSH1 0x20 ADD SWAP2 SWAP1 PUSH1 0x1 ADD SWAP1 PUSH2 0x2EBB JUMP JUMPDEST JUMPDEST POP SWAP1 POP PUSH2 0x2F21 SWAP2 SWAP1 PUSH2 0x2F4A JUMP JUMPDEST POP SWAP1 JUMP JUMPDEST PUSH2 0x2F47 SWAP2 SWAP1 JUMPDEST DUP1 DUP3 GT ISZERO PUSH2 0x2F43 JUMPI PUSH1 0x0 DUP2 PUSH1 0x0 SWAP1 SSTORE POP PUSH1 0x1 ADD PUSH2 0x2F2B JUMP JUMPDEST POP SWAP1 JUMP JUMPDEST SWAP1 JUMP JUMPDEST PUSH2 0x2F8A SWAP2 SWAP1 JUMPDEST DUP1 DUP3 GT ISZERO PUSH2 0x2F86 JUMPI PUSH1 0x0 DUP2 DUP2 PUSH2 0x100 EXP DUP2 SLOAD SWAP1 PUSH20 0xFFFFFFFFFFFFFFFFFFFFFFFFFFFFFFFFFFFFFFFF MUL NOT AND SWAP1 SSTORE POP PUSH1 0x1 ADD PUSH2 0x2F50 JUMP JUMPDEST POP SWAP1 JUMP JUMPDEST SWAP1 JUMP JUMPDEST PUSH1 0x0 DUP2 CALLDATALOAD SWAP1 POP PUSH2 0x2F9C DUP2 PUSH2 0x3CFB JUMP JUMPDEST SWAP3 SWAP2 POP POP JUMP JUMPDEST PUSH1 0x0 DUP2 MLOAD SWAP1 POP PUSH2 0x2FB1 DUP2 PUSH2 0x3CFB JUMP JUMPDEST SWAP3 SWAP2 POP POP JUMP JUMPDEST PUSH1 0x0 DUP2 MLOAD SWAP1 POP PUSH2 0x2FC6 DUP2 PUSH2 0x3D12 JUMP JUMPDEST SWAP3 SWAP2 POP POP JUMP JUMPDEST PUSH1 0x0 DUP2 CALLDATALOAD SWAP1 POP PUSH2 0x2FDB DUP2 PUSH2 0x3D29 JUMP JUMPDEST SWAP3 SWAP2 POP POP JUMP JUMPDEST PUSH1 0x0 DUP2 CALLDATALOAD SWAP1 POP PUSH2 0x2FF0 DUP2 PUSH2 0x3D40 JUMP JUMPDEST SWAP3 SWAP2 POP POP JUMP JUMPDEST PUSH1 0x0 DUP2 CALLDATALOAD SWAP1 POP PUSH2 0x3005 DUP2 PUSH2 0x3D57 JUMP JUMPDEST SWAP3 SWAP2 POP POP JUMP JUMPDEST PUSH1 0x0 DUP2 MLOAD SWAP1 POP PUSH2 0x301A DUP2 PUSH2 0x3D57 JUMP JUMPDEST SWAP3 SWAP2 POP POP JUMP JUMPDEST PUSH1 0x0 DUP2 CALLDATALOAD SWAP1 POP PUSH2 0x302F DUP2 PUSH2 0x3D6E JUMP JUMPDEST SWAP3 SWAP2 POP POP JUMP JUMPDEST PUSH1 0x0 PUSH1 0x20 DUP3 DUP5 SUB SLT ISZERO PUSH2 0x3047 JUMPI PUSH1 0x0 DUP1 REVERT JUMPDEST PUSH1 0x0 PUSH2 0x3055 DUP5 DUP3 DUP6 ADD PUSH2 0x2F8D JUMP JUMPDEST SWAP2 POP POP SWAP3 SWAP2 POP POP JUMP JUMPDEST PUSH1 0x0 PUSH1 0x20 DUP3 DUP5 SUB SLT ISZERO PUSH2 0x3070 JUMPI PUSH1 0x0 DUP1 REVERT JUMPDEST PUSH1 0x0 PUSH2 0x307E DUP5 DUP3 DUP6 ADD PUSH2 0x2FA2 JUMP JUMPDEST SWAP2 POP POP SWAP3 SWAP2 POP POP JUMP JUMPDEST PUSH1 0x0 DUP1 PUSH1 0x40 DUP4 DUP6 SUB SLT ISZERO PUSH2 0x309A JUMPI PUSH1 0x0 DUP1 REVERT JUMPDEST PUSH1 0x0 PUSH2 0x30A8 DUP6 DUP3 DUP7 ADD PUSH2 0x2F8D JUMP JUMPDEST SWAP3 POP POP PUSH1 0x20 PUSH2 0x30B9 DUP6 DUP3 DUP7 ADD PUSH2 0x2F8D JUMP JUMPDEST SWAP2 POP POP SWAP3 POP SWAP3 SWAP1 POP JUMP JUMPDEST PUSH1 0x0 DUP1 PUSH1 0x0 DUP1 PUSH1 0x80 DUP6 DUP8 SUB SLT ISZERO PUSH2 0x30D9 JUMPI PUSH1 0x0 DUP1 REVERT JUMPDEST PUSH1 0x0 PUSH2 0x30E7 DUP8 DUP3 DUP9 ADD PUSH2 0x2F8D JUMP JUMPDEST SWAP5 POP POP PUSH1 0x20 PUSH2 0x30F8 DUP8 DUP3 DUP9 ADD PUSH2 0x2F8D JUMP JUMPDEST SWAP4 POP POP PUSH1 0x40 PUSH2 0x3109 DUP8 DUP3 DUP9 ADD PUSH2 0x2F8D JUMP JUMPDEST SWAP3 POP POP PUSH1 0x60 PUSH2 0x311A DUP8 DUP3 DUP9 ADD PUSH2 0x2FF6 JUMP JUMPDEST SWAP2 POP POP SWAP3 SWAP6 SWAP2 SWAP5 POP SWAP3 POP JUMP JUMPDEST PUSH1 0x0 DUP1 PUSH1 0x0 PUSH1 0x60 DUP5 DUP7 SUB SLT ISZERO PUSH2 0x313B JUMPI PUSH1 0x0 DUP1 REVERT JUMPDEST PUSH1 0x0 PUSH2 0x3149 DUP7 DUP3 DUP8 ADD PUSH2 0x2F8D JUMP JUMPDEST SWAP4 POP POP PUSH1 0x20 PUSH2 0x315A DUP7 DUP3 DUP8 ADD PUSH2 0x2FCC JUMP JUMPDEST SWAP3 POP POP PUSH1 0x40 PUSH2 0x316B DUP7 DUP3 DUP8 ADD PUSH2 0x2F8D JUMP JUMPDEST SWAP2 POP POP SWAP3 POP SWAP3 POP SWAP3 JUMP JUMPDEST PUSH1 0x0 PUSH1 0x20 DUP3 DUP5 SUB SLT ISZERO PUSH2 0x3187 JUMPI PUSH1 0x0 DUP1 REVERT JUMPDEST PUSH1 0x0 PUSH2 0x3195 DUP5 DUP3 DUP6 ADD PUSH2 0x2FB7 JUMP JUMPDEST SWAP2 POP POP SWAP3 SWAP2 POP POP JUMP JUMPDEST PUSH1 0x0 PUSH1 0x20 DUP3 DUP5 SUB SLT ISZERO PUSH2 0x31B0 JUMPI PUSH1 0x0 DUP1 REVERT JUMPDEST PUSH1 0x0 PUSH2 0x31BE DUP5 DUP3 DUP6 ADD PUSH2 0x2FCC JUMP JUMPDEST SWAP2 POP POP SWAP3 SWAP2 POP POP JUMP JUMPDEST PUSH1 0x0 DUP1 PUSH1 0x40 DUP4 DUP6 SUB SLT ISZERO PUSH2 0x31DA JUMPI PUSH1 0x0 DUP1 REVERT JUMPDEST PUSH1 0x0 PUSH2 0x31E8 DUP6 DUP3 DUP7 ADD PUSH2 0x2FCC JUMP JUMPDEST SWAP3 POP POP PUSH1 0x20 PUSH2 0x31F9 DUP6 DUP3 DUP7 ADD PUSH2 0x2FCC JUMP JUMPDEST SWAP2 POP POP SWAP3 POP SWAP3 SWAP1 POP JUMP JUMPDEST PUSH1 0x0 DUP1 PUSH1 0x0 PUSH1 0x60 DUP5 DUP7 SUB SLT ISZERO PUSH2 0x3218 JUMPI PUSH1 0x0 DUP1 REVERT JUMPDEST PUSH1 0x0 PUSH2 0x3226 DUP7 DUP3 DUP8 ADD PUSH2 0x2FCC JUMP JUMPDEST SWAP4 POP POP PUSH1 0x20 PUSH2 0x3237 DUP7 DUP3 DUP8 ADD PUSH2 0x2FCC JUMP JUMPDEST SWAP3 POP POP PUSH1 0x40 PUSH2 0x3248 DUP7 DUP3 DUP8 ADD PUSH2 0x2F8D JUMP JUMPDEST SWAP2 POP POP SWAP3 POP SWAP3 POP SWAP3 JUMP JUMPDEST PUSH1 0x0 PUSH1 0x20 DUP3 DUP5 SUB SLT ISZERO PUSH2 0x3264 JUMPI PUSH1 0x0 DUP1 REVERT JUMPDEST PUSH1 0x0 PUSH2 0x3272 DUP5 DUP3 DUP6 ADD PUSH2 0x2FE1 JUMP JUMPDEST SWAP2 POP POP SWAP3 SWAP2 POP POP JUMP JUMPDEST PUSH1 0x0 DUP1 PUSH1 0x0 DUP1 PUSH1 0x80 DUP6 DUP8 SUB SLT ISZERO PUSH2 0x3291 JUMPI PUSH1 0x0 DUP1 REVERT JUMPDEST PUSH1 0x0 PUSH2 0x329F DUP8 DUP3 DUP9 ADD PUSH2 0x2FE1 JUMP JUMPDEST SWAP5 POP POP PUSH1 0x20 PUSH2 0x32B0 DUP8 DUP3 DUP9 ADD PUSH2 0x2FCC JUMP JUMPDEST SWAP4 POP POP PUSH1 0x40 PUSH2 0x32C1 DUP8 DUP3 DUP9 ADD PUSH2 0x2FF6 JUMP JUMPDEST SWAP3 POP POP PUSH1 0x60 PUSH2 0x32D2 DUP8 DUP3 DUP9 ADD PUSH2 0x2F8D JUMP JUMPDEST SWAP2 POP POP SWAP3 SWAP6 SWAP2 SWAP5 POP SWAP3 POP JUMP JUMPDEST PUSH1 0x0 DUP1 PUSH1 0x0 DUP1 PUSH1 0x0 PUSH1 0xA0 DUP7 DUP9 SUB SLT ISZERO PUSH2 0x32F6 JUMPI PUSH1 0x0 DUP1 REVERT JUMPDEST PUSH1 0x0 PUSH2 0x3304 DUP9 DUP3 DUP10 ADD PUSH2 0x2FE1 JUMP JUMPDEST SWAP6 POP POP PUSH1 0x20 PUSH2 0x3315 DUP9 DUP3 DUP10 ADD PUSH2 0x3020 JUMP JUMPDEST SWAP5 POP POP PUSH1 0x40 PUSH2 0x3326 DUP9 DUP3 DUP10 ADD PUSH2 0x2F8D JUMP JUMPDEST SWAP4 POP POP PUSH1 0x60 PUSH2 0x3337 DUP9 DUP3 DUP10 ADD PUSH2 0x2FF6 JUMP JUMPDEST SWAP3 POP POP PUSH1 0x80 PUSH2 0x3348 DUP9 DUP3 DUP10 ADD PUSH2 0x2FCC JUMP JUMPDEST SWAP2 POP POP SWAP3 SWAP6 POP SWAP3 SWAP6 SWAP1 SWAP4 POP JUMP JUMPDEST PUSH1 0x0 DUP1 PUSH1 0x0 PUSH1 0x60 DUP5 DUP7 SUB SLT ISZERO PUSH2 0x336A JUMPI PUSH1 0x0 DUP1 REVERT JUMPDEST PUSH1 0x0 PUSH2 0x3378 DUP7 DUP3 DUP8 ADD PUSH2 0x2FE1 JUMP JUMPDEST SWAP4 POP POP PUSH1 0x20 PUSH2 0x3389 DUP7 DUP3 DUP8 ADD PUSH2 0x3020 JUMP JUMPDEST SWAP3 POP POP PUSH1 0x40 PUSH2 0x339A DUP7 DUP3 DUP8 ADD PUSH2 0x2FCC JUMP JUMPDEST SWAP2 POP POP SWAP3 POP SWAP3 POP SWAP3 JUMP JUMPDEST PUSH1 0x0 DUP1 PUSH1 0x0 DUP1 PUSH1 0x0 PUSH1 0xA0 DUP7 DUP9 SUB SLT ISZERO PUSH2 0x33BC JUMPI PUSH1 0x0 DUP1 REVERT JUMPDEST PUSH1 0x0 PUSH2 0x33CA DUP9 DUP3 DUP10 ADD PUSH2 0x2FE1 JUMP JUMPDEST SWAP6 POP POP PUSH1 0x20 PUSH2 0x33DB DUP9 DUP3 DUP10 ADD PUSH2 0x3020 JUMP JUMPDEST SWAP5 POP POP PUSH1 0x40 PUSH2 0x33EC DUP9 DUP3 DUP10 ADD PUSH2 0x2FCC JUMP JUMPDEST SWAP4 POP POP PUSH1 0x60 PUSH2 0x33FD DUP9 DUP3 DUP10 ADD PUSH2 0x2F8D JUMP JUMPDEST SWAP3 POP POP PUSH1 0x80 PUSH2 0x340E DUP9 DUP3 DUP10 ADD PUSH2 0x2FF6 JUMP JUMPDEST SWAP2 POP POP SWAP3 SWAP6 POP SWAP3 SWAP6 SWAP1 SWAP4 POP JUMP JUMPDEST PUSH1 0x0 PUSH1 0x20 DUP3 DUP5 SUB SLT ISZERO PUSH2 0x342D JUMPI PUSH1 0x0 DUP1 REVERT JUMPDEST PUSH1 0x0 PUSH2 0x343B DUP5 DUP3 DUP6 ADD PUSH2 0x2FF6 JUMP JUMPDEST SWAP2 POP POP SWAP3 SWAP2 POP POP JUMP JUMPDEST PUSH1 0x0 PUSH1 0x20 DUP3 DUP5 SUB SLT ISZERO PUSH2 0x3456 JUMPI PUSH1 0x0 DUP1 REVERT JUMPDEST PUSH1 0x0 PUSH2 0x3464 DUP5 DUP3 DUP6 ADD PUSH2 0x300B JUMP JUMPDEST SWAP2 POP POP SWAP3 SWAP2 POP POP JUMP JUMPDEST PUSH1 0x0 DUP1 PUSH1 0x40 DUP4 DUP6 SUB SLT ISZERO PUSH2 0x3480 JUMPI PUSH1 0x0 DUP1 REVERT JUMPDEST PUSH1 0x0 PUSH2 0x348E DUP6 DUP3 DUP7 ADD PUSH2 0x2FF6 JUMP JUMPDEST SWAP3 POP POP PUSH1 0x20 PUSH2 0x349F DUP6 DUP3 DUP7 ADD PUSH2 0x2FF6 JUMP JUMPDEST SWAP2 POP POP SWAP3 POP SWAP3 SWAP1 POP JUMP JUMPDEST PUSH1 0x0 DUP1 PUSH1 0x40 DUP4 DUP6 SUB SLT ISZERO PUSH2 0x34BC JUMPI PUSH1 0x0 DUP1 REVERT JUMPDEST PUSH1 0x0 PUSH2 0x34CA DUP6 DUP3 DUP7 ADD PUSH2 0x3020 JUMP JUMPDEST SWAP3 POP POP PUSH1 0x20 PUSH2 0x34DB DUP6 DUP3 DUP7 ADD PUSH2 0x2FE1 JUMP JUMPDEST SWAP2 POP POP SWAP3 POP SWAP3 SWAP1 POP JUMP JUMPDEST PUSH1 0x0 PUSH2 0x34F1 DUP4 DUP4 PUSH2 0x350C JUMP JUMPDEST PUSH1 0x20 DUP4 ADD SWAP1 POP SWAP3 SWAP2 POP POP JUMP JUMPDEST PUSH2 0x3506 DUP2 PUSH2 0x3C62 JUMP JUMPDEST DUP3 MSTORE POP POP JUMP JUMPDEST PUSH2 0x3515 DUP2 PUSH2 0x3BBD JUMP JUMPDEST DUP3 MSTORE POP POP JUMP JUMPDEST PUSH2 0x3524 DUP2 PUSH2 0x3BBD JUMP JUMPDEST DUP3 MSTORE POP POP JUMP JUMPDEST PUSH1 0x0 PUSH2 0x3535 DUP3 PUSH2 0x3B51 JUMP JUMPDEST PUSH2 0x353F DUP2 DUP6 PUSH2 0x3B8A JUMP JUMPDEST SWAP4 POP PUSH2 0x354A DUP4 PUSH2 0x3B41 JUMP JUMPDEST DUP1 PUSH1 0x0 JUMPDEST DUP4 DUP2 LT ISZERO PUSH2 0x357B JUMPI DUP2 MLOAD PUSH2 0x3562 DUP9 DUP3 PUSH2 0x34E5 JUMP JUMPDEST SWAP8 POP PUSH2 0x356D DUP4 PUSH2 0x3B7D JUMP JUMPDEST SWAP3 POP POP PUSH1 0x1 DUP2 ADD SWAP1 POP PUSH2 0x354E JUMP JUMPDEST POP DUP6 SWAP4 POP POP POP POP SWAP3 SWAP2 POP POP JUMP JUMPDEST PUSH2 0x3591 DUP2 PUSH2 0x3BCF JUMP JUMPDEST DUP3 MSTORE POP POP JUMP JUMPDEST PUSH2 0x35A0 DUP2 PUSH2 0x3BDB JUMP JUMPDEST DUP3 MSTORE POP POP JUMP JUMPDEST PUSH2 0x35AF DUP2 PUSH2 0x3BDB JUMP JUMPDEST DUP3 MSTORE POP POP JUMP JUMPDEST PUSH2 0x35BE DUP2 PUSH2 0x3BE5 JUMP JUMPDEST DUP3 MSTORE POP POP JUMP JUMPDEST PUSH1 0x0 PUSH2 0x35CF DUP3 PUSH2 0x3B67 JUMP JUMPDEST PUSH2 0x35D9 DUP2 DUP6 PUSH2 0x3B9B JUMP JUMPDEST SWAP4 POP PUSH2 0x35E9 DUP2 DUP6 PUSH1 0x20 DUP7 ADD PUSH2 0x3CAA JUMP JUMPDEST PUSH2 0x35F2 DUP2 PUSH2 0x3CDD JUMP JUMPDEST DUP5 ADD SWAP2 POP POP SWAP3 SWAP2 POP POP JUMP JUMPDEST PUSH1 0x0 PUSH2 0x3608 DUP3 PUSH2 0x3B5C JUMP JUMPDEST PUSH2 0x3612 DUP2 DUP6 PUSH2 0x3B9B JUMP JUMPDEST SWAP4 POP PUSH2 0x3622 DUP2 DUP6 PUSH1 0x20 DUP7 ADD PUSH2 0x3CAA JUMP JUMPDEST PUSH2 0x362B DUP2 PUSH2 0x3CDD JUMP JUMPDEST DUP5 ADD SWAP2 POP POP SWAP3 SWAP2 POP POP JUMP JUMPDEST PUSH2 0x363F DUP2 PUSH2 0x3C74 JUMP JUMPDEST DUP3 MSTORE POP POP JUMP JUMPDEST PUSH2 0x364E DUP2 PUSH2 0x3C74 JUMP JUMPDEST DUP3 MSTORE POP POP JUMP JUMPDEST PUSH1 0x0 PUSH2 0x365F DUP3 PUSH2 0x3B72 JUMP JUMPDEST PUSH2 0x3669 DUP2 DUP6 PUSH2 0x3BAC JUMP JUMPDEST SWAP4 POP PUSH2 0x3679 DUP2 DUP6 PUSH1 0x20 DUP7 ADD PUSH2 0x3CAA JUMP JUMPDEST PUSH2 0x3682 DUP2 PUSH2 0x3CDD JUMP JUMPDEST DUP5 ADD SWAP2 POP POP SWAP3 SWAP2 POP POP JUMP JUMPDEST PUSH1 0x0 PUSH1 0xC0 DUP4 ADD PUSH1 0x0 DUP4 ADD MLOAD PUSH2 0x36A5 PUSH1 0x0 DUP7 ADD DUP3 PUSH2 0x3597 JUMP JUMPDEST POP PUSH1 0x20 DUP4 ADD MLOAD PUSH2 0x36B8 PUSH1 0x20 DUP7 ADD DUP3 PUSH2 0x3597 JUMP JUMPDEST POP PUSH1 0x40 DUP4 ADD MLOAD DUP5 DUP3 SUB PUSH1 0x40 DUP7 ADD MSTORE PUSH2 0x36D0 DUP3 DUP3 PUSH2 0x352A JUMP JUMPDEST SWAP2 POP POP PUSH1 0x60 DUP4 ADD MLOAD DUP5 DUP3 SUB PUSH1 0x60 DUP7 ADD MSTORE PUSH2 0x36EA DUP3 DUP3 PUSH2 0x352A JUMP JUMPDEST SWAP2 POP POP PUSH1 0x80 DUP4 ADD MLOAD PUSH2 0x36FF PUSH1 0x80 DUP7 ADD DUP3 PUSH2 0x3636 JUMP JUMPDEST POP PUSH1 0xA0 DUP4 ADD MLOAD PUSH2 0x3712 PUSH1 0xA0 DUP7 ADD DUP3 PUSH2 0x371D JUMP JUMPDEST POP DUP1 SWAP2 POP POP SWAP3 SWAP2 POP POP JUMP JUMPDEST PUSH2 0x3726 DUP2 PUSH2 0x3C44 JUMP JUMPDEST DUP3 MSTORE POP POP JUMP JUMPDEST PUSH2 0x3735 DUP2 PUSH2 0x3C44 JUMP JUMPDEST DUP3 MSTORE POP POP JUMP JUMPDEST PUSH2 0x3744 DUP2 PUSH2 0x3C4E JUMP JUMPDEST DUP3 MSTORE POP POP JUMP JUMPDEST PUSH1 0x0 PUSH1 0x20 DUP3 ADD SWAP1 POP PUSH2 0x375F PUSH1 0x0 DUP4 ADD DUP5 PUSH2 0x351B JUMP JUMPDEST SWAP3 SWAP2 POP POP JUMP JUMPDEST PUSH1 0x0 PUSH1 0x20 DUP3 ADD SWAP1 POP PUSH2 0x377A PUSH1 0x0 DUP4 ADD DUP5 PUSH2 0x34FD JUMP JUMPDEST SWAP3 SWAP2 POP POP JUMP JUMPDEST PUSH1 0x0 PUSH1 0x40 DUP3 ADD SWAP1 POP PUSH2 0x3795 PUSH1 0x0 DUP4 ADD DUP6 PUSH2 0x34FD JUMP JUMPDEST PUSH2 0x37A2 PUSH1 0x20 DUP4 ADD DUP5 PUSH2 0x372C JUMP JUMPDEST SWAP4 SWAP3 POP POP POP JUMP JUMPDEST PUSH1 0x0 PUSH1 0x60 DUP3 ADD SWAP1 POP PUSH2 0x37BE PUSH1 0x0 DUP4 ADD DUP7 PUSH2 0x351B JUMP JUMPDEST PUSH2 0x37CB PUSH1 0x20 DUP4 ADD DUP6 PUSH2 0x351B JUMP JUMPDEST PUSH2 0x37D8 PUSH1 0x40 DUP4 ADD DUP5 PUSH2 0x372C JUMP JUMPDEST SWAP5 SWAP4 POP POP POP POP JUMP JUMPDEST PUSH1 0x0 PUSH1 0x40 DUP3 ADD SWAP1 POP PUSH2 0x37F5 PUSH1 0x0 DUP4 ADD DUP6 PUSH2 0x351B JUMP JUMPDEST DUP2 DUP2 SUB PUSH1 0x20 DUP4 ADD MSTORE PUSH2 0x3807 DUP2 DUP5 PUSH2 0x35C4 JUMP JUMPDEST SWAP1 POP SWAP4 SWAP3 POP POP POP JUMP JUMPDEST PUSH1 0x0 PUSH1 0x20 DUP3 ADD SWAP1 POP PUSH2 0x3825 PUSH1 0x0 DUP4 ADD DUP5 PUSH2 0x3588 JUMP JUMPDEST SWAP3 SWAP2 POP POP JUMP JUMPDEST PUSH1 0x0 PUSH1 0x40 DUP3 ADD SWAP1 POP PUSH2 0x3840 PUSH1 0x0 DUP4 ADD DUP6 PUSH2 0x35A6 JUMP JUMPDEST PUSH2 0x384D PUSH1 0x20 DUP4 ADD DUP5 PUSH2 0x351B JUMP JUMPDEST SWAP4 SWAP3 POP POP POP JUMP JUMPDEST PUSH1 0x0 PUSH1 0x60 DUP3 ADD SWAP1 POP PUSH2 0x3869 PUSH1 0x0 DUP4 ADD DUP7 PUSH2 0x35A6 JUMP JUMPDEST PUSH2 0x3876 PUSH1 0x20 DUP4 ADD DUP6 PUSH2 0x351B JUMP JUMPDEST PUSH2 0x3883 PUSH1 0x40 DUP4 ADD DUP5 PUSH2 0x372C JUMP JUMPDEST SWAP5 SWAP4 POP POP POP POP JUMP JUMPDEST PUSH1 0x0 PUSH1 0x80 DUP3 ADD SWAP1 POP PUSH2 0x38A0 PUSH1 0x0 DUP4 ADD DUP8 PUSH2 0x35A6 JUMP JUMPDEST PUSH2 0x38AD PUSH1 0x20 DUP4 ADD DUP7 PUSH2 0x35A6 JUMP JUMPDEST PUSH2 0x38BA PUSH1 0x40 DUP4 ADD DUP6 PUSH2 0x3645 JUMP JUMPDEST PUSH2 0x38C7 PUSH1 0x60 DUP4 ADD DUP5 PUSH2 0x372C JUMP JUMPDEST SWAP6 SWAP5 POP POP POP POP POP JUMP JUMPDEST PUSH1 0x0 PUSH1 0xC0 DUP3 ADD SWAP1 POP PUSH2 0x38E5 PUSH1 0x0 DUP4 ADD DUP10 PUSH2 0x35A6 JUMP JUMPDEST PUSH2 0x38F2 PUSH1 0x20 DUP4 ADD DUP9 PUSH2 0x35B5 JUMP JUMPDEST PUSH2 0x38FF PUSH1 0x40 DUP4 ADD DUP8 PUSH2 0x373B JUMP JUMPDEST PUSH2 0x390C PUSH1 0x60 DUP4 ADD DUP7 PUSH2 0x34FD JUMP JUMPDEST PUSH2 0x3919 PUSH1 0x80 DUP4 ADD DUP6 PUSH2 0x351B JUMP JUMPDEST PUSH2 0x3926 PUSH1 0xA0 DUP4 ADD DUP5 PUSH2 0x372C JUMP JUMPDEST SWAP8 SWAP7 POP POP POP POP POP POP POP JUMP JUMPDEST PUSH1 0x0 PUSH1 0x20 DUP3 ADD SWAP1 POP PUSH2 0x3946 PUSH1 0x0 DUP4 ADD DUP5 PUSH2 0x35B5 JUMP JUMPDEST SWAP3 SWAP2 POP POP JUMP JUMPDEST PUSH1 0x0 PUSH1 0xE0 DUP3 ADD SWAP1 POP PUSH2 0x3961 PUSH1 0x0 DUP4 ADD DUP11 PUSH2 0x35B5 JUMP JUMPDEST PUSH2 0x396E PUSH1 0x20 DUP4 ADD DUP10 PUSH2 0x35A6 JUMP JUMPDEST PUSH2 0x397B PUSH1 0x40 DUP4 ADD DUP9 PUSH2 0x373B JUMP JUMPDEST PUSH2 0x3988 PUSH1 0x60 DUP4 ADD DUP8 PUSH2 0x34FD JUMP JUMPDEST PUSH2 0x3995 PUSH1 0x80 DUP4 ADD DUP7 PUSH2 0x351B JUMP JUMPDEST PUSH2 0x39A2 PUSH1 0xA0 DUP4 ADD DUP6 PUSH2 0x351B JUMP JUMPDEST PUSH2 0x39AF PUSH1 0xC0 DUP4 ADD DUP5 PUSH2 0x372C JUMP JUMPDEST SWAP9 SWAP8 POP POP POP POP POP POP POP POP JUMP JUMPDEST PUSH1 0x0 PUSH1 0x80 DUP3 ADD SWAP1 POP PUSH2 0x39D0 PUSH1 0x0 DUP4 ADD DUP8 PUSH2 0x35B5 JUMP JUMPDEST PUSH2 0x39DD PUSH1 0x20 DUP4 ADD DUP7 PUSH2 0x373B JUMP JUMPDEST PUSH2 0x39EA PUSH1 0x40 DUP4 ADD DUP6 PUSH2 0x3645 JUMP JUMPDEST PUSH2 0x39F7 PUSH1 0x60 DUP4 ADD DUP5 PUSH2 0x35A6 JUMP JUMPDEST SWAP6 SWAP5 POP POP POP POP POP JUMP JUMPDEST PUSH1 0x0 PUSH1 0xA0 DUP3 ADD SWAP1 POP PUSH2 0x3A15 PUSH1 0x0 DUP4 ADD DUP9 PUSH2 0x35B5 JUMP JUMPDEST PUSH2 0x3A22 PUSH1 0x20 DUP4 ADD DUP8 PUSH2 0x373B JUMP JUMPDEST PUSH2 0x3A2F PUSH1 0x40 DUP4 ADD DUP7 PUSH2 0x3645 JUMP JUMPDEST PUSH2 0x3A3C PUSH1 0x60 DUP4 ADD DUP6 PUSH2 0x35A6 JUMP JUMPDEST PUSH2 0x3A49 PUSH1 0x80 DUP4 ADD DUP5 PUSH2 0x35A6 JUMP JUMPDEST SWAP7 SWAP6 POP POP POP POP POP POP JUMP JUMPDEST PUSH1 0x0 PUSH1 0x20 DUP3 ADD SWAP1 POP DUP2 DUP2 SUB PUSH1 0x0 DUP4 ADD MSTORE PUSH2 0x3A6D DUP2 DUP5 PUSH2 0x35FD JUMP JUMPDEST SWAP1 POP SWAP3 SWAP2 POP POP JUMP JUMPDEST PUSH1 0x0 PUSH1 0x20 DUP3 ADD SWAP1 POP DUP2 DUP2 SUB PUSH1 0x0 DUP4 ADD MSTORE PUSH2 0x3A8F DUP2 DUP5 PUSH2 0x3654 JUMP JUMPDEST SWAP1 POP SWAP3 SWAP2 POP POP JUMP JUMPDEST PUSH1 0x0 PUSH1 0x20 DUP3 ADD SWAP1 POP DUP2 DUP2 SUB PUSH1 0x0 DUP4 ADD MSTORE PUSH2 0x3AB1 DUP2 DUP5 PUSH2 0x368D JUMP JUMPDEST SWAP1 POP SWAP3 SWAP2 POP POP JUMP JUMPDEST PUSH1 0x0 PUSH1 0x20 DUP3 ADD SWAP1 POP PUSH2 0x3ACE PUSH1 0x0 DUP4 ADD DUP5 PUSH2 0x372C JUMP JUMPDEST SWAP3 SWAP2 POP POP JUMP JUMPDEST PUSH1 0x0 PUSH1 0x40 DUP3 ADD SWAP1 POP PUSH2 0x3AE9 PUSH1 0x0 DUP4 ADD DUP6 PUSH2 0x372C JUMP JUMPDEST PUSH2 0x3AF6 PUSH1 0x20 DUP4 ADD DUP5 PUSH2 0x351B JUMP JUMPDEST SWAP4 SWAP3 POP POP POP JUMP JUMPDEST PUSH1 0x0 PUSH1 0x20 DUP3 ADD SWAP1 POP PUSH2 0x3B12 PUSH1 0x0 DUP4 ADD DUP5 PUSH2 0x373B JUMP JUMPDEST SWAP3 SWAP2 POP POP JUMP JUMPDEST PUSH1 0x0 PUSH1 0x40 DUP3 ADD SWAP1 POP PUSH2 0x3B2D PUSH1 0x0 DUP4 ADD DUP6 PUSH2 0x373B JUMP JUMPDEST PUSH2 0x3B3A PUSH1 0x20 DUP4 ADD DUP5 PUSH2 0x35B5 JUMP JUMPDEST SWAP4 SWAP3 POP POP POP JUMP JUMPDEST PUSH1 0x0 DUP2 SWAP1 POP PUSH1 0x20 DUP3 ADD SWAP1 POP SWAP2 SWAP1 POP JUMP JUMPDEST PUSH1 0x0 DUP2 MLOAD SWAP1 POP SWAP2 SWAP1 POP JUMP JUMPDEST PUSH1 0x0 DUP2 MLOAD SWAP1 POP SWAP2 SWAP1 POP JUMP JUMPDEST PUSH1 0x0 DUP2 MLOAD SWAP1 POP SWAP2 SWAP1 POP JUMP JUMPDEST PUSH1 0x0 DUP2 MLOAD SWAP1 POP SWAP2 SWAP1 POP JUMP JUMPDEST PUSH1 0x0 PUSH1 0x20 DUP3 ADD SWAP1 POP SWAP2 SWAP1 POP JUMP JUMPDEST PUSH1 0x0 DUP3 DUP3 MSTORE PUSH1 0x20 DUP3 ADD SWAP1 POP SWAP3 SWAP2 POP POP JUMP JUMPDEST PUSH1 0x0 DUP3 DUP3 MSTORE PUSH1 0x20 DUP3 ADD SWAP1 POP SWAP3 SWAP2 POP POP JUMP JUMPDEST PUSH1 0x0 DUP3 DUP3 MSTORE PUSH1 0x20 DUP3 ADD SWAP1 POP SWAP3 SWAP2 POP POP JUMP JUMPDEST PUSH1 0x0 PUSH2 0x3BC8 DUP3 PUSH2 0x3C24 JUMP JUMPDEST SWAP1 POP SWAP2 SWAP1 POP JUMP JUMPDEST PUSH1 0x0 DUP2 ISZERO ISZERO SWAP1 POP SWAP2 SWAP1 POP JUMP JUMPDEST PUSH1 0x0 DUP2 SWAP1 POP SWAP2 SWAP1 POP JUMP JUMPDEST PUSH1 0x0 PUSH32 0xFFFFFFFFFFFFFFFF000000000000000000000000000000000000000000000000 DUP3 AND SWAP1 POP SWAP2 SWAP1 POP JUMP JUMPDEST PUSH1 0x0 DUP2 SWAP1 POP PUSH2 0x3C1F DUP3 PUSH2 0x3CEE JUMP JUMPDEST SWAP2 SWAP1 POP JUMP JUMPDEST PUSH1 0x0 PUSH20 0xFFFFFFFFFFFFFFFFFFFFFFFFFFFFFFFFFFFFFFFF DUP3 AND SWAP1 POP SWAP2 SWAP1 POP JUMP JUMPDEST PUSH1 0x0 DUP2 SWAP1 POP SWAP2 SWAP1 POP JUMP JUMPDEST PUSH1 0x0 PUSH8 0xFFFFFFFFFFFFFFFF DUP3 AND SWAP1 POP SWAP2 SWAP1 POP JUMP JUMPDEST PUSH1 0x0 PUSH2 0x3C6D DUP3 PUSH2 0x3C86 JUMP JUMPDEST SWAP1 POP SWAP2 SWAP1 POP JUMP JUMPDEST PUSH1 0x0 PUSH2 0x3C7F DUP3 PUSH2 0x3C11 JUMP JUMPDEST SWAP1 POP SWAP2 SWAP1 POP JUMP JUMPDEST PUSH1 0x0 PUSH2 0x3C91 DUP3 PUSH2 0x3C98 JUMP JUMPDEST SWAP1 POP SWAP2 SWAP1 POP JUMP JUMPDEST PUSH1 0x0 PUSH2 0x3CA3 DUP3 PUSH2 0x3C24 JUMP JUMPDEST SWAP1 POP SWAP2 SWAP1 POP JUMP JUMPDEST PUSH1 0x0 JUMPDEST DUP4 DUP2 LT ISZERO PUSH2 0x3CC8 JUMPI DUP1 DUP3 ADD MLOAD DUP2 DUP5 ADD MSTORE PUSH1 0x20 DUP2 ADD SWAP1 POP PUSH2 0x3CAD JUMP JUMPDEST DUP4 DUP2 GT ISZERO PUSH2 0x3CD7 JUMPI PUSH1 0x0 DUP5 DUP5 ADD MSTORE JUMPDEST POP POP POP POP JUMP JUMPDEST PUSH1 0x0 PUSH1 0x1F NOT PUSH1 0x1F DUP4 ADD AND SWAP1 POP SWAP2 SWAP1 POP JUMP JUMPDEST PUSH1 0x5 DUP2 LT PUSH2 0x3CF8 JUMPI INVALID JUMPDEST POP JUMP JUMPDEST PUSH2 0x3D04 DUP2 PUSH2 0x3BBD JUMP JUMPDEST DUP2 EQ PUSH2 0x3D0F JUMPI PUSH1 0x0 DUP1 REVERT JUMPDEST POP JUMP JUMPDEST PUSH2 0x3D1B DUP2 PUSH2 0x3BCF JUMP JUMPDEST DUP2 EQ PUSH2 0x3D26 JUMPI PUSH1 0x0 DUP1 REVERT JUMPDEST POP JUMP JUMPDEST PUSH2 0x3D32 DUP2 PUSH2 0x3BDB JUMP JUMPDEST DUP2 EQ PUSH2 0x3D3D JUMPI PUSH1 0x0 DUP1 REVERT JUMPDEST POP JUMP JUMPDEST PUSH2 0x3D49 DUP2 PUSH2 0x3BE5 JUMP JUMPDEST DUP2 EQ PUSH2 0x3D54 JUMPI PUSH1 0x0 DUP1 REVERT JUMPDEST POP JUMP JUMPDEST PUSH2 0x3D60 DUP2 PUSH2 0x3C44 JUMP JUMPDEST DUP2 EQ PUSH2 0x3D6B JUMPI PUSH1 0x0 DUP1 REVERT JUMPDEST POP JUMP JUMPDEST PUSH2 0x3D77 DUP2 PUSH2 0x3C4E JUMP JUMPDEST DUP2 EQ PUSH2 0x3D82 JUMPI PUSH1 0x0 DUP1 REVERT JUMPDEST POP JUMP INVALID LOG2 PUSH5 0x6970667358 0x22 SLT KECCAK256 SLT SUB 0x4C DUP12 0xDD 0xEB 0x2E SSTORE 0xB9 0xD3 CODECOPY LOG4 PUSH14 0x329340F5E1B39A4A269FEAF13C82 0x2C 0x28 0xFB PUSH30 0x2C64736F6C63430006040033000000000000000000000000000000000000 "
		},
		"gasEstimates": {
			"creation": {
				"codeDepositCost": "3160600",
				"executionCost": "45275",
				"totalCost": "3205875"
			},
			"external": {
				"INIT_CHAINID()": "454",
				"INIT_EXPIRY()": "376",
				"INIT_FEE()": "441",
				"INIT_RELAYERTHRESHOLD()": "396",
				"_chainID()": "1332",
				"_depositCounts(bytes8)": "1571",
				"_depositRecords(uint64,bytes8)": "infinite",
				"_expiry()": "1174",
				"_fee()": "1262",
				"_hasVotedOnProposal(bytes32,bytes32,address)": "infinite",
				"_proposals(bytes32,bytes32)": "infinite",
				"_relayerHubAddress()": "1303",
				"_relayerThreshold()": "1240",
				"_resourceIDToHandlerAddress(bytes32)": "1584",
				"_totalProposals()": "1197",
				"adminChangeFee(uint256)": "25078",
				"adminChangeRelayerThreshold(uint256)": "infinite",
				"adminCollectFees(uint256)": "infinite",
				"adminPauseTransfers()": "26126",
				"adminSetBurnable(address,address)": "infinite",
				"adminSetRelayerHub(address)": "25111",
				"adminSetResource(address,bytes32,address)": "infinite",
				"adminUnpauseTransfers()": "26165",
				"adminWithdraw(address,address,address,uint256)": "infinite",
				"cancelProposal(bytes8,uint64,address,uint256,bytes32)": "infinite",
				"deposit(bytes8,bytes32,uint256,address)": "infinite",
				"executeProposal(bytes8,uint64,bytes32,address,uint256)": "infinite",
				"getProposal(bytes8,uint64,bytes32)": "infinite",
				"init()": "125466",
				"owner()": "2286",
				"paused()": "1247",
				"relayerCollectReward()": "infinite",
				"renounceOwnership()": "27325",
				"sub(uint256,uint256)": "infinite",
				"transferOwnership(address)": "27628",
				"voteProposal(bytes8,uint64,bytes32,address,uint256)": "infinite"
			},
			"internal": {
				"_onlyAdminOrRelayer()": "infinite",
				"_onlyRelayers()": "infinite"
			}
		},
		"methodIdentifiers": {
			"INIT_CHAINID()": "45fb7494",
			"INIT_EXPIRY()": "0461ce72",
			"INIT_FEE()": "82b4beec",
			"INIT_RELAYERTHRESHOLD()": "cacc26ed",
			"_chainID()": "beab7131",
			"_depositCounts(bytes8)": "174e300b",
			"_depositRecords(uint64,bytes8)": "a48ace38",
			"_expiry()": "c5ec8970",
			"_fee()": "c5b37c22",
			"_hasVotedOnProposal(bytes32,bytes32,address)": "86c99f0e",
			"_proposals(bytes32,bytes32)": "7bda741c",
			"_relayerHubAddress()": "b6d97623",
			"_relayerThreshold()": "d7a9cd79",
			"_resourceIDToHandlerAddress(bytes32)": "84db809f",
			"_totalProposals()": "9d5773e0",
			"adminChangeFee(uint256)": "91c404ac",
			"adminChangeRelayerThreshold(uint256)": "4e056005",
			"adminCollectFees(uint256)": "e77b33fd",
			"adminPauseTransfers()": "80ae1c28",
			"adminSetBurnable(address,address)": "8c0c2631",
			"adminSetRelayerHub(address)": "5d699c5d",
			"adminSetResource(address,bytes32,address)": "cb10f215",
			"adminUnpauseTransfers()": "ffaac0eb",
			"adminWithdraw(address,address,address,uint256)": "780cf004",
			"cancelProposal(bytes8,uint64,address,uint256,bytes32)": "68872644",
			"deposit(bytes8,bytes32,uint256,address)": "92b7064c",
			"executeProposal(bytes8,uint64,bytes32,address,uint256)": "b14ecafd",
			"getProposal(bytes8,uint64,bytes32)": "3c69171b",
			"init()": "e1c7392a",
			"owner()": "8da5cb5b",
			"paused()": "5c975abb",
			"relayerCollectReward()": "f408da91",
			"renounceOwnership()": "715018a6",
			"sub(uint256,uint256)": "b67d77c5",
			"transferOwnership(address)": "f2fde38b",
			"voteProposal(bytes8,uint64,bytes32,address,uint256)": "b3fc7eae"
		}
	},
	"abi": [
		{
			"anonymous": false,
			"inputs": [
				{
					"indexed": false,
					"internalType": "bytes8",
					"name": "destinationChainID",
					"type": "bytes8"
				},
				{
					"indexed": false,
					"internalType": "bytes32",
					"name": "resourceID",
					"type": "bytes32"
				},
				{
					"indexed": false,
					"internalType": "uint64",
					"name": "depositNonce",
					"type": "uint64"
				},
				{
					"indexed": false,
					"internalType": "address",
					"name": "depositor",
					"type": "address"
				},
				{
					"indexed": false,
					"internalType": "address",
					"name": "recipientAddress",
					"type": "address"
				},
				{
					"indexed": false,
					"internalType": "address",
					"name": "tokenAddress",
					"type": "address"
				},
				{
					"indexed": false,
					"internalType": "uint256",
					"name": "amount",
					"type": "uint256"
				}
			],
			"name": "Deposit",
			"type": "event"
		},
		{
			"anonymous": false,
			"inputs": [
				{
					"indexed": true,
					"internalType": "address",
					"name": "previousOwner",
					"type": "address"
				},
				{
					"indexed": true,
					"internalType": "address",
					"name": "newOwner",
					"type": "address"
				}
			],
			"name": "OwnershipTransferred",
			"type": "event"
		},
		{
			"anonymous": false,
			"inputs": [
				{
					"indexed": false,
					"internalType": "address",
					"name": "account",
					"type": "address"
				}
			],
			"name": "Paused",
			"type": "event"
		},
		{
			"anonymous": false,
			"inputs": [
				{
					"indexed": false,
					"internalType": "bytes8",
					"name": "originChainID",
					"type": "bytes8"
				},
				{
					"indexed": false,
					"internalType": "uint64",
					"name": "depositNonce",
					"type": "uint64"
				},
				{
					"indexed": false,
					"internalType": "enum Bridge.ProposalStatus",
					"name": "status",
					"type": "uint8"
				},
				{
					"indexed": false,
					"internalType": "bytes32",
					"name": "resourceID",
					"type": "bytes32"
				},
				{
					"indexed": false,
					"internalType": "bytes32",
					"name": "dataHash",
					"type": "bytes32"
				}
			],
			"name": "ProposalEvent",
			"type": "event"
		},
		{
			"anonymous": false,
			"inputs": [
				{
					"indexed": false,
					"internalType": "bytes8",
					"name": "originChainID",
					"type": "bytes8"
				},
				{
					"indexed": false,
					"internalType": "uint64",
					"name": "depositNonce",
					"type": "uint64"
				},
				{
					"indexed": false,
					"internalType": "enum Bridge.ProposalStatus",
					"name": "status",
					"type": "uint8"
				},
				{
					"indexed": false,
					"internalType": "bytes32",
					"name": "resourceID",
					"type": "bytes32"
				}
			],
			"name": "ProposalVote",
			"type": "event"
		},
		{
			"anonymous": false,
			"inputs": [
				{
					"indexed": false,
					"internalType": "uint256",
					"name": "newThreshold",
					"type": "uint256"
				}
			],
			"name": "RelayerThresholdChanged",
			"type": "event"
		},
		{
			"anonymous": false,
			"inputs": [
				{
					"indexed": false,
					"internalType": "address",
					"name": "relayer",
					"type": "address"
				},
				{
					"indexed": false,
					"internalType": "uint256",
					"name": "amount",
					"type": "uint256"
				}
			],
			"name": "RewardCollected",
			"type": "event"
		},
		{
			"anonymous": false,
			"inputs": [
				{
					"indexed": false,
					"internalType": "address",
					"name": "account",
					"type": "address"
				}
			],
			"name": "Unpaused",
			"type": "event"
		},
		{
			"inputs": [],
			"name": "INIT_CHAINID",
			"outputs": [
				{
					"internalType": "bytes8",
					"name": "",
					"type": "bytes8"
				}
			],
			"stateMutability": "view",
			"type": "function"
		},
		{
			"inputs": [],
			"name": "INIT_EXPIRY",
			"outputs": [
				{
					"internalType": "uint256",
					"name": "",
					"type": "uint256"
				}
			],
			"stateMutability": "view",
			"type": "function"
		},
		{
			"inputs": [],
			"name": "INIT_FEE",
			"outputs": [
				{
					"internalType": "uint256",
					"name": "",
					"type": "uint256"
				}
			],
			"stateMutability": "view",
			"type": "function"
		},
		{
			"inputs": [],
			"name": "INIT_RELAYERTHRESHOLD",
			"outputs": [
				{
					"internalType": "uint256",
					"name": "",
					"type": "uint256"
				}
			],
			"stateMutability": "view",
			"type": "function"
		},
		{
			"inputs": [],
			"name": "_chainID",
			"outputs": [
				{
					"internalType": "bytes8",
					"name": "",
					"type": "bytes8"
				}
			],
			"stateMutability": "view",
			"type": "function"
		},
		{
			"inputs": [
				{
					"internalType": "bytes8",
					"name": "",
					"type": "bytes8"
				}
			],
			"name": "_depositCounts",
			"outputs": [
				{
					"internalType": "uint64",
					"name": "",
					"type": "uint64"
				}
			],
			"stateMutability": "view",
			"type": "function"
		},
		{
			"inputs": [
				{
					"internalType": "uint64",
					"name": "",
					"type": "uint64"
				},
				{
					"internalType": "bytes8",
					"name": "",
					"type": "bytes8"
				}
			],
			"name": "_depositRecords",
			"outputs": [
				{
					"internalType": "bytes",
					"name": "",
					"type": "bytes"
				}
			],
			"stateMutability": "view",
			"type": "function"
		},
		{
			"inputs": [],
			"name": "_expiry",
			"outputs": [
				{
					"internalType": "uint256",
					"name": "",
					"type": "uint256"
				}
			],
			"stateMutability": "view",
			"type": "function"
		},
		{
			"inputs": [],
			"name": "_fee",
			"outputs": [
				{
					"internalType": "uint256",
					"name": "",
					"type": "uint256"
				}
			],
			"stateMutability": "view",
			"type": "function"
		},
		{
			"inputs": [
				{
					"internalType": "bytes32",
					"name": "",
					"type": "bytes32"
				},
				{
					"internalType": "bytes32",
					"name": "",
					"type": "bytes32"
				},
				{
					"internalType": "address",
					"name": "",
					"type": "address"
				}
			],
			"name": "_hasVotedOnProposal",
			"outputs": [
				{
					"internalType": "bool",
					"name": "",
					"type": "bool"
				}
			],
			"stateMutability": "view",
			"type": "function"
		},
		{
			"inputs": [
				{
					"internalType": "bytes32",
					"name": "",
					"type": "bytes32"
				},
				{
					"internalType": "bytes32",
					"name": "",
					"type": "bytes32"
				}
			],
			"name": "_proposals",
			"outputs": [
				{
					"internalType": "bytes32",
					"name": "_resourceID",
					"type": "bytes32"
				},
				{
					"internalType": "bytes32",
					"name": "_dataHash",
					"type": "bytes32"
				},
				{
					"internalType": "enum Bridge.ProposalStatus",
					"name": "_status",
					"type": "uint8"
				},
				{
					"internalType": "uint256",
					"name": "_proposedBlock",
					"type": "uint256"
				}
			],
			"stateMutability": "view",
			"type": "function"
		},
		{
			"inputs": [],
			"name": "_relayerHubAddress",
			"outputs": [
				{
					"internalType": "address",
					"name": "",
					"type": "address"
				}
			],
			"stateMutability": "view",
			"type": "function"
		},
		{
			"inputs": [],
			"name": "_relayerThreshold",
			"outputs": [
				{
					"internalType": "uint256",
					"name": "",
					"type": "uint256"
				}
			],
			"stateMutability": "view",
			"type": "function"
		},
		{
			"inputs": [
				{
					"internalType": "bytes32",
					"name": "",
					"type": "bytes32"
				}
			],
			"name": "_resourceIDToHandlerAddress",
			"outputs": [
				{
					"internalType": "address",
					"name": "",
					"type": "address"
				}
			],
			"stateMutability": "view",
			"type": "function"
		},
		{
			"inputs": [],
			"name": "_totalProposals",
			"outputs": [
				{
					"internalType": "uint256",
					"name": "",
					"type": "uint256"
				}
			],
			"stateMutability": "view",
			"type": "function"
		},
		{
			"inputs": [
				{
					"internalType": "uint256",
					"name": "newFee",
					"type": "uint256"
				}
			],
			"name": "adminChangeFee",
			"outputs": [],
			"stateMutability": "nonpayable",
			"type": "function"
		},
		{
			"inputs": [
				{
					"internalType": "uint256",
					"name": "newThreshold",
					"type": "uint256"
				}
			],
			"name": "adminChangeRelayerThreshold",
			"outputs": [],
			"stateMutability": "nonpayable",
			"type": "function"
		},
		{
			"inputs": [
				{
					"internalType": "uint256",
					"name": "amount",
					"type": "uint256"
				}
			],
			"name": "adminCollectFees",
			"outputs": [],
			"stateMutability": "nonpayable",
			"type": "function"
		},
		{
			"inputs": [],
			"name": "adminPauseTransfers",
			"outputs": [],
			"stateMutability": "nonpayable",
			"type": "function"
		},
		{
			"inputs": [
				{
					"internalType": "address",
					"name": "handlerAddress",
					"type": "address"
				},
				{
					"internalType": "address",
					"name": "tokenAddress",
					"type": "address"
				}
			],
			"name": "adminSetBurnable",
			"outputs": [],
			"stateMutability": "nonpayable",
			"type": "function"
		},
		{
			"inputs": [
				{
					"internalType": "address",
					"name": "newRelayerHub",
					"type": "address"
				}
			],
			"name": "adminSetRelayerHub",
			"outputs": [],
			"stateMutability": "nonpayable",
			"type": "function"
		},
		{
			"inputs": [
				{
					"internalType": "address",
					"name": "handlerAddress",
					"type": "address"
				},
				{
					"internalType": "bytes32",
					"name": "resourceID",
					"type": "bytes32"
				},
				{
					"internalType": "address",
					"name": "tokenAddress",
					"type": "address"
				}
			],
			"name": "adminSetResource",
			"outputs": [],
			"stateMutability": "nonpayable",
			"type": "function"
		},
		{
			"inputs": [],
			"name": "adminUnpauseTransfers",
			"outputs": [],
			"stateMutability": "nonpayable",
			"type": "function"
		},
		{
			"inputs": [
				{
					"internalType": "address",
					"name": "handlerAddress",
					"type": "address"
				},
				{
					"internalType": "address",
					"name": "tokenAddress",
					"type": "address"
				},
				{
					"internalType": "address",
					"name": "recipient",
					"type": "address"
				},
				{
					"internalType": "uint256",
					"name": "amountOrTokenID",
					"type": "uint256"
				}
			],
			"name": "adminWithdraw",
			"outputs": [],
			"stateMutability": "nonpayable",
			"type": "function"
		},
		{
			"inputs": [
				{
					"internalType": "bytes8",
					"name": "chainID",
					"type": "bytes8"
				},
				{
					"internalType": "uint64",
					"name": "depositNonce",
					"type": "uint64"
				},
				{
					"internalType": "address",
					"name": "recipientAddress",
					"type": "address"
				},
				{
					"internalType": "uint256",
					"name": "amount",
					"type": "uint256"
				},
				{
					"internalType": "bytes32",
					"name": "resourceID",
					"type": "bytes32"
				}
			],
			"name": "cancelProposal",
			"outputs": [],
			"stateMutability": "nonpayable",
			"type": "function"
		},
		{
			"inputs": [
				{
					"internalType": "bytes8",
					"name": "destinationChainID",
					"type": "bytes8"
				},
				{
					"internalType": "bytes32",
					"name": "resourceID",
					"type": "bytes32"
				},
				{
					"internalType": "uint256",
					"name": "amount",
					"type": "uint256"
				},
				{
					"internalType": "address",
					"name": "recipientAddress",
					"type": "address"
				}
			],
			"name": "deposit",
			"outputs": [],
			"stateMutability": "payable",
			"type": "function"
		},
		{
			"inputs": [
				{
					"internalType": "bytes8",
					"name": "chainID",
					"type": "bytes8"
				},
				{
					"internalType": "uint64",
					"name": "depositNonce",
					"type": "uint64"
				},
				{
					"internalType": "bytes32",
					"name": "resourceID",
					"type": "bytes32"
				},
				{
					"internalType": "address",
					"name": "recipientAddress",
					"type": "address"
				},
				{
					"internalType": "uint256",
					"name": "amount",
					"type": "uint256"
				}
			],
			"name": "executeProposal",
			"outputs": [],
			"stateMutability": "nonpayable",
			"type": "function"
		},
		{
			"inputs": [
				{
					"internalType": "bytes8",
					"name": "originChainID",
					"type": "bytes8"
				},
				{
					"internalType": "uint64",
					"name": "depositNonce",
					"type": "uint64"
				},
				{
					"internalType": "bytes32",
					"name": "dataHash",
					"type": "bytes32"
				}
			],
			"name": "getProposal",
			"outputs": [
				{
					"components": [
						{
							"internalType": "bytes32",
							"name": "_resourceID",
							"type": "bytes32"
						},
						{
							"internalType": "bytes32",
							"name": "_dataHash",
							"type": "bytes32"
						},
						{
							"internalType": "address[]",
							"name": "_yesVotes",
							"type": "address[]"
						},
						{
							"internalType": "address[]",
							"name": "_noVotes",
							"type": "address[]"
						},
						{
							"internalType": "enum Bridge.ProposalStatus",
							"name": "_status",
							"type": "uint8"
						},
						{
							"internalType": "uint256",
							"name": "_proposedBlock",
							"type": "uint256"
						}
					],
					"internalType": "struct Bridge.Proposal",
					"name": "",
					"type": "tuple"
				}
			],
			"stateMutability": "view",
			"type": "function"
		},
		{
			"inputs": [],
			"name": "init",
			"outputs": [],
			"stateMutability": "nonpayable",
			"type": "function"
		},
		{
			"inputs": [],
			"name": "owner",
			"outputs": [
				{
					"internalType": "address",
					"name": "",
					"type": "address"
				}
			],
			"stateMutability": "view",
			"type": "function"
		},
		{
			"inputs": [],
			"name": "paused",
			"outputs": [
				{
					"internalType": "bool",
					"name": "",
					"type": "bool"
				}
			],
			"stateMutability": "view",
			"type": "function"
		},
		{
			"inputs": [],
			"name": "relayerCollectReward",
			"outputs": [],
			"stateMutability": "nonpayable",
			"type": "function"
		},
		{
			"inputs": [],
			"name": "renounceOwnership",
			"outputs": [],
			"stateMutability": "nonpayable",
			"type": "function"
		},
		{
			"inputs": [
				{
					"internalType": "uint256",
					"name": "a",
					"type": "uint256"
				},
				{
					"internalType": "uint256",
					"name": "b",
					"type": "uint256"
				}
			],
			"name": "sub",
			"outputs": [
				{
					"internalType": "uint256",
					"name": "",
					"type": "uint256"
				}
			],
			"stateMutability": "pure",
			"type": "function"
		},
		{
			"inputs": [
				{
					"internalType": "address",
					"name": "newOwner",
					"type": "address"
				}
			],
			"name": "transferOwnership",
			"outputs": [],
			"stateMutability": "nonpayable",
			"type": "function"
		},
		{
			"inputs": [
				{
					"internalType": "bytes8",
					"name": "chainID",
					"type": "bytes8"
				},
				{
					"internalType": "uint64",
					"name": "depositNonce",
					"type": "uint64"
				},
				{
					"internalType": "bytes32",
					"name": "resourceID",
					"type": "bytes32"
				},
				{
					"internalType": "address",
					"name": "recipientAddress",
					"type": "address"
				},
				{
					"internalType": "uint256",
					"name": "amount",
					"type": "uint256"
				}
			],
			"name": "voteProposal",
			"outputs": [],
			"stateMutability": "nonpayable",
			"type": "function"
		}
	]
}