{
	"data": {
		"bytecode": {
			"linkReferences": {},
			"object": "6080604052348015600f57600080fd5b5060be8061001e6000396000f3fe6080604052348015600f57600080fd5b506004361060285760003560e01c8063c95cf0d814602d575b600080fd5b605660048036036020811015604157600080fd5b81019080803590602001909291905050506058565b005b807f29ab08c845830c69b55a1fba5c95718f65dc24361a471e3da14cd5ff2b37315960405160405180910390a25056fea2646970667358221220b3b1e1d80ee785851ddcb775e88d6ead69867cd211f2728e4b960e39c5874d3564736f6c63430006040033",
			"opcodes": "PUSH1 0x80 PUSH1 0x40 MSTORE CALLVALUE DUP1 ISZERO PUSH1 0xF JUMPI PUSH1 0x0 DUP1 REVERT JUMPDEST POP PUSH1 0xBE DUP1 PUSH2 0x1E PUSH1 0x0 CODECOPY PUSH1 0x0 RETURN INVALID PUSH1 0x80 PUSH1 0x40 MSTORE CALLVALUE DUP1 ISZERO PUSH1 0xF JUMPI PUSH1 0x0 DUP1 REVERT JUMPDEST POP PUSH1 0x4 CALLDATASIZE LT PUSH1 0x28 JUMPI PUSH1 0x0 CALLDATALOAD PUSH1 0xE0 SHR DUP1 PUSH4 0xC95CF0D8 EQ PUSH1 0x2D JUMPI JUMPDEST PUSH1 0x0 DUP1 REVERT JUMPDEST PUSH1 0x56 PUSH1 0x4 DUP1 CALLDATASIZE SUB PUSH1 0x20 DUP2 LT ISZERO PUSH1 0x41 JUMPI PUSH1 0x0 DUP1 REVERT JUMPDEST DUP2 ADD SWAP1 DUP1 DUP1 CALLDATALOAD SWAP1 PUSH1 0x20 ADD SWAP1 SWAP3 SWAP2 SWAP1 POP POP POP PUSH1 0x58 JUMP JUMPDEST STOP JUMPDEST DUP1 PUSH32 0x29AB08C845830C69B55A1FBA5C95718F65DC24361A471E3DA14CD5FF2B373159 PUSH1 0x40 MLOAD PUSH1 0x40 MLOAD DUP1 SWAP2 SUB SWAP1 LOG2 POP JUMP INVALID LOG2 PUSH5 0x6970667358 0x22 SLT KECCAK256 0xB3 0xB1 0xE1 0xD8 0xE 0xE7 DUP6 DUP6 SAR 0xDC 0xB7 PUSH22 0xE88D6EAD69867CD211F2728E4B960E39C5874D356473 PUSH16 0x6C634300060400330000000000000000 "
		},
		"gasEstimates": {
			"creation": {
				"codeDepositCost": "38000",
				"executionCost": "87",
				"totalCost": "38087"
			},
			"external": {
				"oneArgument(uint256)": "1361"
			}
		},
		"methodIdentifiers": {
			"oneArgument(uint256)": "c95cf0d8"
		}
	},
	"abi": [
		{
			"anonymous": false,
			"inputs": [
				{
					"indexed": true,
					"internalType": "uint256",
					"name": "argumentOne",
					"type": "uint256"
				}
			],
			"name": "OneArgumentCalled",
			"type": "event"
		},
		{
			"inputs": [
				{
					"internalType": "uint256",
					"name": "argumentOne",
					"type": "uint256"
				}
			],
			"name": "oneArgument",
			"outputs": [],
			"stateMutability": "nonpayable",
			"type": "function"
		}
	]
}